{
  "contractName": "Coupon",
  "abi": [
    {
      "inputs": [],
      "stateMutability": "nonpayable",
      "type": "constructor"
    },
    {
      "anonymous": false,
      "inputs": [
        {
          "indexed": true,
          "internalType": "address",
          "name": "owner",
          "type": "address"
        },
        {
          "indexed": true,
          "internalType": "address",
          "name": "approved",
          "type": "address"
        },
        {
          "indexed": true,
          "internalType": "uint256",
          "name": "tokenId",
          "type": "uint256"
        }
      ],
      "name": "Approval",
      "type": "event"
    },
    {
      "anonymous": false,
      "inputs": [
        {
          "indexed": true,
          "internalType": "address",
          "name": "owner",
          "type": "address"
        },
        {
          "indexed": true,
          "internalType": "address",
          "name": "operator",
          "type": "address"
        },
        {
          "indexed": false,
          "internalType": "bool",
          "name": "approved",
          "type": "bool"
        }
      ],
      "name": "ApprovalForAll",
      "type": "event"
    },
    {
      "anonymous": false,
      "inputs": [
        {
          "indexed": true,
          "internalType": "address",
          "name": "previousOwner",
          "type": "address"
        },
        {
          "indexed": true,
          "internalType": "address",
          "name": "newOwner",
          "type": "address"
        }
      ],
      "name": "OwnershipTransferred",
      "type": "event"
    },
    {
      "anonymous": false,
      "inputs": [
        {
          "indexed": true,
          "internalType": "address",
          "name": "from",
          "type": "address"
        },
        {
          "indexed": true,
          "internalType": "address",
          "name": "to",
          "type": "address"
        },
        {
          "indexed": true,
          "internalType": "uint256",
          "name": "tokenId",
          "type": "uint256"
        }
      ],
      "name": "Transfer",
      "type": "event"
    },
    {
      "anonymous": false,
      "inputs": [
        {
          "indexed": false,
          "internalType": "address",
          "name": "customer",
          "type": "address"
        },
        {
          "indexed": false,
          "internalType": "uint256",
          "name": "tokenId",
          "type": "uint256"
        },
        {
          "indexed": false,
          "internalType": "string",
          "name": "tokenURI",
          "type": "string"
        },
        {
          "indexed": false,
          "internalType": "uint256",
          "name": "blockTimeStamp",
          "type": "uint256"
        }
      ],
      "name": "redeemCouponEvent",
      "type": "event"
    },
    {
      "inputs": [
        {
          "internalType": "address",
          "name": "to",
          "type": "address"
        },
        {
          "internalType": "uint256",
          "name": "tokenId",
          "type": "uint256"
        }
      ],
      "name": "approve",
      "outputs": [],
      "stateMutability": "nonpayable",
      "type": "function"
    },
    {
      "inputs": [
        {
          "internalType": "address",
          "name": "owner",
          "type": "address"
        }
      ],
      "name": "balanceOf",
      "outputs": [
        {
          "internalType": "uint256",
          "name": "",
          "type": "uint256"
        }
      ],
      "stateMutability": "view",
      "type": "function",
      "constant": true
    },
    {
      "inputs": [],
      "name": "baseURI",
      "outputs": [
        {
          "internalType": "string",
          "name": "",
          "type": "string"
        }
      ],
      "stateMutability": "view",
      "type": "function",
      "constant": true
    },
    {
      "inputs": [
        {
          "internalType": "uint256",
          "name": "",
          "type": "uint256"
        }
      ],
      "name": "coupons",
      "outputs": [
        {
          "internalType": "uint256",
          "name": "tokenId",
          "type": "uint256"
        },
        {
          "internalType": "string",
          "name": "description",
          "type": "string"
        },
        {
          "internalType": "string",
          "name": "expiryDate",
          "type": "string"
        },
        {
          "internalType": "uint256",
          "name": "value",
          "type": "uint256"
        },
        {
          "internalType": "bool",
          "name": "redeemed",
          "type": "bool"
        },
        {
          "internalType": "uint256",
          "name": "redeemedTimeStamp",
          "type": "uint256"
        }
      ],
      "stateMutability": "view",
      "type": "function",
      "constant": true
    },
    {
      "inputs": [
        {
          "internalType": "uint256",
          "name": "tokenId",
          "type": "uint256"
        }
      ],
      "name": "getApproved",
      "outputs": [
        {
          "internalType": "address",
          "name": "",
          "type": "address"
        }
      ],
      "stateMutability": "view",
      "type": "function",
      "constant": true
    },
    {
      "inputs": [
        {
          "internalType": "address",
          "name": "owner",
          "type": "address"
        },
        {
          "internalType": "address",
          "name": "operator",
          "type": "address"
        }
      ],
      "name": "isApprovedForAll",
      "outputs": [
        {
          "internalType": "bool",
          "name": "",
          "type": "bool"
        }
      ],
      "stateMutability": "view",
      "type": "function",
      "constant": true
    },
    {
      "inputs": [],
      "name": "name",
      "outputs": [
        {
          "internalType": "string",
          "name": "",
          "type": "string"
        }
      ],
      "stateMutability": "view",
      "type": "function",
      "constant": true
    },
    {
      "inputs": [],
      "name": "owner",
      "outputs": [
        {
          "internalType": "address",
          "name": "",
          "type": "address"
        }
      ],
      "stateMutability": "view",
      "type": "function",
      "constant": true
    },
    {
      "inputs": [
        {
          "internalType": "uint256",
          "name": "tokenId",
          "type": "uint256"
        }
      ],
      "name": "ownerOf",
      "outputs": [
        {
          "internalType": "address",
          "name": "",
          "type": "address"
        }
      ],
      "stateMutability": "view",
      "type": "function",
      "constant": true
    },
    {
      "inputs": [],
      "name": "renounceOwnership",
      "outputs": [],
      "stateMutability": "nonpayable",
      "type": "function"
    },
    {
      "inputs": [
        {
          "internalType": "address",
          "name": "from",
          "type": "address"
        },
        {
          "internalType": "address",
          "name": "to",
          "type": "address"
        },
        {
          "internalType": "uint256",
          "name": "tokenId",
          "type": "uint256"
        }
      ],
      "name": "safeTransferFrom",
      "outputs": [],
      "stateMutability": "nonpayable",
      "type": "function"
    },
    {
      "inputs": [
        {
          "internalType": "address",
          "name": "from",
          "type": "address"
        },
        {
          "internalType": "address",
          "name": "to",
          "type": "address"
        },
        {
          "internalType": "uint256",
          "name": "tokenId",
          "type": "uint256"
        },
        {
          "internalType": "bytes",
          "name": "_data",
          "type": "bytes"
        }
      ],
      "name": "safeTransferFrom",
      "outputs": [],
      "stateMutability": "nonpayable",
      "type": "function"
    },
    {
      "inputs": [
        {
          "internalType": "address",
          "name": "operator",
          "type": "address"
        },
        {
          "internalType": "bool",
          "name": "approved",
          "type": "bool"
        }
      ],
      "name": "setApprovalForAll",
      "outputs": [],
      "stateMutability": "nonpayable",
      "type": "function"
    },
    {
      "inputs": [
        {
          "internalType": "bytes4",
          "name": "interfaceId",
          "type": "bytes4"
        }
      ],
      "name": "supportsInterface",
      "outputs": [
        {
          "internalType": "bool",
          "name": "",
          "type": "bool"
        }
      ],
      "stateMutability": "view",
      "type": "function",
      "constant": true
    },
    {
      "inputs": [],
      "name": "symbol",
      "outputs": [
        {
          "internalType": "string",
          "name": "",
          "type": "string"
        }
      ],
      "stateMutability": "view",
      "type": "function",
      "constant": true
    },
    {
      "inputs": [
        {
          "internalType": "uint256",
          "name": "index",
          "type": "uint256"
        }
      ],
      "name": "tokenByIndex",
      "outputs": [
        {
          "internalType": "uint256",
          "name": "",
          "type": "uint256"
        }
      ],
      "stateMutability": "view",
      "type": "function",
      "constant": true
    },
    {
      "inputs": [
        {
          "internalType": "uint256",
          "name": "",
          "type": "uint256"
        }
      ],
      "name": "tokenIds",
      "outputs": [
        {
          "internalType": "uint256",
          "name": "",
          "type": "uint256"
        }
      ],
      "stateMutability": "view",
      "type": "function",
      "constant": true
    },
    {
      "inputs": [
        {
          "internalType": "address",
          "name": "owner",
          "type": "address"
        },
        {
          "internalType": "uint256",
          "name": "index",
          "type": "uint256"
        }
      ],
      "name": "tokenOfOwnerByIndex",
      "outputs": [
        {
          "internalType": "uint256",
          "name": "",
          "type": "uint256"
        }
      ],
      "stateMutability": "view",
      "type": "function",
      "constant": true
    },
    {
      "inputs": [
        {
          "internalType": "uint256",
          "name": "tokenId",
          "type": "uint256"
        }
      ],
      "name": "tokenURI",
      "outputs": [
        {
          "internalType": "string",
          "name": "",
          "type": "string"
        }
      ],
      "stateMutability": "view",
      "type": "function",
      "constant": true
    },
    {
      "inputs": [],
      "name": "totalSupply",
      "outputs": [
        {
          "internalType": "uint256",
          "name": "",
          "type": "uint256"
        }
      ],
      "stateMutability": "view",
      "type": "function",
      "constant": true
    },
    {
      "inputs": [
        {
          "internalType": "address",
          "name": "from",
          "type": "address"
        },
        {
          "internalType": "address",
          "name": "to",
          "type": "address"
        },
        {
          "internalType": "uint256",
          "name": "tokenId",
          "type": "uint256"
        }
      ],
      "name": "transferFrom",
      "outputs": [],
      "stateMutability": "nonpayable",
      "type": "function"
    },
    {
      "inputs": [
        {
          "internalType": "address",
          "name": "newOwner",
          "type": "address"
        }
      ],
      "name": "transferOwnership",
      "outputs": [],
      "stateMutability": "nonpayable",
      "type": "function"
    },
    {
      "inputs": [
        {
          "internalType": "address",
          "name": "customer",
          "type": "address"
        },
        {
          "internalType": "string",
          "name": "tokenURI",
          "type": "string"
        }
      ],
      "name": "awardCoupon",
      "outputs": [
        {
          "internalType": "uint256",
          "name": "",
          "type": "uint256"
        }
      ],
      "stateMutability": "nonpayable",
      "type": "function"
    },
    {
      "inputs": [
        {
          "internalType": "uint256",
          "name": "tokenId",
          "type": "uint256"
        }
      ],
      "name": "redeem",
      "outputs": [],
      "stateMutability": "nonpayable",
      "type": "function"
    },
    {
      "inputs": [],
      "name": "getMyCoupons",
      "outputs": [
        {
          "components": [
            {
              "internalType": "uint256",
              "name": "tokenId",
              "type": "uint256"
            },
            {
              "internalType": "string",
              "name": "description",
              "type": "string"
            },
            {
              "internalType": "string",
              "name": "expiryDate",
              "type": "string"
            },
            {
              "internalType": "uint256",
              "name": "value",
              "type": "uint256"
            },
            {
              "internalType": "bool",
              "name": "redeemed",
              "type": "bool"
            },
            {
              "internalType": "uint256",
              "name": "redeemedTimeStamp",
              "type": "uint256"
            }
          ],
          "internalType": "struct Coupon.CouponItem[]",
          "name": "",
          "type": "tuple[]"
        }
      ],
      "stateMutability": "view",
      "type": "function",
      "constant": true
    }
  ],
  "bytecode": "0x60806040523480156200001157600080fd5b506040518060400160405280600681526020017f436f75706f6e00000000000000000000000000000000000000000000000000008152506040518060400160405280600381526020017f43504e0000000000000000000000000000000000000000000000000000000000815250600062000090620001c860201b60201c565b9050806000806101000a81548173ffffffffffffffffffffffffffffffffffffffff021916908373ffffffffffffffffffffffffffffffffffffffff1602179055508073ffffffffffffffffffffffffffffffffffffffff16600073ffffffffffffffffffffffffffffffffffffffff167f8be0079c531659141344cd1fd0a4f28419497f9722a3daafe3b4186f6b6457e060405160405180910390a350620001466301ffc9a760e01b620001d060201b60201c565b81600790805190602001906200015e929190620002a8565b50806008908051906020019062000177929190620002a8565b50620001906380ac58cd60e01b620001d060201b60201c565b620001a8635b5e139f60e01b620001d060201b60201c565b620001c063780e9d6360e01b620001d060201b60201c565b5050620003c3565b600033905090565b63ffffffff60e01b817bffffffffffffffffffffffffffffffffffffffffffffffffffffffff191614156200023c576040517f08c379a0000000000000000000000000000000000000000000000000000000008152600401620002339062000390565b60405180910390fd5b6001806000837bffffffffffffffffffffffffffffffffffffffffffffffffffffffff19167bffffffffffffffffffffffffffffffffffffffffffffffffffffffff1916815260200190815260200160002060006101000a81548160ff02191690831515021790555050565b828054600181600116156101000203166002900490600052602060002090601f016020900481019282601f10620002eb57805160ff19168380011785556200031c565b828001600101855582156200031c579182015b828111156200031b578251825591602001919060010190620002fe565b5b5090506200032b91906200032f565b5090565b5b808211156200034a57600081600090555060010162000330565b5090565b60006200035d601c83620003b2565b91507f4552433136353a20696e76616c696420696e74657266616365206964000000006000830152602082019050919050565b60006020820190508181036000830152620003ab816200034e565b9050919050565b600082825260208201905092915050565b613fe280620003d36000396000f3fe608060405234801561001057600080fd5b50600436106101735760003560e01c806370a08231116100de578063b88d4fde11610097578063d58778d611610071578063d58778d614610477578063db006a75146104a7578063e985e9c5146104c3578063f2fde38b146104f357610173565b8063b88d4fde146103fb578063c87b56dd14610417578063cd0b06291461044757610173565b806370a082311461034b578063715018a61461037b5780637ed80ccf146103855780638da5cb5b146103a357806395d89b41146103c1578063a22cb465146103df57610173565b80632f745c59116101305780632f745c591461024c57806330828e921461027c57806342842e0e146102b15780634f6ccce7146102cd5780636352211e146102fd5780636c0360eb1461032d57610173565b806301ffc9a71461017857806306fdde03146101a8578063081812fc146101c6578063095ea7b3146101f657806318160ddd1461021257806323b872dd14610230575b600080fd5b610192600480360381019061018d9190612d6e565b61050f565b60405161019f9190613942565b60405180910390f35b6101b0610577565b6040516101bd919061395d565b60405180910390f35b6101e060048036038101906101db9190612dc0565b610619565b6040516101ed919061386d565b60405180910390f35b610210600480360381019061020b9190612d32565b61069e565b005b61021a6107b6565b6040516102279190613c3f565b60405180910390f35b61024a60048036038101906102459190612bd8565b6107c7565b005b61026660048036038101906102619190612d32565b610827565b6040516102739190613c3f565b60405180910390f35b61029660048036038101906102919190612dc0565b610882565b6040516102a896959493929190613c5a565b60405180910390f35b6102cb60048036038101906102c69190612bd8565b6109fb565b005b6102e760048036038101906102e29190612dc0565b610a1b565b6040516102f49190613c3f565b60405180910390f35b61031760048036038101906103129190612dc0565b610a3e565b604051610324919061386d565b60405180910390f35b610335610a75565b604051610342919061395d565b60405180910390f35b61036560048036038101906103609190612b73565b610b17565b6040516103729190613c3f565b60405180910390f35b610383610bd6565b005b61038d610d10565b60405161039a9190613920565b60405180910390f35b6103ab610fae565b6040516103b8919061386d565b60405180910390f35b6103c9610fd7565b6040516103d6919061395d565b60405180910390f35b6103f960048036038101906103f49190612ca2565b611079565b005b61041560048036038101906104109190612c27565b6111fa565b005b610431600480360381019061042c9190612dc0565b61125c565b60405161043e919061395d565b60405180910390f35b610461600480360381019061045c9190612cde565b6113df565b60405161046e9190613c3f565b60405180910390f35b610491600480360381019061048c9190612dc0565b6115e2565b60405161049e9190613c3f565b60405180910390f35b6104c160048036038101906104bc9190612dc0565b611603565b005b6104dd60048036038101906104d89190612b9c565b611775565b6040516104ea9190613942565b60405180910390f35b61050d60048036038101906105089190612b73565b611809565b005b600060016000837bffffffffffffffffffffffffffffffffffffffffffffffffffffffff19167bffffffffffffffffffffffffffffffffffffffffffffffffffffffff1916815260200190815260200160002060009054906101000a900460ff169050919050565b606060078054600181600116156101000203166002900480601f01602080910402602001604051908101604052809291908181526020018280546001816001161561010002031660029004801561060f5780601f106105e45761010080835404028352916020019161060f565b820191906000526020600020905b8154815290600101906020018083116105f257829003601f168201915b5050505050905090565b6000610624826119b2565b610663576040517f08c379a000000000000000000000000000000000000000000000000000000000815260040161065a90613b1f565b60405180910390fd5b6005600083815260200190815260200160002060009054906101000a900473ffffffffffffffffffffffffffffffffffffffff169050919050565b60006106a982610a3e565b90508073ffffffffffffffffffffffffffffffffffffffff168373ffffffffffffffffffffffffffffffffffffffff16141561071a576040517f08c379a000000000000000000000000000000000000000000000000000000000815260040161071190613bbf565b60405180910390fd5b8073ffffffffffffffffffffffffffffffffffffffff166107396119cf565b73ffffffffffffffffffffffffffffffffffffffff1614806107685750610767816107626119cf565b611775565b5b6107a7576040517f08c379a000000000000000000000000000000000000000000000000000000000815260040161079e90613a9f565b60405180910390fd5b6107b183836119d7565b505050565b60006107c26003611a90565b905090565b6107d86107d26119cf565b82611aa5565b610817576040517f08c379a000000000000000000000000000000000000000000000000000000000815260040161080e90613bff565b60405180910390fd5b610822838383611b83565b505050565b600061087a82600260008673ffffffffffffffffffffffffffffffffffffffff1673ffffffffffffffffffffffffffffffffffffffff168152602001908152602001600020611d9a90919063ffffffff16565b905092915050565b600c602052806000526040600020600091509050806000015490806001018054600181600116156101000203166002900480601f0160208091040260200160405190810160405280929190818152602001828054600181600116156101000203166002900480156109345780601f1061090957610100808354040283529160200191610934565b820191906000526020600020905b81548152906001019060200180831161091757829003601f168201915b505050505090806002018054600181600116156101000203166002900480601f0160208091040260200160405190810160405280929190818152602001828054600181600116156101000203166002900480156109d25780601f106109a7576101008083540402835291602001916109d2565b820191906000526020600020905b8154815290600101906020018083116109b557829003601f168201915b5050505050908060030154908060040160009054906101000a900460ff16908060050154905086565b610a16838383604051806020016040528060008152506111fa565b505050565b600080610a32836003611db490919063ffffffff16565b50905080915050919050565b6000610a6e82604051806060016040528060298152602001613f84602991396003611de09092919063ffffffff16565b9050919050565b6060600a8054600181600116156101000203166002900480601f016020809104026020016040519081016040528092919081815260200182805460018160011615610100020316600290048015610b0d5780601f10610ae257610100808354040283529160200191610b0d565b820191906000526020600020905b815481529060010190602001808311610af057829003601f168201915b5050505050905090565b60008073ffffffffffffffffffffffffffffffffffffffff168273ffffffffffffffffffffffffffffffffffffffff161415610b88576040517f08c379a0000000000000000000000000000000000000000000000000000000008152600401610b7f90613abf565b60405180910390fd5b610bcf600260008473ffffffffffffffffffffffffffffffffffffffff1673ffffffffffffffffffffffffffffffffffffffff168152602001908152602001600020611dff565b9050919050565b610bde6119cf565b73ffffffffffffffffffffffffffffffffffffffff16610bfc610fae565b73ffffffffffffffffffffffffffffffffffffffff1614610c52576040517f08c379a0000000000000000000000000000000000000000000000000000000008152600401610c4990613b5f565b60405180910390fd5b600073ffffffffffffffffffffffffffffffffffffffff1660008054906101000a900473ffffffffffffffffffffffffffffffffffffffff1673ffffffffffffffffffffffffffffffffffffffff167f8be0079c531659141344cd1fd0a4f28419497f9722a3daafe3b4186f6b6457e060405160405180910390a360008060006101000a81548173ffffffffffffffffffffffffffffffffffffffff021916908373ffffffffffffffffffffffffffffffffffffffff160217905550565b606080610d1c33610b17565b67ffffffffffffffff81118015610d3257600080fd5b50604051908082528060200260200182016040528015610d6c57816020015b610d5961298d565b815260200190600190039081610d515790505b509050600080610d7b33610b17565b1115610fa6576000805b610d8d6107b6565b811015610fa357610d9d81610a1b565b92503373ffffffffffffffffffffffffffffffffffffffff16610dbf84610a3e565b73ffffffffffffffffffffffffffffffffffffffff161415610f9657600c60008481526020019081526020016000206040518060c001604052908160008201548152602001600182018054600181600116156101000203166002900480601f016020809104026020016040519081016040528092919081815260200182805460018160011615610100020316600290048015610e9c5780601f10610e7157610100808354040283529160200191610e9c565b820191906000526020600020905b815481529060010190602001808311610e7f57829003601f168201915b50505050508152602001600282018054600181600116156101000203166002900480601f016020809104026020016040519081016040528092919081815260200182805460018160011615610100020316600290048015610f3e5780601f10610f1357610100808354040283529160200191610f3e565b820191906000526020600020905b815481529060010190602001808311610f2157829003601f168201915b50505050508152602001600382015481526020016004820160009054906101000a900460ff16151515158152602001600582015481525050848381518110610f8257fe5b602002602001018190525081806001019250505b8080600101915050610d85565b50505b819250505090565b60008060009054906101000a900473ffffffffffffffffffffffffffffffffffffffff16905090565b606060088054600181600116156101000203166002900480601f01602080910402602001604051908101604052809291908181526020018280546001816001161561010002031660029004801561106f5780601f106110445761010080835404028352916020019161106f565b820191906000526020600020905b81548152906001019060200180831161105257829003601f168201915b5050505050905090565b6110816119cf565b73ffffffffffffffffffffffffffffffffffffffff168273ffffffffffffffffffffffffffffffffffffffff1614156110ef576040517f08c379a00000000000000000000000000000000000000000000000000000000081526004016110e690613a1f565b60405180910390fd5b80600660006110fc6119cf565b73ffffffffffffffffffffffffffffffffffffffff1673ffffffffffffffffffffffffffffffffffffffff16815260200190815260200160002060008473ffffffffffffffffffffffffffffffffffffffff1673ffffffffffffffffffffffffffffffffffffffff16815260200190815260200160002060006101000a81548160ff0219169083151502179055508173ffffffffffffffffffffffffffffffffffffffff166111a96119cf565b73ffffffffffffffffffffffffffffffffffffffff167f17307eab39ab6107e8899845ad3d59bd9653f200f220920489ca2b5937696c31836040516111ee9190613942565b60405180910390a35050565b61120b6112056119cf565b83611aa5565b61124a576040517f08c379a000000000000000000000000000000000000000000000000000000000815260040161124190613bff565b60405180910390fd5b61125684848484611e14565b50505050565b6060611267826119b2565b6112a6576040517f08c379a000000000000000000000000000000000000000000000000000000000815260040161129d90613b9f565b60405180910390fd5b6060600960008481526020019081526020016000208054600181600116156101000203166002900480601f01602080910402602001604051908101604052809291908181526020018280546001816001161561010002031660029004801561134f5780601f106113245761010080835404028352916020019161134f565b820191906000526020600020905b81548152906001019060200180831161133257829003601f168201915b505050505090506060611360610a75565b90506000815114156113765781925050506113da565b6000825111156113ab578082604051602001611393929190613849565b604051602081830303815290604052925050506113da565b806113b585611e70565b6040516020016113c6929190613849565b604051602081830303815290604052925050505b919050565b60006113e96119cf565b73ffffffffffffffffffffffffffffffffffffffff16611407610fae565b73ffffffffffffffffffffffffffffffffffffffff161461145d576040517f08c379a000000000000000000000000000000000000000000000000000000000815260040161145490613b5f565b60405180910390fd5b611467600b611fb7565b6000611473600b611fcd565b905061147f8482611fdb565b6114898184612169565b80600c6000838152602001908152602001600020600001819055506040518060400160405280600b81526020017f4361736820436f75706f6e000000000000000000000000000000000000000000815250600c600083815260200190815260200160002060010190805190602001906115039291906129c5565b506040518060400160405280600a81526020017f323032322d31322d333100000000000000000000000000000000000000000000815250600c600083815260200190815260200160002060020190805190602001906115639291906129c5565b506032600c6000838152602001908152602001600020600301819055506000600c600083815260200190815260200160002060040160006101000a81548160ff021916908315150217905550600d8190806001815401808255809150506001900390600052602060002001600090919091909150558091505092915050565b600d81815481106115ef57fe5b906000526020600020016000915090505481565b3373ffffffffffffffffffffffffffffffffffffffff1661162382610a3e565b73ffffffffffffffffffffffffffffffffffffffff1614611679576040517f08c379a000000000000000000000000000000000000000000000000000000000815260040161167090613a3f565b60405180910390fd5b60001515600c600083815260200190815260200160002060040160009054906101000a900460ff161515146116e3576040517f08c379a00000000000000000000000000000000000000000000000000000000081526004016116da90613bdf565b60405180910390fd5b6001600c600083815260200190815260200160002060040160006101000a81548160ff02191690831515021790555042600c6000838152602001908152602001600020600501819055507f8e3a1a89eb3369215a669ad13e615e4ad362178313dc312fc4f7613c1dc24a7433826117598461125c565b4260405161176a94939291906138d4565b60405180910390a150565b6000600660008473ffffffffffffffffffffffffffffffffffffffff1673ffffffffffffffffffffffffffffffffffffffff16815260200190815260200160002060008373ffffffffffffffffffffffffffffffffffffffff1673ffffffffffffffffffffffffffffffffffffffff16815260200190815260200160002060009054906101000a900460ff16905092915050565b6118116119cf565b73ffffffffffffffffffffffffffffffffffffffff1661182f610fae565b73ffffffffffffffffffffffffffffffffffffffff1614611885576040517f08c379a000000000000000000000000000000000000000000000000000000000815260040161187c90613b5f565b60405180910390fd5b600073ffffffffffffffffffffffffffffffffffffffff168173ffffffffffffffffffffffffffffffffffffffff1614156118f5576040517f08c379a00000000000000000000000000000000000000000000000000000000081526004016118ec906139bf565b60405180910390fd5b8073ffffffffffffffffffffffffffffffffffffffff1660008054906101000a900473ffffffffffffffffffffffffffffffffffffffff1673ffffffffffffffffffffffffffffffffffffffff167f8be0079c531659141344cd1fd0a4f28419497f9722a3daafe3b4186f6b6457e060405160405180910390a3806000806101000a81548173ffffffffffffffffffffffffffffffffffffffff021916908373ffffffffffffffffffffffffffffffffffffffff16021790555050565b60006119c88260036121dd90919063ffffffff16565b9050919050565b600033905090565b816005600083815260200190815260200160002060006101000a81548173ffffffffffffffffffffffffffffffffffffffff021916908373ffffffffffffffffffffffffffffffffffffffff160217905550808273ffffffffffffffffffffffffffffffffffffffff16611a4a83610a3e565b73ffffffffffffffffffffffffffffffffffffffff167f8c5be1e5ebec7d5bd14f71427d1e84f3dd0314c0f7b2291e5b200ac8c7c3b92560405160405180910390a45050565b6000611a9e826000016121f7565b9050919050565b6000611ab0826119b2565b611aef576040517f08c379a0000000000000000000000000000000000000000000000000000000008152600401611ae690613a7f565b60405180910390fd5b6000611afa83610a3e565b90508073ffffffffffffffffffffffffffffffffffffffff168473ffffffffffffffffffffffffffffffffffffffff161480611b6957508373ffffffffffffffffffffffffffffffffffffffff16611b5184610619565b73ffffffffffffffffffffffffffffffffffffffff16145b80611b7a5750611b798185611775565b5b91505092915050565b8273ffffffffffffffffffffffffffffffffffffffff16611ba382610a3e565b73ffffffffffffffffffffffffffffffffffffffff1614611bf9576040517f08c379a0000000000000000000000000000000000000000000000000000000008152600401611bf090613b7f565b60405180910390fd5b600073ffffffffffffffffffffffffffffffffffffffff168273ffffffffffffffffffffffffffffffffffffffff161415611c69576040517f08c379a0000000000000000000000000000000000000000000000000000000008152600401611c60906139ff565b60405180910390fd5b611c74838383612208565b611c7f6000826119d7565b611cd081600260008673ffffffffffffffffffffffffffffffffffffffff1673ffffffffffffffffffffffffffffffffffffffff16815260200190815260200160002061220d90919063ffffffff16565b50611d2281600260008573ffffffffffffffffffffffffffffffffffffffff1673ffffffffffffffffffffffffffffffffffffffff16815260200190815260200160002061222790919063ffffffff16565b50611d39818360036122419092919063ffffffff16565b50808273ffffffffffffffffffffffffffffffffffffffff168473ffffffffffffffffffffffffffffffffffffffff167fddf252ad1be2c89b69c2b068fc378daa952ba7f163c4a11628f55a4df523b3ef60405160405180910390a4505050565b6000611da98360000183612276565b60001c905092915050565b600080600080611dc786600001866122e3565b915091508160001c8160001c9350935050509250929050565b6000611df3846000018460001b84612366565b60001c90509392505050565b6000611e0d826000016123f7565b9050919050565b611e1f848484611b83565b611e2b84848484612408565b611e6a576040517f08c379a0000000000000000000000000000000000000000000000000000000008152600401611e619061399f565b60405180910390fd5b50505050565b60606000821415611eb8576040518060400160405280600181526020017f30000000000000000000000000000000000000000000000000000000000000008152509050611fb2565b600082905060005b60008214611ee2578080600101915050600a8281611eda57fe5b049150611ec0565b60608167ffffffffffffffff81118015611efb57600080fd5b506040519080825280601f01601f191660200182016040528015611f2e5781602001600182028036833780820191505090505b50905060006001830390508593505b60008414611faa57600a8481611f4f57fe5b0660300160f81b82828060019003935081518110611f6957fe5b60200101907effffffffffffffffffffffffffffffffffffffffffffffffffffffffffffff1916908160001a905350600a8481611fa257fe5b049350611f3d565b819450505050505b919050565b6001816000016000828254019250508190555050565b600081600001549050919050565b600073ffffffffffffffffffffffffffffffffffffffff168273ffffffffffffffffffffffffffffffffffffffff16141561204b576040517f08c379a000000000000000000000000000000000000000000000000000000000815260040161204290613aff565b60405180910390fd5b612054816119b2565b15612094576040517f08c379a000000000000000000000000000000000000000000000000000000000815260040161208b906139df565b60405180910390fd5b6120a060008383612208565b6120f181600260008573ffffffffffffffffffffffffffffffffffffffff1673ffffffffffffffffffffffffffffffffffffffff16815260200190815260200160002061222790919063ffffffff16565b50612108818360036122419092919063ffffffff16565b50808273ffffffffffffffffffffffffffffffffffffffff16600073ffffffffffffffffffffffffffffffffffffffff167fddf252ad1be2c89b69c2b068fc378daa952ba7f163c4a11628f55a4df523b3ef60405160405180910390a45050565b612172826119b2565b6121b1576040517f08c379a00000000000000000000000000000000000000000000000000000000081526004016121a890613b3f565b60405180910390fd5b806009600084815260200190815260200160002090805190602001906121d89291906129c5565b505050565b60006121ef836000018360001b61256c565b905092915050565b600081600001805490509050919050565b505050565b600061221f836000018360001b61258f565b905092915050565b6000612239836000018360001b612677565b905092915050565b600061226d846000018460001b8473ffffffffffffffffffffffffffffffffffffffff1660001b6126e7565b90509392505050565b6000818360000180549050116122c1576040517f08c379a00000000000000000000000000000000000000000000000000000000081526004016122b89061397f565b60405180910390fd5b8260000182815481106122d057fe5b9060005260206000200154905092915050565b6000808284600001805490501161232f576040517f08c379a000000000000000000000000000000000000000000000000000000000815260040161232690613adf565b60405180910390fd5b600084600001848154811061234057fe5b906000526020600020906002020190508060000154816001015492509250509250929050565b600080846001016000858152602001908152602001600020549050600081141583906123c8576040517f08c379a00000000000000000000000000000000000000000000000000000000081526004016123bf919061395d565b60405180910390fd5b508460000160018203815481106123db57fe5b9060005260206000209060020201600101549150509392505050565b600081600001805490509050919050565b60006124298473ffffffffffffffffffffffffffffffffffffffff166127c3565b6124365760019050612564565b60606124fd63150b7a0260e01b61244b6119cf565b8887876040516024016124619493929190613888565b604051602081830303815290604052907bffffffffffffffffffffffffffffffffffffffffffffffffffffffff19166020820180517bffffffffffffffffffffffffffffffffffffffffffffffffffffffff8381831617835250505050604051806060016040528060328152602001613f52603291398773ffffffffffffffffffffffffffffffffffffffff166127d69092919063ffffffff16565b90506000818060200190518101906125159190612d97565b905063150b7a0260e01b7bffffffffffffffffffffffffffffffffffffffffffffffffffffffff1916817bffffffffffffffffffffffffffffffffffffffffffffffffffffffff191614925050505b949350505050565b600080836001016000848152602001908152602001600020541415905092915050565b6000808360010160008481526020019081526020016000205490506000811461266b57600060018203905060006001866000018054905003905060008660000182815481106125da57fe5b90600052602060002001549050808760000184815481106125f757fe5b906000526020600020018190555060018301876001016000838152602001908152602001600020819055508660000180548061262f57fe5b60019003818190600052602060002001600090559055866001016000878152602001908152602001600020600090556001945050505050612671565b60009150505b92915050565b600061268383836127ee565b6126dc5782600001829080600181540180825580915050600190039060005260206000200160009091909190915055826000018054905083600101600084815260200190815260200160002081905550600190506126e1565b600090505b92915050565b600080846001016000858152602001908152602001600020549050600081141561278e578460000160405180604001604052808681526020018581525090806001815401808255809150506001900390600052602060002090600202016000909190919091506000820151816000015560208201518160010155505084600001805490508560010160008681526020019081526020016000208190555060019150506127bc565b828560000160018303815481106127a157fe5b90600052602060002090600202016001018190555060009150505b9392505050565b600080823b905060008111915050919050565b60606127e58484600085612811565b90509392505050565b600080836001016000848152602001908152602001600020541415905092915050565b606082471015612856576040517f08c379a000000000000000000000000000000000000000000000000000000000815260040161284d90613a5f565b60405180910390fd5b61285f856127c3565b61289e576040517f08c379a000000000000000000000000000000000000000000000000000000000815260040161289590613c1f565b60405180910390fd5b600060608673ffffffffffffffffffffffffffffffffffffffff1685876040516128c89190613832565b60006040518083038185875af1925050503d8060008114612905576040519150601f19603f3d011682016040523d82523d6000602084013e61290a565b606091505b509150915061291a828286612926565b92505050949350505050565b6060831561293657829050612986565b6000835111156129495782518084602001fd5b816040517f08c379a000000000000000000000000000000000000000000000000000000000815260040161297d919061395d565b60405180910390fd5b9392505050565b6040518060c0016040528060008152602001606081526020016060815260200160008152602001600015158152602001600081525090565b828054600181600116156101000203166002900490600052602060002090601f016020900481019282601f10612a0657805160ff1916838001178555612a34565b82800160010185558215612a34579182015b82811115612a33578251825591602001919060010190612a18565b5b509050612a419190612a45565b5090565b5b80821115612a5e576000816000905550600101612a46565b5090565b600081359050612a7181613ef5565b92915050565b600081359050612a8681613f0c565b92915050565b600081359050612a9b81613f23565b92915050565b600081519050612ab081613f23565b92915050565b600082601f830112612ac757600080fd5b8135612ada612ad582613cf6565b613cc9565b91508082526020830160208301858383011115612af657600080fd5b612b01838284613ea2565b50505092915050565b600082601f830112612b1b57600080fd5b8135612b2e612b2982613d22565b613cc9565b91508082526020830160208301858383011115612b4a57600080fd5b612b55838284613ea2565b50505092915050565b600081359050612b6d81613f3a565b92915050565b600060208284031215612b8557600080fd5b6000612b9384828501612a62565b91505092915050565b60008060408385031215612baf57600080fd5b6000612bbd85828601612a62565b9250506020612bce85828601612a62565b9150509250929050565b600080600060608486031215612bed57600080fd5b6000612bfb86828701612a62565b9350506020612c0c86828701612a62565b9250506040612c1d86828701612b5e565b9150509250925092565b60008060008060808587031215612c3d57600080fd5b6000612c4b87828801612a62565b9450506020612c5c87828801612a62565b9350506040612c6d87828801612b5e565b925050606085013567ffffffffffffffff811115612c8a57600080fd5b612c9687828801612ab6565b91505092959194509250565b60008060408385031215612cb557600080fd5b6000612cc385828601612a62565b9250506020612cd485828601612a77565b9150509250929050565b60008060408385031215612cf157600080fd5b6000612cff85828601612a62565b925050602083013567ffffffffffffffff811115612d1c57600080fd5b612d2885828601612b0a565b9150509250929050565b60008060408385031215612d4557600080fd5b6000612d5385828601612a62565b9250506020612d6485828601612b5e565b9150509250929050565b600060208284031215612d8057600080fd5b6000612d8e84828501612a8c565b91505092915050565b600060208284031215612da957600080fd5b6000612db784828501612aa1565b91505092915050565b600060208284031215612dd257600080fd5b6000612de084828501612b5e565b91505092915050565b6000612df58383613784565b905092915050565b612e0681613e6c565b82525050565b612e1581613df8565b82525050565b612e2481613de6565b82525050565b6000612e3582613d5e565b612e3f8185613d8c565b935083602082028501612e5185613d4e565b8060005b85811015612e8d5784840389528151612e6e8582612de9565b9450612e7983613d7f565b925060208a01995050600181019050612e55565b50829750879550505050505092915050565b612ea881613e0a565b82525050565b612eb781613e0a565b82525050565b6000612ec882613d69565b612ed28185613d9d565b9350612ee2818560208601613eb1565b612eeb81613ee4565b840191505092915050565b6000612f0182613d69565b612f0b8185613dae565b9350612f1b818560208601613eb1565b80840191505092915050565b6000612f3282613d74565b612f3c8185613db9565b9350612f4c818560208601613eb1565b612f5581613ee4565b840191505092915050565b6000612f6b82613d74565b612f758185613dca565b9350612f85818560208601613eb1565b612f8e81613ee4565b840191505092915050565b6000612fa482613d74565b612fae8185613ddb565b9350612fbe818560208601613eb1565b80840191505092915050565b6000612fd7602283613dca565b91507f456e756d657261626c655365743a20696e646578206f7574206f6620626f756e60008301527f64730000000000000000000000000000000000000000000000000000000000006020830152604082019050919050565b600061303d603283613dca565b91507f4552433732313a207472616e7366657220746f206e6f6e20455243373231526560008301527f63656976657220696d706c656d656e74657200000000000000000000000000006020830152604082019050919050565b60006130a3602683613dca565b91507f4f776e61626c653a206e6577206f776e657220697320746865207a65726f206160008301527f64647265737300000000000000000000000000000000000000000000000000006020830152604082019050919050565b6000613109601c83613dca565b91507f4552433732313a20746f6b656e20616c7265616479206d696e746564000000006000830152602082019050919050565b6000613149602483613dca565b91507f4552433732313a207472616e7366657220746f20746865207a65726f2061646460008301527f72657373000000000000000000000000000000000000000000000000000000006020830152604082019050919050565b60006131af601983613dca565b91507f4552433732313a20617070726f766520746f2063616c6c6572000000000000006000830152602082019050919050565b60006131ef600983613dca565b91507f4e6f74204f776e657200000000000000000000000000000000000000000000006000830152602082019050919050565b600061322f602683613dca565b91507f416464726573733a20696e73756666696369656e742062616c616e636520666f60008301527f722063616c6c00000000000000000000000000000000000000000000000000006020830152604082019050919050565b6000613295602c83613dca565b91507f4552433732313a206f70657261746f7220717565727920666f72206e6f6e657860008301527f697374656e7420746f6b656e00000000000000000000000000000000000000006020830152604082019050919050565b60006132fb603883613dca565b91507f4552433732313a20617070726f76652063616c6c6572206973206e6f74206f7760008301527f6e6572206e6f7220617070726f76656420666f7220616c6c00000000000000006020830152604082019050919050565b6000613361602a83613dca565b91507f4552433732313a2062616c616e636520717565727920666f7220746865207a6560008301527f726f2061646472657373000000000000000000000000000000000000000000006020830152604082019050919050565b60006133c7602283613dca565b91507f456e756d657261626c654d61703a20696e646578206f7574206f6620626f756e60008301527f64730000000000000000000000000000000000000000000000000000000000006020830152604082019050919050565b600061342d602083613dca565b91507f4552433732313a206d696e7420746f20746865207a65726f20616464726573736000830152602082019050919050565b600061346d602c83613dca565b91507f4552433732313a20617070726f76656420717565727920666f72206e6f6e657860008301527f697374656e7420746f6b656e00000000000000000000000000000000000000006020830152604082019050919050565b60006134d3602c83613dca565b91507f4552433732314d657461646174613a2055524920736574206f66206e6f6e657860008301527f697374656e7420746f6b656e00000000000000000000000000000000000000006020830152604082019050919050565b6000613539602083613dca565b91507f4f776e61626c653a2063616c6c6572206973206e6f7420746865206f776e65726000830152602082019050919050565b6000613579602983613dca565b91507f4552433732313a207472616e73666572206f6620746f6b656e2074686174206960008301527f73206e6f74206f776e00000000000000000000000000000000000000000000006020830152604082019050919050565b60006135df602f83613dca565b91507f4552433732314d657461646174613a2055524920717565727920666f72206e6f60008301527f6e6578697374656e7420746f6b656e00000000000000000000000000000000006020830152604082019050919050565b6000613645602183613dca565b91507f4552433732313a20617070726f76616c20746f2063757272656e74206f776e6560008301527f72000000000000000000000000000000000000000000000000000000000000006020830152604082019050919050565b60006136ab601083613dca565b91507f416c72656164792052656465656d6564000000000000000000000000000000006000830152602082019050919050565b60006136eb603183613dca565b91507f4552433732313a207472616e736665722063616c6c6572206973206e6f74206f60008301527f776e6572206e6f7220617070726f7665640000000000000000000000000000006020830152604082019050919050565b6000613751601d83613dca565b91507f416464726573733a2063616c6c20746f206e6f6e2d636f6e74726163740000006000830152602082019050919050565b600060c08301600083015161379c6000860182613814565b50602083015184820360208601526137b48282612f27565b915050604083015184820360408601526137ce8282612f27565b91505060608301516137e36060860182613814565b5060808301516137f66080860182612e9f565b5060a083015161380960a0860182613814565b508091505092915050565b61381d81613e62565b82525050565b61382c81613e62565b82525050565b600061383e8284612ef6565b915081905092915050565b60006138558285612f99565b91506138618284612f99565b91508190509392505050565b60006020820190506138826000830184612e1b565b92915050565b600060808201905061389d6000830187612e0c565b6138aa6020830186612e1b565b6138b76040830185613823565b81810360608301526138c98184612ebd565b905095945050505050565b60006080820190506138e96000830187612dfd565b6138f66020830186613823565b81810360408301526139088185612f60565b90506139176060830184613823565b95945050505050565b6000602082019050818103600083015261393a8184612e2a565b905092915050565b60006020820190506139576000830184612eae565b92915050565b600060208201905081810360008301526139778184612f60565b905092915050565b6000602082019050818103600083015261399881612fca565b9050919050565b600060208201905081810360008301526139b881613030565b9050919050565b600060208201905081810360008301526139d881613096565b9050919050565b600060208201905081810360008301526139f8816130fc565b9050919050565b60006020820190508181036000830152613a188161313c565b9050919050565b60006020820190508181036000830152613a38816131a2565b9050919050565b60006020820190508181036000830152613a58816131e2565b9050919050565b60006020820190508181036000830152613a7881613222565b9050919050565b60006020820190508181036000830152613a9881613288565b9050919050565b60006020820190508181036000830152613ab8816132ee565b9050919050565b60006020820190508181036000830152613ad881613354565b9050919050565b60006020820190508181036000830152613af8816133ba565b9050919050565b60006020820190508181036000830152613b1881613420565b9050919050565b60006020820190508181036000830152613b3881613460565b9050919050565b60006020820190508181036000830152613b58816134c6565b9050919050565b60006020820190508181036000830152613b788161352c565b9050919050565b60006020820190508181036000830152613b988161356c565b9050919050565b60006020820190508181036000830152613bb8816135d2565b9050919050565b60006020820190508181036000830152613bd881613638565b9050919050565b60006020820190508181036000830152613bf88161369e565b9050919050565b60006020820190508181036000830152613c18816136de565b9050919050565b60006020820190508181036000830152613c3881613744565b9050919050565b6000602082019050613c546000830184613823565b92915050565b600060c082019050613c6f6000830189613823565b8181036020830152613c818188612f60565b90508181036040830152613c958187612f60565b9050613ca46060830186613823565b613cb16080830185612eae565b613cbe60a0830184613823565b979650505050505050565b6000604051905081810181811067ffffffffffffffff82111715613cec57600080fd5b8060405250919050565b600067ffffffffffffffff821115613d0d57600080fd5b601f19601f8301169050602081019050919050565b600067ffffffffffffffff821115613d3957600080fd5b601f19601f8301169050602081019050919050565b6000819050602082019050919050565b600081519050919050565b600081519050919050565b600081519050919050565b6000602082019050919050565b600082825260208201905092915050565b600082825260208201905092915050565b600081905092915050565b600082825260208201905092915050565b600082825260208201905092915050565b600081905092915050565b6000613df182613e42565b9050919050565b6000613e0382613e42565b9050919050565b60008115159050919050565b60007fffffffff0000000000000000000000000000000000000000000000000000000082169050919050565b600073ffffffffffffffffffffffffffffffffffffffff82169050919050565b6000819050919050565b6000613e7782613e7e565b9050919050565b6000613e8982613e90565b9050919050565b6000613e9b82613e42565b9050919050565b82818337600083830152505050565b60005b83811015613ecf578082015181840152602081019050613eb4565b83811115613ede576000848401525b50505050565b6000601f19601f8301169050919050565b613efe81613de6565b8114613f0957600080fd5b50565b613f1581613e0a565b8114613f2057600080fd5b50565b613f2c81613e16565b8114613f3757600080fd5b50565b613f4381613e62565b8114613f4e57600080fd5b5056fe4552433732313a207472616e7366657220746f206e6f6e20455243373231526563656976657220696d706c656d656e7465724552433732313a206f776e657220717565727920666f72206e6f6e6578697374656e7420746f6b656ea2646970667358221220727a268790027bbfc4b91c369b7ca050fa1d86d012c6f689335c9c4b3829a86964736f6c634300060c0033",
  "immutableReferences": {},
  "source": "// contracts/Coupon.sol\n// SPDX-License-Identifier: MIT\npragma solidity ^0.6.0;\npragma experimental ABIEncoderV2;\n\nimport \"@openzeppelin/contracts/token/ERC721/ERC721.sol\";\nimport \"@openzeppelin/contracts/utils/Counters.sol\";\n\n// Import Ownable from the OpenZeppelin Contracts library\nimport \"@openzeppelin/contracts/access/Ownable.sol\";\n\ncontract Coupon is Ownable, ERC721 {\n    using Counters for Counters.Counter;\n    Counters.Counter private _tokenIds;\n\n    struct CouponItem { \n        uint256 tokenId;\n        string description;\n        string expiryDate;\n        uint value;\n        bool redeemed;\n        uint256 redeemedTimeStamp;\n    }\n    \n    mapping (uint256 => CouponItem) public coupons;\n    uint256 [] public tokenIds;\n\n    constructor() public ERC721(\"Coupon\", \"CPN\") {}\n\n    function awardCoupon(address customer, string memory tokenURI) public onlyOwner returns (uint256)\n    {\n        _tokenIds.increment();\n\n        uint256 newCouponId = _tokenIds.current();\n        _mint(customer, newCouponId);\n        _setTokenURI(newCouponId, tokenURI);\n\n        ////CouponItem memory c;\n        ////c = CouponItem(newCouponId,\"Cash Coupon\",\"2022-12-31\",50,false);\n\n        coupons[newCouponId].tokenId = newCouponId;\n        coupons[newCouponId].description = \"Cash Coupon\";\n        coupons[newCouponId].expiryDate = \"2022-12-31\";\n        coupons[newCouponId].value = 50;\n        coupons[newCouponId].redeemed = false;\n        tokenIds.push(newCouponId);\n        \n        return newCouponId;\n    }\n\n    event redeemCouponEvent(address customer, uint256 tokenId, string tokenURI, uint256 blockTimeStamp);\n\n    function redeem(uint256 tokenId) public { \n        require(ownerOf(tokenId) == msg.sender, \"Not Owner\");\n        require(coupons[tokenId].redeemed == false, \"Already Redeemed\");\n\n        coupons[tokenId].redeemed = true;\n        coupons[tokenId].redeemedTimeStamp = now;\n\n        emit redeemCouponEvent(msg.sender, tokenId, tokenURI(tokenId), now);\n    }\n\n    function getMyCoupons() public view returns (CouponItem[] memory) {\n        CouponItem [] memory myCoupons = new CouponItem[](balanceOf(msg.sender));\n        uint256 tokenId;\n\n        if (balanceOf(msg.sender) > 0) {\n            uint j = 0;\n            for (uint i = 0; i < totalSupply(); i++) {\n                tokenId = tokenByIndex(i);\n                if (ownerOf(tokenId) == msg.sender) {\n                    myCoupons[j] = coupons[tokenId];\n                    j++;\n                }\n            }\n        }\n\n        return myCoupons;\n    }\n}",
  "sourcePath": "/src/contracts/Coupon.sol",
  "compiler": {
    "name": "solc",
    "version": "0.6.12+commit.27d51765.Emscripten.clang"
  },
  "schemaVersion": "3.3.4",
  "updatedAt": "2021-03-09T21:55:06.504Z",
  "networkType": "ethereum",
  "devdoc": {
    "kind": "dev",
    "methods": {
      "approve(address,uint256)": {
        "details": "See {IERC721-approve}."
      },
      "balanceOf(address)": {
        "details": "See {IERC721-balanceOf}."
      },
      "baseURI()": {
        "details": "Returns the base URI set via {_setBaseURI}. This will be automatically added as a prefix in {tokenURI} to each token's URI, or to the token ID if no specific URI is set for that token ID."
      },
      "getApproved(uint256)": {
        "details": "See {IERC721-getApproved}."
      },
      "isApprovedForAll(address,address)": {
        "details": "See {IERC721-isApprovedForAll}."
      },
      "name()": {
        "details": "See {IERC721Metadata-name}."
      },
      "owner()": {
        "details": "Returns the address of the current owner."
      },
      "ownerOf(uint256)": {
        "details": "See {IERC721-ownerOf}."
      },
      "renounceOwnership()": {
        "details": "Leaves the contract without owner. It will not be possible to call `onlyOwner` functions anymore. Can only be called by the current owner. NOTE: Renouncing ownership will leave the contract without an owner, thereby removing any functionality that is only available to the owner."
      },
      "safeTransferFrom(address,address,uint256)": {
        "details": "See {IERC721-safeTransferFrom}."
      },
      "safeTransferFrom(address,address,uint256,bytes)": {
        "details": "See {IERC721-safeTransferFrom}."
      },
      "setApprovalForAll(address,bool)": {
        "details": "See {IERC721-setApprovalForAll}."
      },
      "supportsInterface(bytes4)": {
        "details": "See {IERC165-supportsInterface}. Time complexity O(1), guaranteed to always use less than 30 000 gas."
      },
      "symbol()": {
        "details": "See {IERC721Metadata-symbol}."
      },
      "tokenByIndex(uint256)": {
        "details": "See {IERC721Enumerable-tokenByIndex}."
      },
      "tokenOfOwnerByIndex(address,uint256)": {
        "details": "See {IERC721Enumerable-tokenOfOwnerByIndex}."
      },
      "tokenURI(uint256)": {
        "details": "See {IERC721Metadata-tokenURI}."
      },
      "totalSupply()": {
        "details": "See {IERC721Enumerable-totalSupply}."
      },
      "transferFrom(address,address,uint256)": {
        "details": "See {IERC721-transferFrom}."
      },
      "transferOwnership(address)": {
        "details": "Transfers ownership of the contract to a new account (`newOwner`). Can only be called by the current owner."
      }
    },
    "version": 1
  },
  "userdoc": {
    "kind": "user",
    "methods": {},
    "version": 1
  }
}