{
  "contractName": "Coupon",
  "abi": [
    {
      "inputs": [],
      "stateMutability": "nonpayable",
      "type": "constructor"
    },
    {
      "anonymous": false,
      "inputs": [
        {
          "indexed": true,
          "internalType": "address",
          "name": "owner",
          "type": "address"
        },
        {
          "indexed": true,
          "internalType": "address",
          "name": "approved",
          "type": "address"
        },
        {
          "indexed": true,
          "internalType": "uint256",
          "name": "tokenId",
          "type": "uint256"
        }
      ],
      "name": "Approval",
      "type": "event"
    },
    {
      "anonymous": false,
      "inputs": [
        {
          "indexed": true,
          "internalType": "address",
          "name": "owner",
          "type": "address"
        },
        {
          "indexed": true,
          "internalType": "address",
          "name": "operator",
          "type": "address"
        },
        {
          "indexed": false,
          "internalType": "bool",
          "name": "approved",
          "type": "bool"
        }
      ],
      "name": "ApprovalForAll",
      "type": "event"
    },
    {
      "anonymous": false,
      "inputs": [
        {
          "indexed": true,
          "internalType": "address",
          "name": "previousOwner",
          "type": "address"
        },
        {
          "indexed": true,
          "internalType": "address",
          "name": "newOwner",
          "type": "address"
        }
      ],
      "name": "OwnershipTransferred",
      "type": "event"
    },
    {
      "anonymous": false,
      "inputs": [
        {
          "indexed": true,
          "internalType": "address",
          "name": "from",
          "type": "address"
        },
        {
          "indexed": true,
          "internalType": "address",
          "name": "to",
          "type": "address"
        },
        {
          "indexed": true,
          "internalType": "uint256",
          "name": "tokenId",
          "type": "uint256"
        }
      ],
      "name": "Transfer",
      "type": "event"
    },
    {
      "anonymous": false,
      "inputs": [
        {
          "indexed": false,
          "internalType": "address",
          "name": "customer",
          "type": "address"
        },
        {
          "indexed": false,
          "internalType": "uint256",
          "name": "tokenId",
          "type": "uint256"
        },
        {
          "indexed": false,
          "internalType": "string",
          "name": "tokenURI",
          "type": "string"
        },
        {
          "indexed": false,
          "internalType": "uint256",
          "name": "blockTimeStamp",
          "type": "uint256"
        }
      ],
      "name": "awardCouponEvent",
      "type": "event"
    },
    {
      "anonymous": false,
      "inputs": [
        {
          "indexed": false,
          "internalType": "address",
          "name": "customer",
          "type": "address"
        },
        {
          "indexed": false,
          "internalType": "uint256",
          "name": "tokenId",
          "type": "uint256"
        },
        {
          "indexed": false,
          "internalType": "string",
          "name": "tokenURI",
          "type": "string"
        },
        {
          "indexed": false,
          "internalType": "uint256",
          "name": "blockTimeStamp",
          "type": "uint256"
        }
      ],
      "name": "redeemCouponEvent",
      "type": "event"
    },
    {
      "inputs": [
        {
          "internalType": "address",
          "name": "to",
          "type": "address"
        },
        {
          "internalType": "uint256",
          "name": "tokenId",
          "type": "uint256"
        }
      ],
      "name": "approve",
      "outputs": [],
      "stateMutability": "nonpayable",
      "type": "function"
    },
    {
      "inputs": [
        {
          "internalType": "address",
          "name": "owner",
          "type": "address"
        }
      ],
      "name": "balanceOf",
      "outputs": [
        {
          "internalType": "uint256",
          "name": "",
          "type": "uint256"
        }
      ],
      "stateMutability": "view",
      "type": "function",
      "constant": true
    },
    {
      "inputs": [],
      "name": "baseURI",
      "outputs": [
        {
          "internalType": "string",
          "name": "",
          "type": "string"
        }
      ],
      "stateMutability": "view",
      "type": "function",
      "constant": true
    },
    {
      "inputs": [
        {
          "internalType": "uint256",
          "name": "",
          "type": "uint256"
        }
      ],
      "name": "coupons",
      "outputs": [
        {
          "internalType": "uint256",
          "name": "tokenId",
          "type": "uint256"
        },
        {
          "internalType": "string",
          "name": "description",
          "type": "string"
        },
        {
          "internalType": "string",
          "name": "tokenURI",
          "type": "string"
        },
        {
          "internalType": "string",
          "name": "expiryDate",
          "type": "string"
        },
        {
          "internalType": "uint256",
          "name": "value",
          "type": "uint256"
        },
        {
          "internalType": "bool",
          "name": "redeemed",
          "type": "bool"
        },
        {
          "internalType": "uint256",
          "name": "redeemedTimeStamp",
          "type": "uint256"
        }
      ],
      "stateMutability": "view",
      "type": "function",
      "constant": true
    },
    {
      "inputs": [
        {
          "internalType": "uint256",
          "name": "tokenId",
          "type": "uint256"
        }
      ],
      "name": "getApproved",
      "outputs": [
        {
          "internalType": "address",
          "name": "",
          "type": "address"
        }
      ],
      "stateMutability": "view",
      "type": "function",
      "constant": true
    },
    {
      "inputs": [
        {
          "internalType": "address",
          "name": "owner",
          "type": "address"
        },
        {
          "internalType": "address",
          "name": "operator",
          "type": "address"
        }
      ],
      "name": "isApprovedForAll",
      "outputs": [
        {
          "internalType": "bool",
          "name": "",
          "type": "bool"
        }
      ],
      "stateMutability": "view",
      "type": "function",
      "constant": true
    },
    {
      "inputs": [],
      "name": "name",
      "outputs": [
        {
          "internalType": "string",
          "name": "",
          "type": "string"
        }
      ],
      "stateMutability": "view",
      "type": "function",
      "constant": true
    },
    {
      "inputs": [],
      "name": "owner",
      "outputs": [
        {
          "internalType": "address",
          "name": "",
          "type": "address"
        }
      ],
      "stateMutability": "view",
      "type": "function",
      "constant": true
    },
    {
      "inputs": [
        {
          "internalType": "uint256",
          "name": "tokenId",
          "type": "uint256"
        }
      ],
      "name": "ownerOf",
      "outputs": [
        {
          "internalType": "address",
          "name": "",
          "type": "address"
        }
      ],
      "stateMutability": "view",
      "type": "function",
      "constant": true
    },
    {
      "inputs": [],
      "name": "renounceOwnership",
      "outputs": [],
      "stateMutability": "nonpayable",
      "type": "function"
    },
    {
      "inputs": [
        {
          "internalType": "address",
          "name": "from",
          "type": "address"
        },
        {
          "internalType": "address",
          "name": "to",
          "type": "address"
        },
        {
          "internalType": "uint256",
          "name": "tokenId",
          "type": "uint256"
        }
      ],
      "name": "safeTransferFrom",
      "outputs": [],
      "stateMutability": "nonpayable",
      "type": "function"
    },
    {
      "inputs": [
        {
          "internalType": "address",
          "name": "from",
          "type": "address"
        },
        {
          "internalType": "address",
          "name": "to",
          "type": "address"
        },
        {
          "internalType": "uint256",
          "name": "tokenId",
          "type": "uint256"
        },
        {
          "internalType": "bytes",
          "name": "_data",
          "type": "bytes"
        }
      ],
      "name": "safeTransferFrom",
      "outputs": [],
      "stateMutability": "nonpayable",
      "type": "function"
    },
    {
      "inputs": [
        {
          "internalType": "address",
          "name": "operator",
          "type": "address"
        },
        {
          "internalType": "bool",
          "name": "approved",
          "type": "bool"
        }
      ],
      "name": "setApprovalForAll",
      "outputs": [],
      "stateMutability": "nonpayable",
      "type": "function"
    },
    {
      "inputs": [
        {
          "internalType": "bytes4",
          "name": "interfaceId",
          "type": "bytes4"
        }
      ],
      "name": "supportsInterface",
      "outputs": [
        {
          "internalType": "bool",
          "name": "",
          "type": "bool"
        }
      ],
      "stateMutability": "view",
      "type": "function",
      "constant": true
    },
    {
      "inputs": [],
      "name": "symbol",
      "outputs": [
        {
          "internalType": "string",
          "name": "",
          "type": "string"
        }
      ],
      "stateMutability": "view",
      "type": "function",
      "constant": true
    },
    {
      "inputs": [
        {
          "internalType": "uint256",
          "name": "index",
          "type": "uint256"
        }
      ],
      "name": "tokenByIndex",
      "outputs": [
        {
          "internalType": "uint256",
          "name": "",
          "type": "uint256"
        }
      ],
      "stateMutability": "view",
      "type": "function",
      "constant": true
    },
    {
      "inputs": [
        {
          "internalType": "address",
          "name": "owner",
          "type": "address"
        },
        {
          "internalType": "uint256",
          "name": "index",
          "type": "uint256"
        }
      ],
      "name": "tokenOfOwnerByIndex",
      "outputs": [
        {
          "internalType": "uint256",
          "name": "",
          "type": "uint256"
        }
      ],
      "stateMutability": "view",
      "type": "function",
      "constant": true
    },
    {
      "inputs": [
        {
          "internalType": "uint256",
          "name": "tokenId",
          "type": "uint256"
        }
      ],
      "name": "tokenURI",
      "outputs": [
        {
          "internalType": "string",
          "name": "",
          "type": "string"
        }
      ],
      "stateMutability": "view",
      "type": "function",
      "constant": true
    },
    {
      "inputs": [],
      "name": "totalSupply",
      "outputs": [
        {
          "internalType": "uint256",
          "name": "",
          "type": "uint256"
        }
      ],
      "stateMutability": "view",
      "type": "function",
      "constant": true
    },
    {
      "inputs": [
        {
          "internalType": "address",
          "name": "from",
          "type": "address"
        },
        {
          "internalType": "address",
          "name": "to",
          "type": "address"
        },
        {
          "internalType": "uint256",
          "name": "tokenId",
          "type": "uint256"
        }
      ],
      "name": "transferFrom",
      "outputs": [],
      "stateMutability": "nonpayable",
      "type": "function"
    },
    {
      "inputs": [
        {
          "internalType": "address",
          "name": "newOwner",
          "type": "address"
        }
      ],
      "name": "transferOwnership",
      "outputs": [],
      "stateMutability": "nonpayable",
      "type": "function"
    },
    {
      "inputs": [
        {
          "internalType": "address",
          "name": "customer",
          "type": "address"
        },
        {
          "internalType": "string",
          "name": "tokenURI",
          "type": "string"
        }
      ],
      "name": "awardCoupon",
      "outputs": [
        {
          "internalType": "uint256",
          "name": "",
          "type": "uint256"
        }
      ],
      "stateMutability": "nonpayable",
      "type": "function"
    },
    {
      "inputs": [
        {
          "internalType": "uint256",
          "name": "tokenId",
          "type": "uint256"
        }
      ],
      "name": "redeem",
      "outputs": [],
      "stateMutability": "nonpayable",
      "type": "function"
    },
    {
      "inputs": [],
      "name": "getMyCoupons",
      "outputs": [
        {
          "components": [
            {
              "internalType": "uint256",
              "name": "tokenId",
              "type": "uint256"
            },
            {
              "internalType": "string",
              "name": "description",
              "type": "string"
            },
            {
              "internalType": "string",
              "name": "tokenURI",
              "type": "string"
            },
            {
              "internalType": "string",
              "name": "expiryDate",
              "type": "string"
            },
            {
              "internalType": "uint256",
              "name": "value",
              "type": "uint256"
            },
            {
              "internalType": "bool",
              "name": "redeemed",
              "type": "bool"
            },
            {
              "internalType": "uint256",
              "name": "redeemedTimeStamp",
              "type": "uint256"
            }
          ],
          "internalType": "struct Coupon.CouponItem[]",
          "name": "",
          "type": "tuple[]"
        }
      ],
      "stateMutability": "view",
      "type": "function",
      "constant": true
    }
  ],
  "bytecode": "0x60806040523480156200001157600080fd5b506040518060400160405280600c81526020017f43727970746f436f75706f6e00000000000000000000000000000000000000008152506040518060400160405280600c81526020017f43727970746f436f75706f6e0000000000000000000000000000000000000000815250600062000090620001c860201b60201c565b9050806000806101000a81548173ffffffffffffffffffffffffffffffffffffffff021916908373ffffffffffffffffffffffffffffffffffffffff1602179055508073ffffffffffffffffffffffffffffffffffffffff16600073ffffffffffffffffffffffffffffffffffffffff167f8be0079c531659141344cd1fd0a4f28419497f9722a3daafe3b4186f6b6457e060405160405180910390a350620001466301ffc9a760e01b620001d060201b60201c565b81600790805190602001906200015e929190620002a8565b50806008908051906020019062000177929190620002a8565b50620001906380ac58cd60e01b620001d060201b60201c565b620001a8635b5e139f60e01b620001d060201b60201c565b620001c063780e9d6360e01b620001d060201b60201c565b5050620003c3565b600033905090565b63ffffffff60e01b817bffffffffffffffffffffffffffffffffffffffffffffffffffffffff191614156200023c576040517f08c379a0000000000000000000000000000000000000000000000000000000008152600401620002339062000390565b60405180910390fd5b6001806000837bffffffffffffffffffffffffffffffffffffffffffffffffffffffff19167bffffffffffffffffffffffffffffffffffffffffffffffffffffffff1916815260200190815260200160002060006101000a81548160ff02191690831515021790555050565b828054600181600116156101000203166002900490600052602060002090601f016020900481019282601f10620002eb57805160ff19168380011785556200031c565b828001600101855582156200031c579182015b828111156200031b578251825591602001919060010190620002fe565b5b5090506200032b91906200032f565b5090565b5b808211156200034a57600081600090555060010162000330565b5090565b60006200035d601c83620003b2565b91507f4552433136353a20696e76616c696420696e74657266616365206964000000006000830152602082019050919050565b60006020820190508181036000830152620003ab816200034e565b9050919050565b600082825260208201905092915050565b61413480620003d36000396000f3fe608060405234801561001057600080fd5b50600436106101585760003560e01c806370a08231116100c3578063b88d4fde1161007c578063b88d4fde146103e1578063c87b56dd146103fd578063cd0b06291461042d578063db006a751461045d578063e985e9c514610479578063f2fde38b146104a957610158565b806370a0823114610331578063715018a6146103615780637ed80ccf1461036b5780638da5cb5b1461038957806395d89b41146103a7578063a22cb465146103c557610158565b80632f745c59116101155780632f745c591461023157806330828e921461026157806342842e0e146102975780634f6ccce7146102b35780636352211e146102e35780636c0360eb1461031357610158565b806301ffc9a71461015d57806306fdde031461018d578063081812fc146101ab578063095ea7b3146101db57806318160ddd146101f757806323b872dd14610215575b600080fd5b61017760048036038101906101729190612e91565b6104c5565b6040516101849190613a7f565b60405180910390f35b61019561052d565b6040516101a29190613a9a565b60405180910390f35b6101c560048036038101906101c09190612ee3565b6105cf565b6040516101d291906139aa565b60405180910390f35b6101f560048036038101906101f09190612e55565b610654565b005b6101ff61076c565b60405161020c9190613d7c565b60405180910390f35b61022f600480360381019061022a9190612cfb565b61077d565b005b61024b60048036038101906102469190612e55565b6107dd565b6040516102589190613d7c565b60405180910390f35b61027b60048036038101906102769190612ee3565b610838565b60405161028e9796959493929190613d97565b60405180910390f35b6102b160048036038101906102ac9190612cfb565b610a4f565b005b6102cd60048036038101906102c89190612ee3565b610a6f565b6040516102da9190613d7c565b60405180910390f35b6102fd60048036038101906102f89190612ee3565b610a92565b60405161030a91906139aa565b60405180910390f35b61031b610ac9565b6040516103289190613a9a565b60405180910390f35b61034b60048036038101906103469190612c96565b610b6b565b6040516103589190613d7c565b60405180910390f35b610369610c2a565b005b610373610d64565b6040516103809190613a5d565b60405180910390f35b6103916110a4565b60405161039e91906139aa565b60405180910390f35b6103af6110cd565b6040516103bc9190613a9a565b60405180910390f35b6103df60048036038101906103da9190612dc5565b61116f565b005b6103fb60048036038101906103f69190612d4a565b6112f0565b005b61041760048036038101906104129190612ee3565b611352565b6040516104249190613a9a565b60405180910390f35b61044760048036038101906104429190612e01565b6114d5565b6040516104549190613d7c565b60405180910390f35b61047760048036038101906104729190612ee3565b61171f565b005b610493600480360381019061048e9190612cbf565b611891565b6040516104a09190613a7f565b60405180910390f35b6104c360048036038101906104be9190612c96565b611925565b005b600060016000837bffffffffffffffffffffffffffffffffffffffffffffffffffffffff19167bffffffffffffffffffffffffffffffffffffffffffffffffffffffff1916815260200190815260200160002060009054906101000a900460ff169050919050565b606060078054600181600116156101000203166002900480601f0160208091040260200160405190810160405280929190818152602001828054600181600116156101000203166002900480156105c55780601f1061059a576101008083540402835291602001916105c5565b820191906000526020600020905b8154815290600101906020018083116105a857829003601f168201915b5050505050905090565b60006105da82611ace565b610619576040517f08c379a000000000000000000000000000000000000000000000000000000000815260040161061090613c5c565b60405180910390fd5b6005600083815260200190815260200160002060009054906101000a900473ffffffffffffffffffffffffffffffffffffffff169050919050565b600061065f82610a92565b90508073ffffffffffffffffffffffffffffffffffffffff168373ffffffffffffffffffffffffffffffffffffffff1614156106d0576040517f08c379a00000000000000000000000000000000000000000000000000000000081526004016106c790613cfc565b60405180910390fd5b8073ffffffffffffffffffffffffffffffffffffffff166106ef611aeb565b73ffffffffffffffffffffffffffffffffffffffff16148061071e575061071d81610718611aeb565b611891565b5b61075d576040517f08c379a000000000000000000000000000000000000000000000000000000000815260040161075490613bdc565b60405180910390fd5b6107678383611af3565b505050565b60006107786003611bac565b905090565b61078e610788611aeb565b82611bc1565b6107cd576040517f08c379a00000000000000000000000000000000000000000000000000000000081526004016107c490613d3c565b60405180910390fd5b6107d8838383611c9f565b505050565b600061083082600260008673ffffffffffffffffffffffffffffffffffffffff1673ffffffffffffffffffffffffffffffffffffffff168152602001908152602001600020611eb690919063ffffffff16565b905092915050565b600c602052806000526040600020600091509050806000015490806001018054600181600116156101000203166002900480601f0160208091040260200160405190810160405280929190818152602001828054600181600116156101000203166002900480156108ea5780601f106108bf576101008083540402835291602001916108ea565b820191906000526020600020905b8154815290600101906020018083116108cd57829003601f168201915b505050505090806002018054600181600116156101000203166002900480601f0160208091040260200160405190810160405280929190818152602001828054600181600116156101000203166002900480156109885780601f1061095d57610100808354040283529160200191610988565b820191906000526020600020905b81548152906001019060200180831161096b57829003601f168201915b505050505090806003018054600181600116156101000203166002900480601f016020809104026020016040519081016040528092919081815260200182805460018160011615610100020316600290048015610a265780601f106109fb57610100808354040283529160200191610a26565b820191906000526020600020905b815481529060010190602001808311610a0957829003601f168201915b5050505050908060040154908060050160009054906101000a900460ff16908060060154905087565b610a6a838383604051806020016040528060008152506112f0565b505050565b600080610a86836003611ed090919063ffffffff16565b50905080915050919050565b6000610ac2826040518060600160405280602981526020016140d6602991396003611efc9092919063ffffffff16565b9050919050565b6060600a8054600181600116156101000203166002900480601f016020809104026020016040519081016040528092919081815260200182805460018160011615610100020316600290048015610b615780601f10610b3657610100808354040283529160200191610b61565b820191906000526020600020905b815481529060010190602001808311610b4457829003601f168201915b5050505050905090565b60008073ffffffffffffffffffffffffffffffffffffffff168273ffffffffffffffffffffffffffffffffffffffff161415610bdc576040517f08c379a0000000000000000000000000000000000000000000000000000000008152600401610bd390613bfc565b60405180910390fd5b610c23600260008473ffffffffffffffffffffffffffffffffffffffff1673ffffffffffffffffffffffffffffffffffffffff168152602001908152602001600020611f1b565b9050919050565b610c32611aeb565b73ffffffffffffffffffffffffffffffffffffffff16610c506110a4565b73ffffffffffffffffffffffffffffffffffffffff1614610ca6576040517f08c379a0000000000000000000000000000000000000000000000000000000008152600401610c9d90613c9c565b60405180910390fd5b600073ffffffffffffffffffffffffffffffffffffffff1660008054906101000a900473ffffffffffffffffffffffffffffffffffffffff1673ffffffffffffffffffffffffffffffffffffffff167f8be0079c531659141344cd1fd0a4f28419497f9722a3daafe3b4186f6b6457e060405160405180910390a360008060006101000a81548173ffffffffffffffffffffffffffffffffffffffff021916908373ffffffffffffffffffffffffffffffffffffffff160217905550565b606080610d7033610b6b565b67ffffffffffffffff81118015610d8657600080fd5b50604051908082528060200260200182016040528015610dc057816020015b610dad612aa9565b815260200190600190039081610da55790505b509050600080610dcf33610b6b565b111561109c576000805b610de161076c565b81101561109957610df181610a6f565b92503373ffffffffffffffffffffffffffffffffffffffff16610e1384610a92565b73ffffffffffffffffffffffffffffffffffffffff16141561108c57600c60008481526020019081526020016000206040518060e001604052908160008201548152602001600182018054600181600116156101000203166002900480601f016020809104026020016040519081016040528092919081815260200182805460018160011615610100020316600290048015610ef05780601f10610ec557610100808354040283529160200191610ef0565b820191906000526020600020905b815481529060010190602001808311610ed357829003601f168201915b50505050508152602001600282018054600181600116156101000203166002900480601f016020809104026020016040519081016040528092919081815260200182805460018160011615610100020316600290048015610f925780601f10610f6757610100808354040283529160200191610f92565b820191906000526020600020905b815481529060010190602001808311610f7557829003601f168201915b50505050508152602001600382018054600181600116156101000203166002900480601f0160208091040260200160405190810160405280929190818152602001828054600181600116156101000203166002900480156110345780601f1061100957610100808354040283529160200191611034565b820191906000526020600020905b81548152906001019060200180831161101757829003601f168201915b50505050508152602001600482015481526020016005820160009054906101000a900460ff1615151515815260200160068201548152505084838151811061107857fe5b602002602001018190525081806001019250505b8080600101915050610dd9565b50505b819250505090565b60008060009054906101000a900473ffffffffffffffffffffffffffffffffffffffff16905090565b606060088054600181600116156101000203166002900480601f0160208091040260200160405190810160405280929190818152602001828054600181600116156101000203166002900480156111655780601f1061113a57610100808354040283529160200191611165565b820191906000526020600020905b81548152906001019060200180831161114857829003601f168201915b5050505050905090565b611177611aeb565b73ffffffffffffffffffffffffffffffffffffffff168273ffffffffffffffffffffffffffffffffffffffff1614156111e5576040517f08c379a00000000000000000000000000000000000000000000000000000000081526004016111dc90613b5c565b60405180910390fd5b80600660006111f2611aeb565b73ffffffffffffffffffffffffffffffffffffffff1673ffffffffffffffffffffffffffffffffffffffff16815260200190815260200160002060008473ffffffffffffffffffffffffffffffffffffffff1673ffffffffffffffffffffffffffffffffffffffff16815260200190815260200160002060006101000a81548160ff0219169083151502179055508173ffffffffffffffffffffffffffffffffffffffff1661129f611aeb565b73ffffffffffffffffffffffffffffffffffffffff167f17307eab39ab6107e8899845ad3d59bd9653f200f220920489ca2b5937696c31836040516112e49190613a7f565b60405180910390a35050565b6113016112fb611aeb565b83611bc1565b611340576040517f08c379a000000000000000000000000000000000000000000000000000000000815260040161133790613d3c565b60405180910390fd5b61134c84848484611f30565b50505050565b606061135d82611ace565b61139c576040517f08c379a000000000000000000000000000000000000000000000000000000000815260040161139390613cdc565b60405180910390fd5b6060600960008481526020019081526020016000208054600181600116156101000203166002900480601f0160208091040260200160405190810160405280929190818152602001828054600181600116156101000203166002900480156114455780601f1061141a57610100808354040283529160200191611445565b820191906000526020600020905b81548152906001019060200180831161142857829003601f168201915b505050505090506060611456610ac9565b905060008151141561146c5781925050506114d0565b6000825111156114a1578082604051602001611489929190613986565b604051602081830303815290604052925050506114d0565b806114ab85611f8c565b6040516020016114bc929190613986565b604051602081830303815290604052925050505b919050565b60006114df611aeb565b73ffffffffffffffffffffffffffffffffffffffff166114fd6110a4565b73ffffffffffffffffffffffffffffffffffffffff1614611553576040517f08c379a000000000000000000000000000000000000000000000000000000000815260040161154a90613c9c565b60405180910390fd5b61155d600b6120d3565b6000611569600b6120e9565b905061157584826120f7565b61157f8184612285565b611587612aa9565b6040518060e001604052808381526020016040518060400160405280600b81526020017f4361736820436f75706f6e00000000000000000000000000000000000000000081525081526020018581526020016040518060400160405280600a81526020017f323035302d31322d3331000000000000000000000000000000000000000000008152508152602001603281526020016000151581526020016000815250905080600c6000848152602001908152602001600020600082015181600001556020820151816001019080519060200190611665929190612ae8565b506040820151816002019080519060200190611682929190612ae8565b50606082015181600301908051906020019061169f929190612ae8565b506080820151816004015560a08201518160050160006101000a81548160ff02191690831515021790555060c082015181600601559050507f985b52fba25773903842bc3963db2e5f8c6fba185224dada7910c17802ec8a9e3383864260405161170c9493929190613a11565b60405180910390a1819250505092915050565b3373ffffffffffffffffffffffffffffffffffffffff1661173f82610a92565b73ffffffffffffffffffffffffffffffffffffffff1614611795576040517f08c379a000000000000000000000000000000000000000000000000000000000815260040161178c90613b7c565b60405180910390fd5b60001515600c600083815260200190815260200160002060050160009054906101000a900460ff161515146117ff576040517f08c379a00000000000000000000000000000000000000000000000000000000081526004016117f690613d1c565b60405180910390fd5b6001600c600083815260200190815260200160002060050160006101000a81548160ff02191690831515021790555042600c6000838152602001908152602001600020600601819055507f8e3a1a89eb3369215a669ad13e615e4ad362178313dc312fc4f7613c1dc24a74338261187584611352565b426040516118869493929190613a11565b60405180910390a150565b6000600660008473ffffffffffffffffffffffffffffffffffffffff1673ffffffffffffffffffffffffffffffffffffffff16815260200190815260200160002060008373ffffffffffffffffffffffffffffffffffffffff1673ffffffffffffffffffffffffffffffffffffffff16815260200190815260200160002060009054906101000a900460ff16905092915050565b61192d611aeb565b73ffffffffffffffffffffffffffffffffffffffff1661194b6110a4565b73ffffffffffffffffffffffffffffffffffffffff16146119a1576040517f08c379a000000000000000000000000000000000000000000000000000000000815260040161199890613c9c565b60405180910390fd5b600073ffffffffffffffffffffffffffffffffffffffff168173ffffffffffffffffffffffffffffffffffffffff161415611a11576040517f08c379a0000000000000000000000000000000000000000000000000000000008152600401611a0890613afc565b60405180910390fd5b8073ffffffffffffffffffffffffffffffffffffffff1660008054906101000a900473ffffffffffffffffffffffffffffffffffffffff1673ffffffffffffffffffffffffffffffffffffffff167f8be0079c531659141344cd1fd0a4f28419497f9722a3daafe3b4186f6b6457e060405160405180910390a3806000806101000a81548173ffffffffffffffffffffffffffffffffffffffff021916908373ffffffffffffffffffffffffffffffffffffffff16021790555050565b6000611ae48260036122f990919063ffffffff16565b9050919050565b600033905090565b816005600083815260200190815260200160002060006101000a81548173ffffffffffffffffffffffffffffffffffffffff021916908373ffffffffffffffffffffffffffffffffffffffff160217905550808273ffffffffffffffffffffffffffffffffffffffff16611b6683610a92565b73ffffffffffffffffffffffffffffffffffffffff167f8c5be1e5ebec7d5bd14f71427d1e84f3dd0314c0f7b2291e5b200ac8c7c3b92560405160405180910390a45050565b6000611bba82600001612313565b9050919050565b6000611bcc82611ace565b611c0b576040517f08c379a0000000000000000000000000000000000000000000000000000000008152600401611c0290613bbc565b60405180910390fd5b6000611c1683610a92565b90508073ffffffffffffffffffffffffffffffffffffffff168473ffffffffffffffffffffffffffffffffffffffff161480611c8557508373ffffffffffffffffffffffffffffffffffffffff16611c6d846105cf565b73ffffffffffffffffffffffffffffffffffffffff16145b80611c965750611c958185611891565b5b91505092915050565b8273ffffffffffffffffffffffffffffffffffffffff16611cbf82610a92565b73ffffffffffffffffffffffffffffffffffffffff1614611d15576040517f08c379a0000000000000000000000000000000000000000000000000000000008152600401611d0c90613cbc565b60405180910390fd5b600073ffffffffffffffffffffffffffffffffffffffff168273ffffffffffffffffffffffffffffffffffffffff161415611d85576040517f08c379a0000000000000000000000000000000000000000000000000000000008152600401611d7c90613b3c565b60405180910390fd5b611d90838383612324565b611d9b600082611af3565b611dec81600260008673ffffffffffffffffffffffffffffffffffffffff1673ffffffffffffffffffffffffffffffffffffffff16815260200190815260200160002061232990919063ffffffff16565b50611e3e81600260008573ffffffffffffffffffffffffffffffffffffffff1673ffffffffffffffffffffffffffffffffffffffff16815260200190815260200160002061234390919063ffffffff16565b50611e558183600361235d9092919063ffffffff16565b50808273ffffffffffffffffffffffffffffffffffffffff168473ffffffffffffffffffffffffffffffffffffffff167fddf252ad1be2c89b69c2b068fc378daa952ba7f163c4a11628f55a4df523b3ef60405160405180910390a4505050565b6000611ec58360000183612392565b60001c905092915050565b600080600080611ee386600001866123ff565b915091508160001c8160001c9350935050509250929050565b6000611f0f846000018460001b84612482565b60001c90509392505050565b6000611f2982600001612513565b9050919050565b611f3b848484611c9f565b611f4784848484612524565b611f86576040517f08c379a0000000000000000000000000000000000000000000000000000000008152600401611f7d90613adc565b60405180910390fd5b50505050565b60606000821415611fd4576040518060400160405280600181526020017f300000000000000000000000000000000000000000000000000000000000000081525090506120ce565b600082905060005b60008214611ffe578080600101915050600a8281611ff657fe5b049150611fdc565b60608167ffffffffffffffff8111801561201757600080fd5b506040519080825280601f01601f19166020018201604052801561204a5781602001600182028036833780820191505090505b50905060006001830390508593505b600084146120c657600a848161206b57fe5b0660300160f81b8282806001900393508151811061208557fe5b60200101907effffffffffffffffffffffffffffffffffffffffffffffffffffffffffffff1916908160001a905350600a84816120be57fe5b049350612059565b819450505050505b919050565b6001816000016000828254019250508190555050565b600081600001549050919050565b600073ffffffffffffffffffffffffffffffffffffffff168273ffffffffffffffffffffffffffffffffffffffff161415612167576040517f08c379a000000000000000000000000000000000000000000000000000000000815260040161215e90613c3c565b60405180910390fd5b61217081611ace565b156121b0576040517f08c379a00000000000000000000000000000000000000000000000000000000081526004016121a790613b1c565b60405180910390fd5b6121bc60008383612324565b61220d81600260008573ffffffffffffffffffffffffffffffffffffffff1673ffffffffffffffffffffffffffffffffffffffff16815260200190815260200160002061234390919063ffffffff16565b506122248183600361235d9092919063ffffffff16565b50808273ffffffffffffffffffffffffffffffffffffffff16600073ffffffffffffffffffffffffffffffffffffffff167fddf252ad1be2c89b69c2b068fc378daa952ba7f163c4a11628f55a4df523b3ef60405160405180910390a45050565b61228e82611ace565b6122cd576040517f08c379a00000000000000000000000000000000000000000000000000000000081526004016122c490613c7c565b60405180910390fd5b806009600084815260200190815260200160002090805190602001906122f4929190612ae8565b505050565b600061230b836000018360001b612688565b905092915050565b600081600001805490509050919050565b505050565b600061233b836000018360001b6126ab565b905092915050565b6000612355836000018360001b612793565b905092915050565b6000612389846000018460001b8473ffffffffffffffffffffffffffffffffffffffff1660001b612803565b90509392505050565b6000818360000180549050116123dd576040517f08c379a00000000000000000000000000000000000000000000000000000000081526004016123d490613abc565b60405180910390fd5b8260000182815481106123ec57fe5b9060005260206000200154905092915050565b6000808284600001805490501161244b576040517f08c379a000000000000000000000000000000000000000000000000000000000815260040161244290613c1c565b60405180910390fd5b600084600001848154811061245c57fe5b906000526020600020906002020190508060000154816001015492509250509250929050565b600080846001016000858152602001908152602001600020549050600081141583906124e4576040517f08c379a00000000000000000000000000000000000000000000000000000000081526004016124db9190613a9a565b60405180910390fd5b508460000160018203815481106124f757fe5b9060005260206000209060020201600101549150509392505050565b600081600001805490509050919050565b60006125458473ffffffffffffffffffffffffffffffffffffffff166128df565b6125525760019050612680565b606061261963150b7a0260e01b612567611aeb565b88878760405160240161257d94939291906139c5565b604051602081830303815290604052907bffffffffffffffffffffffffffffffffffffffffffffffffffffffff19166020820180517bffffffffffffffffffffffffffffffffffffffffffffffffffffffff83818316178352505050506040518060600160405280603281526020016140a4603291398773ffffffffffffffffffffffffffffffffffffffff166128f29092919063ffffffff16565b90506000818060200190518101906126319190612eba565b905063150b7a0260e01b7bffffffffffffffffffffffffffffffffffffffffffffffffffffffff1916817bffffffffffffffffffffffffffffffffffffffffffffffffffffffff191614925050505b949350505050565b600080836001016000848152602001908152602001600020541415905092915050565b6000808360010160008481526020019081526020016000205490506000811461278757600060018203905060006001866000018054905003905060008660000182815481106126f657fe5b906000526020600020015490508087600001848154811061271357fe5b906000526020600020018190555060018301876001016000838152602001908152602001600020819055508660000180548061274b57fe5b6001900381819060005260206000200160009055905586600101600087815260200190815260200160002060009055600194505050505061278d565b60009150505b92915050565b600061279f838361290a565b6127f85782600001829080600181540180825580915050600190039060005260206000200160009091909190915055826000018054905083600101600084815260200190815260200160002081905550600190506127fd565b600090505b92915050565b60008084600101600085815260200190815260200160002054905060008114156128aa578460000160405180604001604052808681526020018581525090806001815401808255809150506001900390600052602060002090600202016000909190919091506000820151816000015560208201518160010155505084600001805490508560010160008681526020019081526020016000208190555060019150506128d8565b828560000160018303815481106128bd57fe5b90600052602060002090600202016001018190555060009150505b9392505050565b600080823b905060008111915050919050565b6060612901848460008561292d565b90509392505050565b600080836001016000848152602001908152602001600020541415905092915050565b606082471015612972576040517f08c379a000000000000000000000000000000000000000000000000000000000815260040161296990613b9c565b60405180910390fd5b61297b856128df565b6129ba576040517f08c379a00000000000000000000000000000000000000000000000000000000081526004016129b190613d5c565b60405180910390fd5b600060608673ffffffffffffffffffffffffffffffffffffffff1685876040516129e4919061396f565b60006040518083038185875af1925050503d8060008114612a21576040519150601f19603f3d011682016040523d82523d6000602084013e612a26565b606091505b5091509150612a36828286612a42565b92505050949350505050565b60608315612a5257829050612aa2565b600083511115612a655782518084602001fd5b816040517f08c379a0000000000000000000000000000000000000000000000000000000008152600401612a999190613a9a565b60405180910390fd5b9392505050565b6040518060e001604052806000815260200160608152602001606081526020016060815260200160008152602001600015158152602001600081525090565b828054600181600116156101000203166002900490600052602060002090601f016020900481019282601f10612b2957805160ff1916838001178555612b57565b82800160010185558215612b57579182015b82811115612b56578251825591602001919060010190612b3b565b5b509050612b649190612b68565b5090565b5b80821115612b81576000816000905550600101612b69565b5090565b600081359050612b9481614047565b92915050565b600081359050612ba98161405e565b92915050565b600081359050612bbe81614075565b92915050565b600081519050612bd381614075565b92915050565b600082601f830112612bea57600080fd5b8135612bfd612bf882613e48565b613e1b565b91508082526020830160208301858383011115612c1957600080fd5b612c24838284613ff4565b50505092915050565b600082601f830112612c3e57600080fd5b8135612c51612c4c82613e74565b613e1b565b91508082526020830160208301858383011115612c6d57600080fd5b612c78838284613ff4565b50505092915050565b600081359050612c908161408c565b92915050565b600060208284031215612ca857600080fd5b6000612cb684828501612b85565b91505092915050565b60008060408385031215612cd257600080fd5b6000612ce085828601612b85565b9250506020612cf185828601612b85565b9150509250929050565b600080600060608486031215612d1057600080fd5b6000612d1e86828701612b85565b9350506020612d2f86828701612b85565b9250506040612d4086828701612c81565b9150509250925092565b60008060008060808587031215612d6057600080fd5b6000612d6e87828801612b85565b9450506020612d7f87828801612b85565b9350506040612d9087828801612c81565b925050606085013567ffffffffffffffff811115612dad57600080fd5b612db987828801612bd9565b91505092959194509250565b60008060408385031215612dd857600080fd5b6000612de685828601612b85565b9250506020612df785828601612b9a565b9150509250929050565b60008060408385031215612e1457600080fd5b6000612e2285828601612b85565b925050602083013567ffffffffffffffff811115612e3f57600080fd5b612e4b85828601612c2d565b9150509250929050565b60008060408385031215612e6857600080fd5b6000612e7685828601612b85565b9250506020612e8785828601612c81565b9150509250929050565b600060208284031215612ea357600080fd5b6000612eb184828501612baf565b91505092915050565b600060208284031215612ecc57600080fd5b6000612eda84828501612bc4565b91505092915050565b600060208284031215612ef557600080fd5b6000612f0384828501612c81565b91505092915050565b6000612f1883836138a7565b905092915050565b612f2981613fbe565b82525050565b612f3881613f4a565b82525050565b612f4781613f38565b82525050565b6000612f5882613eb0565b612f628185613ede565b935083602082028501612f7485613ea0565b8060005b85811015612fb05784840389528151612f918582612f0c565b9450612f9c83613ed1565b925060208a01995050600181019050612f78565b50829750879550505050505092915050565b612fcb81613f5c565b82525050565b612fda81613f5c565b82525050565b6000612feb82613ebb565b612ff58185613eef565b9350613005818560208601614003565b61300e81614036565b840191505092915050565b600061302482613ebb565b61302e8185613f00565b935061303e818560208601614003565b80840191505092915050565b600061305582613ec6565b61305f8185613f0b565b935061306f818560208601614003565b61307881614036565b840191505092915050565b600061308e82613ec6565b6130988185613f1c565b93506130a8818560208601614003565b6130b181614036565b840191505092915050565b60006130c782613ec6565b6130d18185613f2d565b93506130e1818560208601614003565b80840191505092915050565b60006130fa602283613f1c565b91507f456e756d657261626c655365743a20696e646578206f7574206f6620626f756e60008301527f64730000000000000000000000000000000000000000000000000000000000006020830152604082019050919050565b6000613160603283613f1c565b91507f4552433732313a207472616e7366657220746f206e6f6e20455243373231526560008301527f63656976657220696d706c656d656e74657200000000000000000000000000006020830152604082019050919050565b60006131c6602683613f1c565b91507f4f776e61626c653a206e6577206f776e657220697320746865207a65726f206160008301527f64647265737300000000000000000000000000000000000000000000000000006020830152604082019050919050565b600061322c601c83613f1c565b91507f4552433732313a20746f6b656e20616c7265616479206d696e746564000000006000830152602082019050919050565b600061326c602483613f1c565b91507f4552433732313a207472616e7366657220746f20746865207a65726f2061646460008301527f72657373000000000000000000000000000000000000000000000000000000006020830152604082019050919050565b60006132d2601983613f1c565b91507f4552433732313a20617070726f766520746f2063616c6c6572000000000000006000830152602082019050919050565b6000613312600983613f1c565b91507f4e6f74204f776e657200000000000000000000000000000000000000000000006000830152602082019050919050565b6000613352602683613f1c565b91507f416464726573733a20696e73756666696369656e742062616c616e636520666f60008301527f722063616c6c00000000000000000000000000000000000000000000000000006020830152604082019050919050565b60006133b8602c83613f1c565b91507f4552433732313a206f70657261746f7220717565727920666f72206e6f6e657860008301527f697374656e7420746f6b656e00000000000000000000000000000000000000006020830152604082019050919050565b600061341e603883613f1c565b91507f4552433732313a20617070726f76652063616c6c6572206973206e6f74206f7760008301527f6e6572206e6f7220617070726f76656420666f7220616c6c00000000000000006020830152604082019050919050565b6000613484602a83613f1c565b91507f4552433732313a2062616c616e636520717565727920666f7220746865207a6560008301527f726f2061646472657373000000000000000000000000000000000000000000006020830152604082019050919050565b60006134ea602283613f1c565b91507f456e756d657261626c654d61703a20696e646578206f7574206f6620626f756e60008301527f64730000000000000000000000000000000000000000000000000000000000006020830152604082019050919050565b6000613550602083613f1c565b91507f4552433732313a206d696e7420746f20746865207a65726f20616464726573736000830152602082019050919050565b6000613590602c83613f1c565b91507f4552433732313a20617070726f76656420717565727920666f72206e6f6e657860008301527f697374656e7420746f6b656e00000000000000000000000000000000000000006020830152604082019050919050565b60006135f6602c83613f1c565b91507f4552433732314d657461646174613a2055524920736574206f66206e6f6e657860008301527f697374656e7420746f6b656e00000000000000000000000000000000000000006020830152604082019050919050565b600061365c602083613f1c565b91507f4f776e61626c653a2063616c6c6572206973206e6f7420746865206f776e65726000830152602082019050919050565b600061369c602983613f1c565b91507f4552433732313a207472616e73666572206f6620746f6b656e2074686174206960008301527f73206e6f74206f776e00000000000000000000000000000000000000000000006020830152604082019050919050565b6000613702602f83613f1c565b91507f4552433732314d657461646174613a2055524920717565727920666f72206e6f60008301527f6e6578697374656e7420746f6b656e00000000000000000000000000000000006020830152604082019050919050565b6000613768602183613f1c565b91507f4552433732313a20617070726f76616c20746f2063757272656e74206f776e6560008301527f72000000000000000000000000000000000000000000000000000000000000006020830152604082019050919050565b60006137ce601083613f1c565b91507f416c72656164792052656465656d6564000000000000000000000000000000006000830152602082019050919050565b600061380e603183613f1c565b91507f4552433732313a207472616e736665722063616c6c6572206973206e6f74206f60008301527f776e6572206e6f7220617070726f7665640000000000000000000000000000006020830152604082019050919050565b6000613874601d83613f1c565b91507f416464726573733a2063616c6c20746f206e6f6e2d636f6e74726163740000006000830152602082019050919050565b600060e0830160008301516138bf6000860182613951565b50602083015184820360208601526138d7828261304a565b915050604083015184820360408601526138f1828261304a565b9150506060830151848203606086015261390b828261304a565b91505060808301516139206080860182613951565b5060a083015161393360a0860182612fc2565b5060c083015161394660c0860182613951565b508091505092915050565b61395a81613fb4565b82525050565b61396981613fb4565b82525050565b600061397b8284613019565b915081905092915050565b600061399282856130bc565b915061399e82846130bc565b91508190509392505050565b60006020820190506139bf6000830184612f3e565b92915050565b60006080820190506139da6000830187612f2f565b6139e76020830186612f3e565b6139f46040830185613960565b8181036060830152613a068184612fe0565b905095945050505050565b6000608082019050613a266000830187612f20565b613a336020830186613960565b8181036040830152613a458185613083565b9050613a546060830184613960565b95945050505050565b60006020820190508181036000830152613a778184612f4d565b905092915050565b6000602082019050613a946000830184612fd1565b92915050565b60006020820190508181036000830152613ab48184613083565b905092915050565b60006020820190508181036000830152613ad5816130ed565b9050919050565b60006020820190508181036000830152613af581613153565b9050919050565b60006020820190508181036000830152613b15816131b9565b9050919050565b60006020820190508181036000830152613b358161321f565b9050919050565b60006020820190508181036000830152613b558161325f565b9050919050565b60006020820190508181036000830152613b75816132c5565b9050919050565b60006020820190508181036000830152613b9581613305565b9050919050565b60006020820190508181036000830152613bb581613345565b9050919050565b60006020820190508181036000830152613bd5816133ab565b9050919050565b60006020820190508181036000830152613bf581613411565b9050919050565b60006020820190508181036000830152613c1581613477565b9050919050565b60006020820190508181036000830152613c35816134dd565b9050919050565b60006020820190508181036000830152613c5581613543565b9050919050565b60006020820190508181036000830152613c7581613583565b9050919050565b60006020820190508181036000830152613c95816135e9565b9050919050565b60006020820190508181036000830152613cb58161364f565b9050919050565b60006020820190508181036000830152613cd58161368f565b9050919050565b60006020820190508181036000830152613cf5816136f5565b9050919050565b60006020820190508181036000830152613d158161375b565b9050919050565b60006020820190508181036000830152613d35816137c1565b9050919050565b60006020820190508181036000830152613d5581613801565b9050919050565b60006020820190508181036000830152613d7581613867565b9050919050565b6000602082019050613d916000830184613960565b92915050565b600060e082019050613dac600083018a613960565b8181036020830152613dbe8189613083565b90508181036040830152613dd28188613083565b90508181036060830152613de68187613083565b9050613df56080830186613960565b613e0260a0830185612fd1565b613e0f60c0830184613960565b98975050505050505050565b6000604051905081810181811067ffffffffffffffff82111715613e3e57600080fd5b8060405250919050565b600067ffffffffffffffff821115613e5f57600080fd5b601f19601f8301169050602081019050919050565b600067ffffffffffffffff821115613e8b57600080fd5b601f19601f8301169050602081019050919050565b6000819050602082019050919050565b600081519050919050565b600081519050919050565b600081519050919050565b6000602082019050919050565b600082825260208201905092915050565b600082825260208201905092915050565b600081905092915050565b600082825260208201905092915050565b600082825260208201905092915050565b600081905092915050565b6000613f4382613f94565b9050919050565b6000613f5582613f94565b9050919050565b60008115159050919050565b60007fffffffff0000000000000000000000000000000000000000000000000000000082169050919050565b600073ffffffffffffffffffffffffffffffffffffffff82169050919050565b6000819050919050565b6000613fc982613fd0565b9050919050565b6000613fdb82613fe2565b9050919050565b6000613fed82613f94565b9050919050565b82818337600083830152505050565b60005b83811015614021578082015181840152602081019050614006565b83811115614030576000848401525b50505050565b6000601f19601f8301169050919050565b61405081613f38565b811461405b57600080fd5b50565b61406781613f5c565b811461407257600080fd5b50565b61407e81613f68565b811461408957600080fd5b50565b61409581613fb4565b81146140a057600080fd5b5056fe4552433732313a207472616e7366657220746f206e6f6e20455243373231526563656976657220696d706c656d656e7465724552433732313a206f776e657220717565727920666f72206e6f6e6578697374656e7420746f6b656ea264697066735822122069828627a77c6f9afffb2f02df884b53f82324d116853e722ef61fd1ebbf1ade64736f6c634300060c0033",
  "immutableReferences": {},
  "source": "// contracts/Coupon.sol\n// SPDX-License-Identifier: MIT\npragma solidity ^0.6.0;\npragma experimental ABIEncoderV2;\n\nimport \"@openzeppelin/contracts/token/ERC721/ERC721.sol\";\nimport \"@openzeppelin/contracts/utils/Counters.sol\";\n\n// Import Ownable from the OpenZeppelin Contracts library\nimport \"@openzeppelin/contracts/access/Ownable.sol\";\n\ncontract Coupon is Ownable, ERC721 {\n    using Counters for Counters.Counter;\n    Counters.Counter private _tokenIds;\n\n    struct CouponItem { \n        uint256 tokenId;\n        string description;\n        string tokenURI;\n        string expiryDate;\n        uint value;\n        bool redeemed;\n        uint256 redeemedTimeStamp;\n    }\n    \n    mapping (uint256 => CouponItem) public coupons;\n\n    event redeemCouponEvent(address customer, uint256 tokenId, string tokenURI, uint256 blockTimeStamp);\n    event awardCouponEvent(address customer, uint256 tokenId, string tokenURI, uint256 blockTimeStamp);\n\n    constructor() public ERC721(\"CryptoCoupon\", \"CryptoCoupon\") {}\n\n    function awardCoupon(address customer, string memory tokenURI) public onlyOwner returns (uint256) {\n        _tokenIds.increment();\n\n        uint256 newCouponId = _tokenIds.current();\n        _mint(customer, newCouponId);\n        _setTokenURI(newCouponId, tokenURI);\n\n        CouponItem memory newCoupon;\n        newCoupon = CouponItem(newCouponId,\"Cash Coupon\",tokenURI,\"2050-12-31\",50,false,0);\n        coupons[newCouponId] = newCoupon;\n        \n        emit awardCouponEvent(msg.sender, newCouponId, tokenURI, now);\n        \n        return newCouponId;\n    }\n\n    function redeem(uint256 tokenId) public { \n        require(ownerOf(tokenId) == msg.sender, \"Not Owner\");\n        require(coupons[tokenId].redeemed == false, \"Already Redeemed\");\n\n        coupons[tokenId].redeemed = true;\n        coupons[tokenId].redeemedTimeStamp = now;\n\n        emit redeemCouponEvent(msg.sender, tokenId, tokenURI(tokenId), now);\n    }\n\n    function getMyCoupons() public view returns (CouponItem[] memory) {\n        CouponItem [] memory myCoupons = new CouponItem[](balanceOf(msg.sender));\n        uint256 tokenId;\n\n        if (balanceOf(msg.sender) > 0) {\n            uint j = 0;\n            for (uint i = 0; i < totalSupply(); i++) {\n                tokenId = tokenByIndex(i);\n                if (ownerOf(tokenId) == msg.sender) {\n                    myCoupons[j] = coupons[tokenId];\n                    j++;\n                }\n            }\n        }\n\n        return myCoupons;\n    }\n}",
  "sourcePath": "/src/contracts/Coupon.sol",
  "compiler": {
    "name": "solc",
    "version": "0.6.12+commit.27d51765.Emscripten.clang"
  },
  "schemaVersion": "3.3.4",
  "updatedAt": "2021-03-31T11:19:22.992Z",
  "networkType": "ethereum",
  "devdoc": {
    "kind": "dev",
    "methods": {
      "approve(address,uint256)": {
        "details": "See {IERC721-approve}."
      },
      "balanceOf(address)": {
        "details": "See {IERC721-balanceOf}."
      },
      "baseURI()": {
        "details": "Returns the base URI set via {_setBaseURI}. This will be automatically added as a prefix in {tokenURI} to each token's URI, or to the token ID if no specific URI is set for that token ID."
      },
      "getApproved(uint256)": {
        "details": "See {IERC721-getApproved}."
      },
      "isApprovedForAll(address,address)": {
        "details": "See {IERC721-isApprovedForAll}."
      },
      "name()": {
        "details": "See {IERC721Metadata-name}."
      },
      "owner()": {
        "details": "Returns the address of the current owner."
      },
      "ownerOf(uint256)": {
        "details": "See {IERC721-ownerOf}."
      },
      "renounceOwnership()": {
        "details": "Leaves the contract without owner. It will not be possible to call `onlyOwner` functions anymore. Can only be called by the current owner. NOTE: Renouncing ownership will leave the contract without an owner, thereby removing any functionality that is only available to the owner."
      },
      "safeTransferFrom(address,address,uint256)": {
        "details": "See {IERC721-safeTransferFrom}."
      },
      "safeTransferFrom(address,address,uint256,bytes)": {
        "details": "See {IERC721-safeTransferFrom}."
      },
      "setApprovalForAll(address,bool)": {
        "details": "See {IERC721-setApprovalForAll}."
      },
      "supportsInterface(bytes4)": {
        "details": "See {IERC165-supportsInterface}. Time complexity O(1), guaranteed to always use less than 30 000 gas."
      },
      "symbol()": {
        "details": "See {IERC721Metadata-symbol}."
      },
      "tokenByIndex(uint256)": {
        "details": "See {IERC721Enumerable-tokenByIndex}."
      },
      "tokenOfOwnerByIndex(address,uint256)": {
        "details": "See {IERC721Enumerable-tokenOfOwnerByIndex}."
      },
      "tokenURI(uint256)": {
        "details": "See {IERC721Metadata-tokenURI}."
      },
      "totalSupply()": {
        "details": "See {IERC721Enumerable-totalSupply}."
      },
      "transferFrom(address,address,uint256)": {
        "details": "See {IERC721-transferFrom}."
      },
      "transferOwnership(address)": {
        "details": "Transfers ownership of the contract to a new account (`newOwner`). Can only be called by the current owner."
      }
    },
    "version": 1
  },
  "userdoc": {
    "kind": "user",
    "methods": {},
    "version": 1
  }
}