{
  "contractName": "Coupon",
  "abi": [
    {
      "inputs": [],
      "stateMutability": "nonpayable",
      "type": "constructor"
    },
    {
      "anonymous": false,
      "inputs": [
        {
          "indexed": true,
          "internalType": "address",
          "name": "owner",
          "type": "address"
        },
        {
          "indexed": true,
          "internalType": "address",
          "name": "approved",
          "type": "address"
        },
        {
          "indexed": true,
          "internalType": "uint256",
          "name": "tokenId",
          "type": "uint256"
        }
      ],
      "name": "Approval",
      "type": "event"
    },
    {
      "anonymous": false,
      "inputs": [
        {
          "indexed": true,
          "internalType": "address",
          "name": "owner",
          "type": "address"
        },
        {
          "indexed": true,
          "internalType": "address",
          "name": "operator",
          "type": "address"
        },
        {
          "indexed": false,
          "internalType": "bool",
          "name": "approved",
          "type": "bool"
        }
      ],
      "name": "ApprovalForAll",
      "type": "event"
    },
    {
      "anonymous": false,
      "inputs": [
        {
          "indexed": true,
          "internalType": "address",
          "name": "previousOwner",
          "type": "address"
        },
        {
          "indexed": true,
          "internalType": "address",
          "name": "newOwner",
          "type": "address"
        }
      ],
      "name": "OwnershipTransferred",
      "type": "event"
    },
    {
      "anonymous": false,
      "inputs": [
        {
          "indexed": true,
          "internalType": "address",
          "name": "from",
          "type": "address"
        },
        {
          "indexed": true,
          "internalType": "address",
          "name": "to",
          "type": "address"
        },
        {
          "indexed": true,
          "internalType": "uint256",
          "name": "tokenId",
          "type": "uint256"
        }
      ],
      "name": "Transfer",
      "type": "event"
    },
    {
      "anonymous": false,
      "inputs": [
        {
          "indexed": false,
          "internalType": "address",
          "name": "customer",
          "type": "address"
        },
        {
          "indexed": false,
          "internalType": "uint256",
          "name": "tokenId",
          "type": "uint256"
        },
        {
          "indexed": false,
          "internalType": "string",
          "name": "tokenURI",
          "type": "string"
        }
      ],
      "name": "redeemCouponEvent",
      "type": "event"
    },
    {
      "inputs": [
        {
          "internalType": "address",
          "name": "to",
          "type": "address"
        },
        {
          "internalType": "uint256",
          "name": "tokenId",
          "type": "uint256"
        }
      ],
      "name": "approve",
      "outputs": [],
      "stateMutability": "nonpayable",
      "type": "function"
    },
    {
      "inputs": [
        {
          "internalType": "address",
          "name": "owner",
          "type": "address"
        }
      ],
      "name": "balanceOf",
      "outputs": [
        {
          "internalType": "uint256",
          "name": "",
          "type": "uint256"
        }
      ],
      "stateMutability": "view",
      "type": "function",
      "constant": true
    },
    {
      "inputs": [],
      "name": "baseURI",
      "outputs": [
        {
          "internalType": "string",
          "name": "",
          "type": "string"
        }
      ],
      "stateMutability": "view",
      "type": "function",
      "constant": true
    },
    {
      "inputs": [
        {
          "internalType": "uint256",
          "name": "",
          "type": "uint256"
        }
      ],
      "name": "coupons",
      "outputs": [
        {
          "internalType": "uint256",
          "name": "tokenId",
          "type": "uint256"
        },
        {
          "internalType": "string",
          "name": "description",
          "type": "string"
        },
        {
          "internalType": "string",
          "name": "expiryDate",
          "type": "string"
        },
        {
          "internalType": "uint256",
          "name": "value",
          "type": "uint256"
        },
        {
          "internalType": "bool",
          "name": "redeemed",
          "type": "bool"
        }
      ],
      "stateMutability": "view",
      "type": "function",
      "constant": true
    },
    {
      "inputs": [
        {
          "internalType": "uint256",
          "name": "tokenId",
          "type": "uint256"
        }
      ],
      "name": "getApproved",
      "outputs": [
        {
          "internalType": "address",
          "name": "",
          "type": "address"
        }
      ],
      "stateMutability": "view",
      "type": "function",
      "constant": true
    },
    {
      "inputs": [
        {
          "internalType": "address",
          "name": "owner",
          "type": "address"
        },
        {
          "internalType": "address",
          "name": "operator",
          "type": "address"
        }
      ],
      "name": "isApprovedForAll",
      "outputs": [
        {
          "internalType": "bool",
          "name": "",
          "type": "bool"
        }
      ],
      "stateMutability": "view",
      "type": "function",
      "constant": true
    },
    {
      "inputs": [],
      "name": "name",
      "outputs": [
        {
          "internalType": "string",
          "name": "",
          "type": "string"
        }
      ],
      "stateMutability": "view",
      "type": "function",
      "constant": true
    },
    {
      "inputs": [],
      "name": "owner",
      "outputs": [
        {
          "internalType": "address",
          "name": "",
          "type": "address"
        }
      ],
      "stateMutability": "view",
      "type": "function",
      "constant": true
    },
    {
      "inputs": [
        {
          "internalType": "uint256",
          "name": "tokenId",
          "type": "uint256"
        }
      ],
      "name": "ownerOf",
      "outputs": [
        {
          "internalType": "address",
          "name": "",
          "type": "address"
        }
      ],
      "stateMutability": "view",
      "type": "function",
      "constant": true
    },
    {
      "inputs": [],
      "name": "renounceOwnership",
      "outputs": [],
      "stateMutability": "nonpayable",
      "type": "function"
    },
    {
      "inputs": [
        {
          "internalType": "address",
          "name": "from",
          "type": "address"
        },
        {
          "internalType": "address",
          "name": "to",
          "type": "address"
        },
        {
          "internalType": "uint256",
          "name": "tokenId",
          "type": "uint256"
        }
      ],
      "name": "safeTransferFrom",
      "outputs": [],
      "stateMutability": "nonpayable",
      "type": "function"
    },
    {
      "inputs": [
        {
          "internalType": "address",
          "name": "from",
          "type": "address"
        },
        {
          "internalType": "address",
          "name": "to",
          "type": "address"
        },
        {
          "internalType": "uint256",
          "name": "tokenId",
          "type": "uint256"
        },
        {
          "internalType": "bytes",
          "name": "_data",
          "type": "bytes"
        }
      ],
      "name": "safeTransferFrom",
      "outputs": [],
      "stateMutability": "nonpayable",
      "type": "function"
    },
    {
      "inputs": [
        {
          "internalType": "address",
          "name": "operator",
          "type": "address"
        },
        {
          "internalType": "bool",
          "name": "approved",
          "type": "bool"
        }
      ],
      "name": "setApprovalForAll",
      "outputs": [],
      "stateMutability": "nonpayable",
      "type": "function"
    },
    {
      "inputs": [
        {
          "internalType": "bytes4",
          "name": "interfaceId",
          "type": "bytes4"
        }
      ],
      "name": "supportsInterface",
      "outputs": [
        {
          "internalType": "bool",
          "name": "",
          "type": "bool"
        }
      ],
      "stateMutability": "view",
      "type": "function",
      "constant": true
    },
    {
      "inputs": [],
      "name": "symbol",
      "outputs": [
        {
          "internalType": "string",
          "name": "",
          "type": "string"
        }
      ],
      "stateMutability": "view",
      "type": "function",
      "constant": true
    },
    {
      "inputs": [
        {
          "internalType": "uint256",
          "name": "index",
          "type": "uint256"
        }
      ],
      "name": "tokenByIndex",
      "outputs": [
        {
          "internalType": "uint256",
          "name": "",
          "type": "uint256"
        }
      ],
      "stateMutability": "view",
      "type": "function",
      "constant": true
    },
    {
      "inputs": [
        {
          "internalType": "address",
          "name": "owner",
          "type": "address"
        },
        {
          "internalType": "uint256",
          "name": "index",
          "type": "uint256"
        }
      ],
      "name": "tokenOfOwnerByIndex",
      "outputs": [
        {
          "internalType": "uint256",
          "name": "",
          "type": "uint256"
        }
      ],
      "stateMutability": "view",
      "type": "function",
      "constant": true
    },
    {
      "inputs": [
        {
          "internalType": "uint256",
          "name": "tokenId",
          "type": "uint256"
        }
      ],
      "name": "tokenURI",
      "outputs": [
        {
          "internalType": "string",
          "name": "",
          "type": "string"
        }
      ],
      "stateMutability": "view",
      "type": "function",
      "constant": true
    },
    {
      "inputs": [],
      "name": "totalSupply",
      "outputs": [
        {
          "internalType": "uint256",
          "name": "",
          "type": "uint256"
        }
      ],
      "stateMutability": "view",
      "type": "function",
      "constant": true
    },
    {
      "inputs": [
        {
          "internalType": "address",
          "name": "from",
          "type": "address"
        },
        {
          "internalType": "address",
          "name": "to",
          "type": "address"
        },
        {
          "internalType": "uint256",
          "name": "tokenId",
          "type": "uint256"
        }
      ],
      "name": "transferFrom",
      "outputs": [],
      "stateMutability": "nonpayable",
      "type": "function"
    },
    {
      "inputs": [
        {
          "internalType": "address",
          "name": "newOwner",
          "type": "address"
        }
      ],
      "name": "transferOwnership",
      "outputs": [],
      "stateMutability": "nonpayable",
      "type": "function"
    },
    {
      "inputs": [
        {
          "internalType": "address",
          "name": "customer",
          "type": "address"
        },
        {
          "internalType": "string",
          "name": "tokenURI",
          "type": "string"
        }
      ],
      "name": "awardCoupon",
      "outputs": [
        {
          "internalType": "uint256",
          "name": "",
          "type": "uint256"
        }
      ],
      "stateMutability": "nonpayable",
      "type": "function"
    },
    {
      "inputs": [
        {
          "internalType": "uint256",
          "name": "tokenId",
          "type": "uint256"
        }
      ],
      "name": "redeem",
      "outputs": [],
      "stateMutability": "nonpayable",
      "type": "function"
    },
    {
      "inputs": [],
      "name": "getMyCoupons",
      "outputs": [
        {
          "components": [
            {
              "internalType": "uint256",
              "name": "tokenId",
              "type": "uint256"
            },
            {
              "internalType": "string",
              "name": "description",
              "type": "string"
            },
            {
              "internalType": "string",
              "name": "expiryDate",
              "type": "string"
            },
            {
              "internalType": "uint256",
              "name": "value",
              "type": "uint256"
            },
            {
              "internalType": "bool",
              "name": "redeemed",
              "type": "bool"
            }
          ],
          "internalType": "struct Coupon.CouponItem[]",
          "name": "",
          "type": "tuple[]"
        }
      ],
      "stateMutability": "view",
      "type": "function",
      "constant": true
    }
  ],
  "bytecode": "0x60806040523480156200001157600080fd5b506040518060400160405280600681526020017f436f75706f6e00000000000000000000000000000000000000000000000000008152506040518060400160405280600381526020017f43504e0000000000000000000000000000000000000000000000000000000000815250600062000090620001c860201b60201c565b9050806000806101000a81548173ffffffffffffffffffffffffffffffffffffffff021916908373ffffffffffffffffffffffffffffffffffffffff1602179055508073ffffffffffffffffffffffffffffffffffffffff16600073ffffffffffffffffffffffffffffffffffffffff167f8be0079c531659141344cd1fd0a4f28419497f9722a3daafe3b4186f6b6457e060405160405180910390a350620001466301ffc9a760e01b620001d060201b60201c565b81600790805190602001906200015e929190620002a8565b50806008908051906020019062000177929190620002a8565b50620001906380ac58cd60e01b620001d060201b60201c565b620001a8635b5e139f60e01b620001d060201b60201c565b620001c063780e9d6360e01b620001d060201b60201c565b5050620003c3565b600033905090565b63ffffffff60e01b817bffffffffffffffffffffffffffffffffffffffffffffffffffffffff191614156200023c576040517f08c379a0000000000000000000000000000000000000000000000000000000008152600401620002339062000390565b60405180910390fd5b6001806000837bffffffffffffffffffffffffffffffffffffffffffffffffffffffff19167bffffffffffffffffffffffffffffffffffffffffffffffffffffffff1916815260200190815260200160002060006101000a81548160ff02191690831515021790555050565b828054600181600116156101000203166002900490600052602060002090601f016020900481019282601f10620002eb57805160ff19168380011785556200031c565b828001600101855582156200031c579182015b828111156200031b578251825591602001919060010190620002fe565b5b5090506200032b91906200032f565b5090565b5b808211156200034a57600081600090555060010162000330565b5090565b60006200035d601c83620003b2565b91507f4552433136353a20696e76616c696420696e74657266616365206964000000006000830152602082019050919050565b60006020820190508181036000830152620003ab816200034e565b9050919050565b600082825260208201905092915050565b613eec80620003d36000396000f3fe608060405234801561001057600080fd5b50600436106101585760003560e01c806370a08231116100c3578063b88d4fde1161007c578063b88d4fde146103df578063c87b56dd146103fb578063cd0b06291461042b578063db006a751461045b578063e985e9c514610477578063f2fde38b146104a757610158565b806370a082311461032f578063715018a61461035f5780637ed80ccf146103695780638da5cb5b1461038757806395d89b41146103a5578063a22cb465146103c357610158565b80632f745c59116101155780632f745c591461023157806330828e921461026157806342842e0e146102955780634f6ccce7146102b15780636352211e146102e15780636c0360eb1461031157610158565b806301ffc9a71461015d57806306fdde031461018d578063081812fc146101ab578063095ea7b3146101db57806318160ddd146101f757806323b872dd14610215575b600080fd5b61017760048036038101906101729190612ca7565b6104c3565b604051610184919061385a565b60405180910390f35b61019561052b565b6040516101a29190613875565b60405180910390f35b6101c560048036038101906101c09190612cf9565b6105cd565b6040516101d29190613793565b60405180910390f35b6101f560048036038101906101f09190612c6b565b610652565b005b6101ff61076a565b60405161020c9190613b57565b60405180910390f35b61022f600480360381019061022a9190612b11565b61077b565b005b61024b60048036038101906102469190612c6b565b6107db565b6040516102589190613b57565b60405180910390f35b61027b60048036038101906102769190612cf9565b610836565b60405161028c959493929190613b72565b60405180910390f35b6102af60048036038101906102aa9190612b11565b6109a9565b005b6102cb60048036038101906102c69190612cf9565b6109c9565b6040516102d89190613b57565b60405180910390f35b6102fb60048036038101906102f69190612cf9565b6109ec565b6040516103089190613793565b60405180910390f35b610319610a23565b6040516103269190613875565b60405180910390f35b61034960048036038101906103449190612aac565b610ac5565b6040516103569190613b57565b60405180910390f35b610367610b84565b005b610371610cbe565b60405161037e9190613838565b60405180910390f35b61038f610f56565b60405161039c9190613793565b60405180910390f35b6103ad610f7f565b6040516103ba9190613875565b60405180910390f35b6103dd60048036038101906103d89190612bdb565b611021565b005b6103f960048036038101906103f49190612b60565b6111a2565b005b61041560048036038101906104109190612cf9565b611204565b6040516104229190613875565b60405180910390f35b61044560048036038101906104409190612c17565b611387565b6040516104529190613b57565b60405180910390f35b61047560048036038101906104709190612cf9565b611560565b005b610491600480360381019061048c9190612ad5565b6116b5565b60405161049e919061385a565b60405180910390f35b6104c160048036038101906104bc9190612aac565b611749565b005b600060016000837bffffffffffffffffffffffffffffffffffffffffffffffffffffffff19167bffffffffffffffffffffffffffffffffffffffffffffffffffffffff1916815260200190815260200160002060009054906101000a900460ff169050919050565b606060078054600181600116156101000203166002900480601f0160208091040260200160405190810160405280929190818152602001828054600181600116156101000203166002900480156105c35780601f10610598576101008083540402835291602001916105c3565b820191906000526020600020905b8154815290600101906020018083116105a657829003601f168201915b5050505050905090565b60006105d8826118f2565b610617576040517f08c379a000000000000000000000000000000000000000000000000000000000815260040161060e90613a37565b60405180910390fd5b6005600083815260200190815260200160002060009054906101000a900473ffffffffffffffffffffffffffffffffffffffff169050919050565b600061065d826109ec565b90508073ffffffffffffffffffffffffffffffffffffffff168373ffffffffffffffffffffffffffffffffffffffff1614156106ce576040517f08c379a00000000000000000000000000000000000000000000000000000000081526004016106c590613ad7565b60405180910390fd5b8073ffffffffffffffffffffffffffffffffffffffff166106ed61190f565b73ffffffffffffffffffffffffffffffffffffffff16148061071c575061071b8161071661190f565b6116b5565b5b61075b576040517f08c379a0000000000000000000000000000000000000000000000000000000008152600401610752906139b7565b60405180910390fd5b6107658383611917565b505050565b600061077660036119d0565b905090565b61078c61078661190f565b826119e5565b6107cb576040517f08c379a00000000000000000000000000000000000000000000000000000000081526004016107c290613b17565b60405180910390fd5b6107d6838383611ac3565b505050565b600061082e82600260008673ffffffffffffffffffffffffffffffffffffffff1673ffffffffffffffffffffffffffffffffffffffff168152602001908152602001600020611cda90919063ffffffff16565b905092915050565b600c602052806000526040600020600091509050806000015490806001018054600181600116156101000203166002900480601f0160208091040260200160405190810160405280929190818152602001828054600181600116156101000203166002900480156108e85780601f106108bd576101008083540402835291602001916108e8565b820191906000526020600020905b8154815290600101906020018083116108cb57829003601f168201915b505050505090806002018054600181600116156101000203166002900480601f0160208091040260200160405190810160405280929190818152602001828054600181600116156101000203166002900480156109865780601f1061095b57610100808354040283529160200191610986565b820191906000526020600020905b81548152906001019060200180831161096957829003601f168201915b5050505050908060030154908060040160009054906101000a900460ff16905085565b6109c4838383604051806020016040528060008152506111a2565b505050565b6000806109e0836003611cf490919063ffffffff16565b50905080915050919050565b6000610a1c82604051806060016040528060298152602001613e8e602991396003611d209092919063ffffffff16565b9050919050565b6060600a8054600181600116156101000203166002900480601f016020809104026020016040519081016040528092919081815260200182805460018160011615610100020316600290048015610abb5780601f10610a9057610100808354040283529160200191610abb565b820191906000526020600020905b815481529060010190602001808311610a9e57829003601f168201915b5050505050905090565b60008073ffffffffffffffffffffffffffffffffffffffff168273ffffffffffffffffffffffffffffffffffffffff161415610b36576040517f08c379a0000000000000000000000000000000000000000000000000000000008152600401610b2d906139d7565b60405180910390fd5b610b7d600260008473ffffffffffffffffffffffffffffffffffffffff1673ffffffffffffffffffffffffffffffffffffffff168152602001908152602001600020611d3f565b9050919050565b610b8c61190f565b73ffffffffffffffffffffffffffffffffffffffff16610baa610f56565b73ffffffffffffffffffffffffffffffffffffffff1614610c00576040517f08c379a0000000000000000000000000000000000000000000000000000000008152600401610bf790613a77565b60405180910390fd5b600073ffffffffffffffffffffffffffffffffffffffff1660008054906101000a900473ffffffffffffffffffffffffffffffffffffffff1673ffffffffffffffffffffffffffffffffffffffff167f8be0079c531659141344cd1fd0a4f28419497f9722a3daafe3b4186f6b6457e060405160405180910390a360008060006101000a81548173ffffffffffffffffffffffffffffffffffffffff021916908373ffffffffffffffffffffffffffffffffffffffff160217905550565b606080610cca33610ac5565b67ffffffffffffffff81118015610ce057600080fd5b50604051908082528060200260200182016040528015610d1a57816020015b610d076128cd565b815260200190600190039081610cff5790505b5090506000806000610d2b33610ac5565b1115610f4d576000805b610d3d61076a565b811015610f4a57610d4d816109c9565b92503373ffffffffffffffffffffffffffffffffffffffff16610d6f846109ec565b73ffffffffffffffffffffffffffffffffffffffff161415610f3d57600c60008481526020019081526020016000209350836040518060a001604052908160008201548152602001600182018054600181600116156101000203166002900480601f016020809104026020016040519081016040528092919081815260200182805460018160011615610100020316600290048015610e4f5780601f10610e2457610100808354040283529160200191610e4f565b820191906000526020600020905b815481529060010190602001808311610e3257829003601f168201915b50505050508152602001600282018054600181600116156101000203166002900480601f016020809104026020016040519081016040528092919081815260200182805460018160011615610100020316600290048015610ef15780601f10610ec657610100808354040283529160200191610ef1565b820191906000526020600020905b815481529060010190602001808311610ed457829003601f168201915b50505050508152602001600382015481526020016004820160009054906101000a900460ff161515151581525050858381518110610f2b57fe5b60200260200101819052506001820191505b8080600101915050610d35565b50505b82935050505090565b60008060009054906101000a900473ffffffffffffffffffffffffffffffffffffffff16905090565b606060088054600181600116156101000203166002900480601f0160208091040260200160405190810160405280929190818152602001828054600181600116156101000203166002900480156110175780601f10610fec57610100808354040283529160200191611017565b820191906000526020600020905b815481529060010190602001808311610ffa57829003601f168201915b5050505050905090565b61102961190f565b73ffffffffffffffffffffffffffffffffffffffff168273ffffffffffffffffffffffffffffffffffffffff161415611097576040517f08c379a000000000000000000000000000000000000000000000000000000000815260040161108e90613937565b60405180910390fd5b80600660006110a461190f565b73ffffffffffffffffffffffffffffffffffffffff1673ffffffffffffffffffffffffffffffffffffffff16815260200190815260200160002060008473ffffffffffffffffffffffffffffffffffffffff1673ffffffffffffffffffffffffffffffffffffffff16815260200190815260200160002060006101000a81548160ff0219169083151502179055508173ffffffffffffffffffffffffffffffffffffffff1661115161190f565b73ffffffffffffffffffffffffffffffffffffffff167f17307eab39ab6107e8899845ad3d59bd9653f200f220920489ca2b5937696c3183604051611196919061385a565b60405180910390a35050565b6111b36111ad61190f565b836119e5565b6111f2576040517f08c379a00000000000000000000000000000000000000000000000000000000081526004016111e990613b17565b60405180910390fd5b6111fe84848484611d54565b50505050565b606061120f826118f2565b61124e576040517f08c379a000000000000000000000000000000000000000000000000000000000815260040161124590613ab7565b60405180910390fd5b6060600960008481526020019081526020016000208054600181600116156101000203166002900480601f0160208091040260200160405190810160405280929190818152602001828054600181600116156101000203166002900480156112f75780601f106112cc576101008083540402835291602001916112f7565b820191906000526020600020905b8154815290600101906020018083116112da57829003601f168201915b505050505090506060611308610a23565b905060008151141561131e578192505050611382565b60008251111561135357808260405160200161133b92919061376f565b60405160208183030381529060405292505050611382565b8061135d85611db0565b60405160200161136e92919061376f565b604051602081830303815290604052925050505b919050565b600061139161190f565b73ffffffffffffffffffffffffffffffffffffffff166113af610f56565b73ffffffffffffffffffffffffffffffffffffffff1614611405576040517f08c379a00000000000000000000000000000000000000000000000000000000081526004016113fc90613a77565b60405180910390fd5b61140f600b611ef7565b600061141b600b611f0d565b90506114278482611f1b565b61143181846120a9565b6114396128cd565b6040518060a001604052808381526020016040518060400160405280600b81526020017f4361736820436f75706f6e00000000000000000000000000000000000000000081525081526020016040518060400160405280600a81526020017f323032322d31322d33310000000000000000000000000000000000000000000081525081526020016032815260200160001515815250905080600c600084815260200190815260200160002060008201518160000155602082015181600101908051906020019061150a9291906128fe565b5060408201518160020190805190602001906115279291906128fe565b506060820151816003015560808201518160040160006101000a81548160ff021916908315150217905550905050819250505092915050565b3373ffffffffffffffffffffffffffffffffffffffff16611580826109ec565b73ffffffffffffffffffffffffffffffffffffffff16146115d6576040517f08c379a00000000000000000000000000000000000000000000000000000000081526004016115cd90613957565b60405180910390fd5b60001515600c600083815260200190815260200160002060040160009054906101000a900460ff16151514611640576040517f08c379a000000000000000000000000000000000000000000000000000000000815260040161163790613af7565b60405180910390fd5b6001600c600083815260200190815260200160002060040160006101000a81548160ff0219169083151502179055507fec84e9c0e8ec37c106eac6bb0248fe1c1fea07505f16d5c4b0f01d393fb6cfcf338261169b84611204565b6040516116aa939291906137fa565b60405180910390a150565b6000600660008473ffffffffffffffffffffffffffffffffffffffff1673ffffffffffffffffffffffffffffffffffffffff16815260200190815260200160002060008373ffffffffffffffffffffffffffffffffffffffff1673ffffffffffffffffffffffffffffffffffffffff16815260200190815260200160002060009054906101000a900460ff16905092915050565b61175161190f565b73ffffffffffffffffffffffffffffffffffffffff1661176f610f56565b73ffffffffffffffffffffffffffffffffffffffff16146117c5576040517f08c379a00000000000000000000000000000000000000000000000000000000081526004016117bc90613a77565b60405180910390fd5b600073ffffffffffffffffffffffffffffffffffffffff168173ffffffffffffffffffffffffffffffffffffffff161415611835576040517f08c379a000000000000000000000000000000000000000000000000000000000815260040161182c906138d7565b60405180910390fd5b8073ffffffffffffffffffffffffffffffffffffffff1660008054906101000a900473ffffffffffffffffffffffffffffffffffffffff1673ffffffffffffffffffffffffffffffffffffffff167f8be0079c531659141344cd1fd0a4f28419497f9722a3daafe3b4186f6b6457e060405160405180910390a3806000806101000a81548173ffffffffffffffffffffffffffffffffffffffff021916908373ffffffffffffffffffffffffffffffffffffffff16021790555050565b600061190882600361211d90919063ffffffff16565b9050919050565b600033905090565b816005600083815260200190815260200160002060006101000a81548173ffffffffffffffffffffffffffffffffffffffff021916908373ffffffffffffffffffffffffffffffffffffffff160217905550808273ffffffffffffffffffffffffffffffffffffffff1661198a836109ec565b73ffffffffffffffffffffffffffffffffffffffff167f8c5be1e5ebec7d5bd14f71427d1e84f3dd0314c0f7b2291e5b200ac8c7c3b92560405160405180910390a45050565b60006119de82600001612137565b9050919050565b60006119f0826118f2565b611a2f576040517f08c379a0000000000000000000000000000000000000000000000000000000008152600401611a2690613997565b60405180910390fd5b6000611a3a836109ec565b90508073ffffffffffffffffffffffffffffffffffffffff168473ffffffffffffffffffffffffffffffffffffffff161480611aa957508373ffffffffffffffffffffffffffffffffffffffff16611a91846105cd565b73ffffffffffffffffffffffffffffffffffffffff16145b80611aba5750611ab981856116b5565b5b91505092915050565b8273ffffffffffffffffffffffffffffffffffffffff16611ae3826109ec565b73ffffffffffffffffffffffffffffffffffffffff1614611b39576040517f08c379a0000000000000000000000000000000000000000000000000000000008152600401611b3090613a97565b60405180910390fd5b600073ffffffffffffffffffffffffffffffffffffffff168273ffffffffffffffffffffffffffffffffffffffff161415611ba9576040517f08c379a0000000000000000000000000000000000000000000000000000000008152600401611ba090613917565b60405180910390fd5b611bb4838383612148565b611bbf600082611917565b611c1081600260008673ffffffffffffffffffffffffffffffffffffffff1673ffffffffffffffffffffffffffffffffffffffff16815260200190815260200160002061214d90919063ffffffff16565b50611c6281600260008573ffffffffffffffffffffffffffffffffffffffff1673ffffffffffffffffffffffffffffffffffffffff16815260200190815260200160002061216790919063ffffffff16565b50611c79818360036121819092919063ffffffff16565b50808273ffffffffffffffffffffffffffffffffffffffff168473ffffffffffffffffffffffffffffffffffffffff167fddf252ad1be2c89b69c2b068fc378daa952ba7f163c4a11628f55a4df523b3ef60405160405180910390a4505050565b6000611ce983600001836121b6565b60001c905092915050565b600080600080611d078660000186612223565b915091508160001c8160001c9350935050509250929050565b6000611d33846000018460001b846122a6565b60001c90509392505050565b6000611d4d82600001612337565b9050919050565b611d5f848484611ac3565b611d6b84848484612348565b611daa576040517f08c379a0000000000000000000000000000000000000000000000000000000008152600401611da1906138b7565b60405180910390fd5b50505050565b60606000821415611df8576040518060400160405280600181526020017f30000000000000000000000000000000000000000000000000000000000000008152509050611ef2565b600082905060005b60008214611e22578080600101915050600a8281611e1a57fe5b049150611e00565b60608167ffffffffffffffff81118015611e3b57600080fd5b506040519080825280601f01601f191660200182016040528015611e6e5781602001600182028036833780820191505090505b50905060006001830390508593505b60008414611eea57600a8481611e8f57fe5b0660300160f81b82828060019003935081518110611ea957fe5b60200101907effffffffffffffffffffffffffffffffffffffffffffffffffffffffffffff1916908160001a905350600a8481611ee257fe5b049350611e7d565b819450505050505b919050565b6001816000016000828254019250508190555050565b600081600001549050919050565b600073ffffffffffffffffffffffffffffffffffffffff168273ffffffffffffffffffffffffffffffffffffffff161415611f8b576040517f08c379a0000000000000000000000000000000000000000000000000000000008152600401611f8290613a17565b60405180910390fd5b611f94816118f2565b15611fd4576040517f08c379a0000000000000000000000000000000000000000000000000000000008152600401611fcb906138f7565b60405180910390fd5b611fe060008383612148565b61203181600260008573ffffffffffffffffffffffffffffffffffffffff1673ffffffffffffffffffffffffffffffffffffffff16815260200190815260200160002061216790919063ffffffff16565b50612048818360036121819092919063ffffffff16565b50808273ffffffffffffffffffffffffffffffffffffffff16600073ffffffffffffffffffffffffffffffffffffffff167fddf252ad1be2c89b69c2b068fc378daa952ba7f163c4a11628f55a4df523b3ef60405160405180910390a45050565b6120b2826118f2565b6120f1576040517f08c379a00000000000000000000000000000000000000000000000000000000081526004016120e890613a57565b60405180910390fd5b806009600084815260200190815260200160002090805190602001906121189291906128fe565b505050565b600061212f836000018360001b6124ac565b905092915050565b600081600001805490509050919050565b505050565b600061215f836000018360001b6124cf565b905092915050565b6000612179836000018360001b6125b7565b905092915050565b60006121ad846000018460001b8473ffffffffffffffffffffffffffffffffffffffff1660001b612627565b90509392505050565b600081836000018054905011612201576040517f08c379a00000000000000000000000000000000000000000000000000000000081526004016121f890613897565b60405180910390fd5b82600001828154811061221057fe5b9060005260206000200154905092915050565b6000808284600001805490501161226f576040517f08c379a0000000000000000000000000000000000000000000000000000000008152600401612266906139f7565b60405180910390fd5b600084600001848154811061228057fe5b906000526020600020906002020190508060000154816001015492509250509250929050565b60008084600101600085815260200190815260200160002054905060008114158390612308576040517f08c379a00000000000000000000000000000000000000000000000000000000081526004016122ff9190613875565b60405180910390fd5b5084600001600182038154811061231b57fe5b9060005260206000209060020201600101549150509392505050565b600081600001805490509050919050565b60006123698473ffffffffffffffffffffffffffffffffffffffff16612703565b61237657600190506124a4565b606061243d63150b7a0260e01b61238b61190f565b8887876040516024016123a194939291906137ae565b604051602081830303815290604052907bffffffffffffffffffffffffffffffffffffffffffffffffffffffff19166020820180517bffffffffffffffffffffffffffffffffffffffffffffffffffffffff8381831617835250505050604051806060016040528060328152602001613e5c603291398773ffffffffffffffffffffffffffffffffffffffff166127169092919063ffffffff16565b90506000818060200190518101906124559190612cd0565b905063150b7a0260e01b7bffffffffffffffffffffffffffffffffffffffffffffffffffffffff1916817bffffffffffffffffffffffffffffffffffffffffffffffffffffffff191614925050505b949350505050565b600080836001016000848152602001908152602001600020541415905092915050565b600080836001016000848152602001908152602001600020549050600081146125ab576000600182039050600060018660000180549050039050600086600001828154811061251a57fe5b906000526020600020015490508087600001848154811061253757fe5b906000526020600020018190555060018301876001016000838152602001908152602001600020819055508660000180548061256f57fe5b600190038181906000526020600020016000905590558660010160008781526020019081526020016000206000905560019450505050506125b1565b60009150505b92915050565b60006125c3838361272e565b61261c578260000182908060018154018082558091505060019003906000526020600020016000909190919091505582600001805490508360010160008481526020019081526020016000208190555060019050612621565b600090505b92915050565b60008084600101600085815260200190815260200160002054905060008114156126ce578460000160405180604001604052808681526020018581525090806001815401808255809150506001900390600052602060002090600202016000909190919091506000820151816000015560208201518160010155505084600001805490508560010160008681526020019081526020016000208190555060019150506126fc565b828560000160018303815481106126e157fe5b90600052602060002090600202016001018190555060009150505b9392505050565b600080823b905060008111915050919050565b60606127258484600085612751565b90509392505050565b600080836001016000848152602001908152602001600020541415905092915050565b606082471015612796576040517f08c379a000000000000000000000000000000000000000000000000000000000815260040161278d90613977565b60405180910390fd5b61279f85612703565b6127de576040517f08c379a00000000000000000000000000000000000000000000000000000000081526004016127d590613b37565b60405180910390fd5b600060608673ffffffffffffffffffffffffffffffffffffffff1685876040516128089190613758565b60006040518083038185875af1925050503d8060008114612845576040519150601f19603f3d011682016040523d82523d6000602084013e61284a565b606091505b509150915061285a828286612866565b92505050949350505050565b60608315612876578290506128c6565b6000835111156128895782518084602001fd5b816040517f08c379a00000000000000000000000000000000000000000000000000000000081526004016128bd9190613875565b60405180910390fd5b9392505050565b6040518060a00160405280600081526020016060815260200160608152602001600081526020016000151581525090565b828054600181600116156101000203166002900490600052602060002090601f016020900481019282601f1061293f57805160ff191683800117855561296d565b8280016001018555821561296d579182015b8281111561296c578251825591602001919060010190612951565b5b50905061297a919061297e565b5090565b5b8082111561299757600081600090555060010161297f565b5090565b6000813590506129aa81613dff565b92915050565b6000813590506129bf81613e16565b92915050565b6000813590506129d481613e2d565b92915050565b6000815190506129e981613e2d565b92915050565b600082601f830112612a0057600080fd5b8135612a13612a0e82613c00565b613bd3565b91508082526020830160208301858383011115612a2f57600080fd5b612a3a838284613dac565b50505092915050565b600082601f830112612a5457600080fd5b8135612a67612a6282613c2c565b613bd3565b91508082526020830160208301858383011115612a8357600080fd5b612a8e838284613dac565b50505092915050565b600081359050612aa681613e44565b92915050565b600060208284031215612abe57600080fd5b6000612acc8482850161299b565b91505092915050565b60008060408385031215612ae857600080fd5b6000612af68582860161299b565b9250506020612b078582860161299b565b9150509250929050565b600080600060608486031215612b2657600080fd5b6000612b348682870161299b565b9350506020612b458682870161299b565b9250506040612b5686828701612a97565b9150509250925092565b60008060008060808587031215612b7657600080fd5b6000612b848782880161299b565b9450506020612b958782880161299b565b9350506040612ba687828801612a97565b925050606085013567ffffffffffffffff811115612bc357600080fd5b612bcf878288016129ef565b91505092959194509250565b60008060408385031215612bee57600080fd5b6000612bfc8582860161299b565b9250506020612c0d858286016129b0565b9150509250929050565b60008060408385031215612c2a57600080fd5b6000612c388582860161299b565b925050602083013567ffffffffffffffff811115612c5557600080fd5b612c6185828601612a43565b9150509250929050565b60008060408385031215612c7e57600080fd5b6000612c8c8582860161299b565b9250506020612c9d85828601612a97565b9150509250929050565b600060208284031215612cb957600080fd5b6000612cc7848285016129c5565b91505092915050565b600060208284031215612ce257600080fd5b6000612cf0848285016129da565b91505092915050565b600060208284031215612d0b57600080fd5b6000612d1984828501612a97565b91505092915050565b6000612d2e83836136bd565b905092915050565b612d3f81613d76565b82525050565b612d4e81613d02565b82525050565b612d5d81613cf0565b82525050565b6000612d6e82613c68565b612d788185613c96565b935083602082028501612d8a85613c58565b8060005b85811015612dc65784840389528151612da78582612d22565b9450612db283613c89565b925060208a01995050600181019050612d8e565b50829750879550505050505092915050565b612de181613d14565b82525050565b612df081613d14565b82525050565b6000612e0182613c73565b612e0b8185613ca7565b9350612e1b818560208601613dbb565b612e2481613dee565b840191505092915050565b6000612e3a82613c73565b612e448185613cb8565b9350612e54818560208601613dbb565b80840191505092915050565b6000612e6b82613c7e565b612e758185613cc3565b9350612e85818560208601613dbb565b612e8e81613dee565b840191505092915050565b6000612ea482613c7e565b612eae8185613cd4565b9350612ebe818560208601613dbb565b612ec781613dee565b840191505092915050565b6000612edd82613c7e565b612ee78185613ce5565b9350612ef7818560208601613dbb565b80840191505092915050565b6000612f10602283613cd4565b91507f456e756d657261626c655365743a20696e646578206f7574206f6620626f756e60008301527f64730000000000000000000000000000000000000000000000000000000000006020830152604082019050919050565b6000612f76603283613cd4565b91507f4552433732313a207472616e7366657220746f206e6f6e20455243373231526560008301527f63656976657220696d706c656d656e74657200000000000000000000000000006020830152604082019050919050565b6000612fdc602683613cd4565b91507f4f776e61626c653a206e6577206f776e657220697320746865207a65726f206160008301527f64647265737300000000000000000000000000000000000000000000000000006020830152604082019050919050565b6000613042601c83613cd4565b91507f4552433732313a20746f6b656e20616c7265616479206d696e746564000000006000830152602082019050919050565b6000613082602483613cd4565b91507f4552433732313a207472616e7366657220746f20746865207a65726f2061646460008301527f72657373000000000000000000000000000000000000000000000000000000006020830152604082019050919050565b60006130e8601983613cd4565b91507f4552433732313a20617070726f766520746f2063616c6c6572000000000000006000830152602082019050919050565b6000613128600983613cd4565b91507f4e6f74204f776e657200000000000000000000000000000000000000000000006000830152602082019050919050565b6000613168602683613cd4565b91507f416464726573733a20696e73756666696369656e742062616c616e636520666f60008301527f722063616c6c00000000000000000000000000000000000000000000000000006020830152604082019050919050565b60006131ce602c83613cd4565b91507f4552433732313a206f70657261746f7220717565727920666f72206e6f6e657860008301527f697374656e7420746f6b656e00000000000000000000000000000000000000006020830152604082019050919050565b6000613234603883613cd4565b91507f4552433732313a20617070726f76652063616c6c6572206973206e6f74206f7760008301527f6e6572206e6f7220617070726f76656420666f7220616c6c00000000000000006020830152604082019050919050565b600061329a602a83613cd4565b91507f4552433732313a2062616c616e636520717565727920666f7220746865207a6560008301527f726f2061646472657373000000000000000000000000000000000000000000006020830152604082019050919050565b6000613300602283613cd4565b91507f456e756d657261626c654d61703a20696e646578206f7574206f6620626f756e60008301527f64730000000000000000000000000000000000000000000000000000000000006020830152604082019050919050565b6000613366602083613cd4565b91507f4552433732313a206d696e7420746f20746865207a65726f20616464726573736000830152602082019050919050565b60006133a6602c83613cd4565b91507f4552433732313a20617070726f76656420717565727920666f72206e6f6e657860008301527f697374656e7420746f6b656e00000000000000000000000000000000000000006020830152604082019050919050565b600061340c602c83613cd4565b91507f4552433732314d657461646174613a2055524920736574206f66206e6f6e657860008301527f697374656e7420746f6b656e00000000000000000000000000000000000000006020830152604082019050919050565b6000613472602083613cd4565b91507f4f776e61626c653a2063616c6c6572206973206e6f7420746865206f776e65726000830152602082019050919050565b60006134b2602983613cd4565b91507f4552433732313a207472616e73666572206f6620746f6b656e2074686174206960008301527f73206e6f74206f776e00000000000000000000000000000000000000000000006020830152604082019050919050565b6000613518602f83613cd4565b91507f4552433732314d657461646174613a2055524920717565727920666f72206e6f60008301527f6e6578697374656e7420746f6b656e00000000000000000000000000000000006020830152604082019050919050565b600061357e602183613cd4565b91507f4552433732313a20617070726f76616c20746f2063757272656e74206f776e6560008301527f72000000000000000000000000000000000000000000000000000000000000006020830152604082019050919050565b60006135e4601083613cd4565b91507f416c72656164792052656465656d6564000000000000000000000000000000006000830152602082019050919050565b6000613624603183613cd4565b91507f4552433732313a207472616e736665722063616c6c6572206973206e6f74206f60008301527f776e6572206e6f7220617070726f7665640000000000000000000000000000006020830152604082019050919050565b600061368a601d83613cd4565b91507f416464726573733a2063616c6c20746f206e6f6e2d636f6e74726163740000006000830152602082019050919050565b600060a0830160008301516136d5600086018261373a565b50602083015184820360208601526136ed8282612e60565b915050604083015184820360408601526137078282612e60565b915050606083015161371c606086018261373a565b50608083015161372f6080860182612dd8565b508091505092915050565b61374381613d6c565b82525050565b61375281613d6c565b82525050565b60006137648284612e2f565b915081905092915050565b600061377b8285612ed2565b91506137878284612ed2565b91508190509392505050565b60006020820190506137a86000830184612d54565b92915050565b60006080820190506137c36000830187612d45565b6137d06020830186612d54565b6137dd6040830185613749565b81810360608301526137ef8184612df6565b905095945050505050565b600060608201905061380f6000830186612d36565b61381c6020830185613749565b818103604083015261382e8184612e99565b9050949350505050565b600060208201905081810360008301526138528184612d63565b905092915050565b600060208201905061386f6000830184612de7565b92915050565b6000602082019050818103600083015261388f8184612e99565b905092915050565b600060208201905081810360008301526138b081612f03565b9050919050565b600060208201905081810360008301526138d081612f69565b9050919050565b600060208201905081810360008301526138f081612fcf565b9050919050565b6000602082019050818103600083015261391081613035565b9050919050565b6000602082019050818103600083015261393081613075565b9050919050565b60006020820190508181036000830152613950816130db565b9050919050565b600060208201905081810360008301526139708161311b565b9050919050565b600060208201905081810360008301526139908161315b565b9050919050565b600060208201905081810360008301526139b0816131c1565b9050919050565b600060208201905081810360008301526139d081613227565b9050919050565b600060208201905081810360008301526139f08161328d565b9050919050565b60006020820190508181036000830152613a10816132f3565b9050919050565b60006020820190508181036000830152613a3081613359565b9050919050565b60006020820190508181036000830152613a5081613399565b9050919050565b60006020820190508181036000830152613a70816133ff565b9050919050565b60006020820190508181036000830152613a9081613465565b9050919050565b60006020820190508181036000830152613ab0816134a5565b9050919050565b60006020820190508181036000830152613ad08161350b565b9050919050565b60006020820190508181036000830152613af081613571565b9050919050565b60006020820190508181036000830152613b10816135d7565b9050919050565b60006020820190508181036000830152613b3081613617565b9050919050565b60006020820190508181036000830152613b508161367d565b9050919050565b6000602082019050613b6c6000830184613749565b92915050565b600060a082019050613b876000830188613749565b8181036020830152613b998187612e99565b90508181036040830152613bad8186612e99565b9050613bbc6060830185613749565b613bc96080830184612de7565b9695505050505050565b6000604051905081810181811067ffffffffffffffff82111715613bf657600080fd5b8060405250919050565b600067ffffffffffffffff821115613c1757600080fd5b601f19601f8301169050602081019050919050565b600067ffffffffffffffff821115613c4357600080fd5b601f19601f8301169050602081019050919050565b6000819050602082019050919050565b600081519050919050565b600081519050919050565b600081519050919050565b6000602082019050919050565b600082825260208201905092915050565b600082825260208201905092915050565b600081905092915050565b600082825260208201905092915050565b600082825260208201905092915050565b600081905092915050565b6000613cfb82613d4c565b9050919050565b6000613d0d82613d4c565b9050919050565b60008115159050919050565b60007fffffffff0000000000000000000000000000000000000000000000000000000082169050919050565b600073ffffffffffffffffffffffffffffffffffffffff82169050919050565b6000819050919050565b6000613d8182613d88565b9050919050565b6000613d9382613d9a565b9050919050565b6000613da582613d4c565b9050919050565b82818337600083830152505050565b60005b83811015613dd9578082015181840152602081019050613dbe565b83811115613de8576000848401525b50505050565b6000601f19601f8301169050919050565b613e0881613cf0565b8114613e1357600080fd5b50565b613e1f81613d14565b8114613e2a57600080fd5b50565b613e3681613d20565b8114613e4157600080fd5b50565b613e4d81613d6c565b8114613e5857600080fd5b5056fe4552433732313a207472616e7366657220746f206e6f6e20455243373231526563656976657220696d706c656d656e7465724552433732313a206f776e657220717565727920666f72206e6f6e6578697374656e7420746f6b656ea2646970667358221220bceeaf3bc1252aa0dd05f16cb20965edd5c185197780cffc027acb2e2dac690e64736f6c634300060c0033",
  "immutableReferences": {},
  "source": "// contracts/Coupon.sol\n// SPDX-License-Identifier: MIT\npragma solidity ^0.6.0;\npragma experimental ABIEncoderV2;\n\nimport \"@openzeppelin/contracts/token/ERC721/ERC721.sol\";\nimport \"@openzeppelin/contracts/utils/Counters.sol\";\n\n// Import Ownable from the OpenZeppelin Contracts library\nimport \"@openzeppelin/contracts/access/Ownable.sol\";\n\ncontract Coupon is Ownable, ERC721 {\n    using Counters for Counters.Counter;\n    Counters.Counter private _tokenIds;\n\n    struct CouponItem { \n        uint256 tokenId;\n        string description;\n        string expiryDate;\n        uint value;\n        bool redeemed;\n    }\n    \n    mapping (uint256 => CouponItem) public coupons;\n\n    constructor() public ERC721(\"Coupon\", \"CPN\") {}\n\n    function awardCoupon(address customer, string memory tokenURI) public onlyOwner returns (uint256)\n    {\n        _tokenIds.increment();\n\n        uint256 newCouponId = _tokenIds.current();\n        _mint(customer, newCouponId);\n        _setTokenURI(newCouponId, tokenURI);\n\n        CouponItem memory c;\n        c = CouponItem(newCouponId,\"Cash Coupon\",\"2022-12-31\",50,false);\n\n        coupons[newCouponId] = c;\n\n        return newCouponId;\n    }\n\n    event redeemCouponEvent(address customer, uint256 tokenId, string tokenURI);\n\n    function redeem(uint256 tokenId) public { \n        require(ownerOf(tokenId) == msg.sender, \"Not Owner\");\n        require(coupons[tokenId].redeemed == false, \"Already Redeemed\");\n\n        coupons[tokenId].redeemed = true;\n\n        emit redeemCouponEvent(msg.sender, tokenId, tokenURI(tokenId));\n    }\n\n    function getMyCoupons() public view returns (CouponItem[] memory) {\n        CouponItem [] memory myCoupons = new CouponItem[](balanceOf(msg.sender));\n        CouponItem storage c;\n        uint256 tokenId;\n\n        if (balanceOf(msg.sender) > 0) {\n            uint j = 0;\n            for (uint i = 0; i < totalSupply(); i++) {\n                tokenId = tokenByIndex(i);\n                if (ownerOf(tokenId) == msg.sender) {\n                    c = coupons[tokenId];\n                    myCoupons[j] = c;\n                    j += 1;\n                }\n            }\n        }\n\n        return myCoupons;\n    }\n}",
  "sourcePath": "/src/contracts/Coupon.sol",
  "compiler": {
    "name": "solc",
    "version": "0.6.12+commit.27d51765.Emscripten.clang"
  },
  "schemaVersion": "3.3.4",
  "updatedAt": "2021-03-07T11:36:59.124Z",
  "networkType": "ethereum",
  "devdoc": {
    "kind": "dev",
    "methods": {
      "approve(address,uint256)": {
        "details": "See {IERC721-approve}."
      },
      "balanceOf(address)": {
        "details": "See {IERC721-balanceOf}."
      },
      "baseURI()": {
        "details": "Returns the base URI set via {_setBaseURI}. This will be automatically added as a prefix in {tokenURI} to each token's URI, or to the token ID if no specific URI is set for that token ID."
      },
      "getApproved(uint256)": {
        "details": "See {IERC721-getApproved}."
      },
      "isApprovedForAll(address,address)": {
        "details": "See {IERC721-isApprovedForAll}."
      },
      "name()": {
        "details": "See {IERC721Metadata-name}."
      },
      "owner()": {
        "details": "Returns the address of the current owner."
      },
      "ownerOf(uint256)": {
        "details": "See {IERC721-ownerOf}."
      },
      "renounceOwnership()": {
        "details": "Leaves the contract without owner. It will not be possible to call `onlyOwner` functions anymore. Can only be called by the current owner. NOTE: Renouncing ownership will leave the contract without an owner, thereby removing any functionality that is only available to the owner."
      },
      "safeTransferFrom(address,address,uint256)": {
        "details": "See {IERC721-safeTransferFrom}."
      },
      "safeTransferFrom(address,address,uint256,bytes)": {
        "details": "See {IERC721-safeTransferFrom}."
      },
      "setApprovalForAll(address,bool)": {
        "details": "See {IERC721-setApprovalForAll}."
      },
      "supportsInterface(bytes4)": {
        "details": "See {IERC165-supportsInterface}. Time complexity O(1), guaranteed to always use less than 30 000 gas."
      },
      "symbol()": {
        "details": "See {IERC721Metadata-symbol}."
      },
      "tokenByIndex(uint256)": {
        "details": "See {IERC721Enumerable-tokenByIndex}."
      },
      "tokenOfOwnerByIndex(address,uint256)": {
        "details": "See {IERC721Enumerable-tokenOfOwnerByIndex}."
      },
      "tokenURI(uint256)": {
        "details": "See {IERC721Metadata-tokenURI}."
      },
      "totalSupply()": {
        "details": "See {IERC721Enumerable-totalSupply}."
      },
      "transferFrom(address,address,uint256)": {
        "details": "See {IERC721-transferFrom}."
      },
      "transferOwnership(address)": {
        "details": "Transfers ownership of the contract to a new account (`newOwner`). Can only be called by the current owner."
      }
    },
    "version": 1
  },
  "userdoc": {
    "kind": "user",
    "methods": {},
    "version": 1
  }
}