{
  "contractName": "Coupon",
  "abi": [
    {
      "inputs": [],
      "stateMutability": "nonpayable",
      "type": "constructor"
    },
    {
      "anonymous": false,
      "inputs": [
        {
          "indexed": true,
          "internalType": "address",
          "name": "owner",
          "type": "address"
        },
        {
          "indexed": true,
          "internalType": "address",
          "name": "approved",
          "type": "address"
        },
        {
          "indexed": true,
          "internalType": "uint256",
          "name": "tokenId",
          "type": "uint256"
        }
      ],
      "name": "Approval",
      "type": "event"
    },
    {
      "anonymous": false,
      "inputs": [
        {
          "indexed": true,
          "internalType": "address",
          "name": "owner",
          "type": "address"
        },
        {
          "indexed": true,
          "internalType": "address",
          "name": "operator",
          "type": "address"
        },
        {
          "indexed": false,
          "internalType": "bool",
          "name": "approved",
          "type": "bool"
        }
      ],
      "name": "ApprovalForAll",
      "type": "event"
    },
    {
      "anonymous": false,
      "inputs": [
        {
          "indexed": true,
          "internalType": "address",
          "name": "previousOwner",
          "type": "address"
        },
        {
          "indexed": true,
          "internalType": "address",
          "name": "newOwner",
          "type": "address"
        }
      ],
      "name": "OwnershipTransferred",
      "type": "event"
    },
    {
      "anonymous": false,
      "inputs": [
        {
          "indexed": true,
          "internalType": "address",
          "name": "from",
          "type": "address"
        },
        {
          "indexed": true,
          "internalType": "address",
          "name": "to",
          "type": "address"
        },
        {
          "indexed": true,
          "internalType": "uint256",
          "name": "tokenId",
          "type": "uint256"
        }
      ],
      "name": "Transfer",
      "type": "event"
    },
    {
      "anonymous": false,
      "inputs": [
        {
          "indexed": false,
          "internalType": "address",
          "name": "customer",
          "type": "address"
        },
        {
          "indexed": false,
          "internalType": "uint256",
          "name": "tokenId",
          "type": "uint256"
        },
        {
          "indexed": false,
          "internalType": "string",
          "name": "tokenURI",
          "type": "string"
        }
      ],
      "name": "redeemCouponEvent",
      "type": "event"
    },
    {
      "inputs": [
        {
          "internalType": "address",
          "name": "to",
          "type": "address"
        },
        {
          "internalType": "uint256",
          "name": "tokenId",
          "type": "uint256"
        }
      ],
      "name": "approve",
      "outputs": [],
      "stateMutability": "nonpayable",
      "type": "function"
    },
    {
      "inputs": [
        {
          "internalType": "address",
          "name": "owner",
          "type": "address"
        }
      ],
      "name": "balanceOf",
      "outputs": [
        {
          "internalType": "uint256",
          "name": "",
          "type": "uint256"
        }
      ],
      "stateMutability": "view",
      "type": "function",
      "constant": true
    },
    {
      "inputs": [],
      "name": "baseURI",
      "outputs": [
        {
          "internalType": "string",
          "name": "",
          "type": "string"
        }
      ],
      "stateMutability": "view",
      "type": "function",
      "constant": true
    },
    {
      "inputs": [
        {
          "internalType": "uint256",
          "name": "tokenId",
          "type": "uint256"
        }
      ],
      "name": "getApproved",
      "outputs": [
        {
          "internalType": "address",
          "name": "",
          "type": "address"
        }
      ],
      "stateMutability": "view",
      "type": "function",
      "constant": true
    },
    {
      "inputs": [
        {
          "internalType": "address",
          "name": "owner",
          "type": "address"
        },
        {
          "internalType": "address",
          "name": "operator",
          "type": "address"
        }
      ],
      "name": "isApprovedForAll",
      "outputs": [
        {
          "internalType": "bool",
          "name": "",
          "type": "bool"
        }
      ],
      "stateMutability": "view",
      "type": "function",
      "constant": true
    },
    {
      "inputs": [],
      "name": "name",
      "outputs": [
        {
          "internalType": "string",
          "name": "",
          "type": "string"
        }
      ],
      "stateMutability": "view",
      "type": "function",
      "constant": true
    },
    {
      "inputs": [],
      "name": "owner",
      "outputs": [
        {
          "internalType": "address",
          "name": "",
          "type": "address"
        }
      ],
      "stateMutability": "view",
      "type": "function",
      "constant": true
    },
    {
      "inputs": [
        {
          "internalType": "uint256",
          "name": "tokenId",
          "type": "uint256"
        }
      ],
      "name": "ownerOf",
      "outputs": [
        {
          "internalType": "address",
          "name": "",
          "type": "address"
        }
      ],
      "stateMutability": "view",
      "type": "function",
      "constant": true
    },
    {
      "inputs": [
        {
          "internalType": "uint256",
          "name": "",
          "type": "uint256"
        }
      ],
      "name": "redeemed",
      "outputs": [
        {
          "internalType": "bool",
          "name": "",
          "type": "bool"
        }
      ],
      "stateMutability": "view",
      "type": "function",
      "constant": true
    },
    {
      "inputs": [],
      "name": "renounceOwnership",
      "outputs": [],
      "stateMutability": "nonpayable",
      "type": "function"
    },
    {
      "inputs": [
        {
          "internalType": "address",
          "name": "from",
          "type": "address"
        },
        {
          "internalType": "address",
          "name": "to",
          "type": "address"
        },
        {
          "internalType": "uint256",
          "name": "tokenId",
          "type": "uint256"
        }
      ],
      "name": "safeTransferFrom",
      "outputs": [],
      "stateMutability": "nonpayable",
      "type": "function"
    },
    {
      "inputs": [
        {
          "internalType": "address",
          "name": "from",
          "type": "address"
        },
        {
          "internalType": "address",
          "name": "to",
          "type": "address"
        },
        {
          "internalType": "uint256",
          "name": "tokenId",
          "type": "uint256"
        },
        {
          "internalType": "bytes",
          "name": "_data",
          "type": "bytes"
        }
      ],
      "name": "safeTransferFrom",
      "outputs": [],
      "stateMutability": "nonpayable",
      "type": "function"
    },
    {
      "inputs": [
        {
          "internalType": "address",
          "name": "operator",
          "type": "address"
        },
        {
          "internalType": "bool",
          "name": "approved",
          "type": "bool"
        }
      ],
      "name": "setApprovalForAll",
      "outputs": [],
      "stateMutability": "nonpayable",
      "type": "function"
    },
    {
      "inputs": [
        {
          "internalType": "bytes4",
          "name": "interfaceId",
          "type": "bytes4"
        }
      ],
      "name": "supportsInterface",
      "outputs": [
        {
          "internalType": "bool",
          "name": "",
          "type": "bool"
        }
      ],
      "stateMutability": "view",
      "type": "function",
      "constant": true
    },
    {
      "inputs": [],
      "name": "symbol",
      "outputs": [
        {
          "internalType": "string",
          "name": "",
          "type": "string"
        }
      ],
      "stateMutability": "view",
      "type": "function",
      "constant": true
    },
    {
      "inputs": [
        {
          "internalType": "uint256",
          "name": "index",
          "type": "uint256"
        }
      ],
      "name": "tokenByIndex",
      "outputs": [
        {
          "internalType": "uint256",
          "name": "",
          "type": "uint256"
        }
      ],
      "stateMutability": "view",
      "type": "function",
      "constant": true
    },
    {
      "inputs": [
        {
          "internalType": "address",
          "name": "owner",
          "type": "address"
        },
        {
          "internalType": "uint256",
          "name": "index",
          "type": "uint256"
        }
      ],
      "name": "tokenOfOwnerByIndex",
      "outputs": [
        {
          "internalType": "uint256",
          "name": "",
          "type": "uint256"
        }
      ],
      "stateMutability": "view",
      "type": "function",
      "constant": true
    },
    {
      "inputs": [
        {
          "internalType": "uint256",
          "name": "tokenId",
          "type": "uint256"
        }
      ],
      "name": "tokenURI",
      "outputs": [
        {
          "internalType": "string",
          "name": "",
          "type": "string"
        }
      ],
      "stateMutability": "view",
      "type": "function",
      "constant": true
    },
    {
      "inputs": [],
      "name": "totalSupply",
      "outputs": [
        {
          "internalType": "uint256",
          "name": "",
          "type": "uint256"
        }
      ],
      "stateMutability": "view",
      "type": "function",
      "constant": true
    },
    {
      "inputs": [
        {
          "internalType": "address",
          "name": "from",
          "type": "address"
        },
        {
          "internalType": "address",
          "name": "to",
          "type": "address"
        },
        {
          "internalType": "uint256",
          "name": "tokenId",
          "type": "uint256"
        }
      ],
      "name": "transferFrom",
      "outputs": [],
      "stateMutability": "nonpayable",
      "type": "function"
    },
    {
      "inputs": [
        {
          "internalType": "address",
          "name": "newOwner",
          "type": "address"
        }
      ],
      "name": "transferOwnership",
      "outputs": [],
      "stateMutability": "nonpayable",
      "type": "function"
    },
    {
      "inputs": [
        {
          "internalType": "address",
          "name": "customer",
          "type": "address"
        },
        {
          "internalType": "string",
          "name": "tokenURI",
          "type": "string"
        }
      ],
      "name": "awardCoupon",
      "outputs": [
        {
          "internalType": "uint256",
          "name": "",
          "type": "uint256"
        }
      ],
      "stateMutability": "nonpayable",
      "type": "function"
    },
    {
      "inputs": [
        {
          "internalType": "uint256",
          "name": "tokenId",
          "type": "uint256"
        }
      ],
      "name": "redeemCoupon",
      "outputs": [],
      "stateMutability": "nonpayable",
      "type": "function"
    }
  ],
  "bytecode": "0x60806040523480156200001157600080fd5b506040518060400160405280600681526020017f436f75706f6e00000000000000000000000000000000000000000000000000008152506040518060400160405280600381526020017f43504e0000000000000000000000000000000000000000000000000000000000815250600062000090620001c860201b60201c565b9050806000806101000a81548173ffffffffffffffffffffffffffffffffffffffff021916908373ffffffffffffffffffffffffffffffffffffffff1602179055508073ffffffffffffffffffffffffffffffffffffffff16600073ffffffffffffffffffffffffffffffffffffffff167f8be0079c531659141344cd1fd0a4f28419497f9722a3daafe3b4186f6b6457e060405160405180910390a350620001466301ffc9a760e01b620001d060201b60201c565b81600790805190602001906200015e929190620002d9565b50806008908051906020019062000177929190620002d9565b50620001906380ac58cd60e01b620001d060201b60201c565b620001a8635b5e139f60e01b620001d060201b60201c565b620001c063780e9d6360e01b620001d060201b60201c565b50506200037f565b600033905090565b63ffffffff60e01b817bffffffffffffffffffffffffffffffffffffffffffffffffffffffff191614156200026d576040517f08c379a000000000000000000000000000000000000000000000000000000000815260040180806020018281038252601c8152602001807f4552433136353a20696e76616c696420696e746572666163652069640000000081525060200191505060405180910390fd5b6001806000837bffffffffffffffffffffffffffffffffffffffffffffffffffffffff19167bffffffffffffffffffffffffffffffffffffffffffffffffffffffff1916815260200190815260200160002060006101000a81548160ff02191690831515021790555050565b828054600181600116156101000203166002900490600052602060002090601f016020900481019282601f106200031c57805160ff19168380011785556200034d565b828001600101855582156200034d579182015b828111156200034c5782518255916020019190600101906200032f565b5b5090506200035c919062000360565b5090565b5b808211156200037b57600081600090555060010162000361565b5090565b6133d3806200038f6000396000f3fe608060405234801561001057600080fd5b506004361061014d5760003560e01c80636c0360eb116100c3578063a22cb4651161007c578063a22cb465146106e2578063b88d4fde14610732578063c87b56dd14610837578063cd0b0629146108de578063e985e9c5146109cd578063f2fde38b14610a475761014d565b80636c0360eb1461050257806370a0823114610585578063715018a6146105dd5780637ed0f1c1146105e75780638da5cb5b1461062b57806395d89b411461065f5761014d565b806323b872dd1161011557806323b872dd146102fc5780632f745c591461036a57806342842e0e146103cc5780634f6ccce71461043a5780634ffab34b1461047c5780636352211e146104aa5761014d565b806301ffc9a71461015257806306fdde03146101b5578063081812fc14610238578063095ea7b31461029057806318160ddd146102de575b600080fd5b61019d6004803603602081101561016857600080fd5b8101908080357bffffffffffffffffffffffffffffffffffffffffffffffffffffffff19169060200190929190505050610a8b565b60405180821515815260200191505060405180910390f35b6101bd610af3565b6040518080602001828103825283818151815260200191508051906020019080838360005b838110156101fd5780820151818401526020810190506101e2565b50505050905090810190601f16801561022a5780820380516001836020036101000a031916815260200191505b509250505060405180910390f35b6102646004803603602081101561024e57600080fd5b8101908080359060200190929190505050610b95565b604051808273ffffffffffffffffffffffffffffffffffffffff16815260200191505060405180910390f35b6102dc600480360360408110156102a657600080fd5b81019080803573ffffffffffffffffffffffffffffffffffffffff16906020019092919080359060200190929190505050610c30565b005b6102e6610d74565b6040518082815260200191505060405180910390f35b6103686004803603606081101561031257600080fd5b81019080803573ffffffffffffffffffffffffffffffffffffffff169060200190929190803573ffffffffffffffffffffffffffffffffffffffff16906020019092919080359060200190929190505050610d85565b005b6103b66004803603604081101561038057600080fd5b81019080803573ffffffffffffffffffffffffffffffffffffffff16906020019092919080359060200190929190505050610dfb565b6040518082815260200191505060405180910390f35b610438600480360360608110156103e257600080fd5b81019080803573ffffffffffffffffffffffffffffffffffffffff169060200190929190803573ffffffffffffffffffffffffffffffffffffffff16906020019092919080359060200190929190505050610e56565b005b6104666004803603602081101561045057600080fd5b8101908080359060200190929190505050610e76565b6040518082815260200191505060405180910390f35b6104a86004803603602081101561049257600080fd5b8101908080359060200190929190505050610e99565b005b6104d6600480360360208110156104c057600080fd5b81019080803590602001909291905050506110d5565b604051808273ffffffffffffffffffffffffffffffffffffffff16815260200191505060405180910390f35b61050a61110c565b6040518080602001828103825283818151815260200191508051906020019080838360005b8381101561054a57808201518184015260208101905061052f565b50505050905090810190601f1680156105775780820380516001836020036101000a031916815260200191505b509250505060405180910390f35b6105c76004803603602081101561059b57600080fd5b81019080803573ffffffffffffffffffffffffffffffffffffffff1690602001909291905050506111ae565b6040518082815260200191505060405180910390f35b6105e5611283565b005b610613600480360360208110156105fd57600080fd5b81019080803590602001909291905050506113f0565b60405180821515815260200191505060405180910390f35b610633611410565b604051808273ffffffffffffffffffffffffffffffffffffffff16815260200191505060405180910390f35b610667611439565b6040518080602001828103825283818151815260200191508051906020019080838360005b838110156106a757808201518184015260208101905061068c565b50505050905090810190601f1680156106d45780820380516001836020036101000a031916815260200191505b509250505060405180910390f35b610730600480360360408110156106f857600080fd5b81019080803573ffffffffffffffffffffffffffffffffffffffff1690602001909291908035151590602001909291905050506114db565b005b6108356004803603608081101561074857600080fd5b81019080803573ffffffffffffffffffffffffffffffffffffffff169060200190929190803573ffffffffffffffffffffffffffffffffffffffff16906020019092919080359060200190929190803590602001906401000000008111156107af57600080fd5b8201836020820111156107c157600080fd5b803590602001918460018302840111640100000000831117156107e357600080fd5b91908080601f016020809104026020016040519081016040528093929190818152602001838380828437600081840152601f19601f820116905080830192505050505050509192919290505050611691565b005b6108636004803603602081101561084d57600080fd5b8101908080359060200190929190505050611709565b6040518080602001828103825283818151815260200191508051906020019080838360005b838110156108a3578082015181840152602081019050610888565b50505050905090810190601f1680156108d05780820380516001836020036101000a031916815260200191505b509250505060405180910390f35b6109b7600480360360408110156108f457600080fd5b81019080803573ffffffffffffffffffffffffffffffffffffffff1690602001909291908035906020019064010000000081111561093157600080fd5b82018360208201111561094357600080fd5b8035906020019184600183028401116401000000008311171561096557600080fd5b91908080601f016020809104026020016040519081016040528093929190818152602001838380828437600081840152601f19601f8201169050808301925050505050505091929192905050506119da565b6040518082815260200191505060405180910390f35b610a2f600480360360408110156109e357600080fd5b81019080803573ffffffffffffffffffffffffffffffffffffffff169060200190929190803573ffffffffffffffffffffffffffffffffffffffff169060200190929190505050611aed565b60405180821515815260200191505060405180910390f35b610a8960048036036020811015610a5d57600080fd5b81019080803573ffffffffffffffffffffffffffffffffffffffff169060200190929190505050611b81565b005b600060016000837bffffffffffffffffffffffffffffffffffffffffffffffffffffffff19167bffffffffffffffffffffffffffffffffffffffffffffffffffffffff1916815260200190815260200160002060009054906101000a900460ff169050919050565b606060078054600181600116156101000203166002900480601f016020809104026020016040519081016040528092919081815260200182805460018160011615610100020316600290048015610b8b5780601f10610b6057610100808354040283529160200191610b8b565b820191906000526020600020905b815481529060010190602001808311610b6e57829003601f168201915b5050505050905090565b6000610ba082611d73565b610bf5576040517f08c379a000000000000000000000000000000000000000000000000000000000815260040180806020018281038252602c81526020018061329c602c913960400191505060405180910390fd5b6005600083815260200190815260200160002060009054906101000a900473ffffffffffffffffffffffffffffffffffffffff169050919050565b6000610c3b826110d5565b90508073ffffffffffffffffffffffffffffffffffffffff168373ffffffffffffffffffffffffffffffffffffffff161415610cc2576040517f08c379a000000000000000000000000000000000000000000000000000000000815260040180806020018281038252602181526020018061334c6021913960400191505060405180910390fd5b8073ffffffffffffffffffffffffffffffffffffffff16610ce1611d90565b73ffffffffffffffffffffffffffffffffffffffff161480610d105750610d0f81610d0a611d90565b611aed565b5b610d65576040517f08c379a00000000000000000000000000000000000000000000000000000000081526004018080602001828103825260388152602001806131ef6038913960400191505060405180910390fd5b610d6f8383611d98565b505050565b6000610d806003611e51565b905090565b610d96610d90611d90565b82611e66565b610deb576040517f08c379a000000000000000000000000000000000000000000000000000000000815260040180806020018281038252603181526020018061336d6031913960400191505060405180910390fd5b610df6838383611f5a565b505050565b6000610e4e82600260008673ffffffffffffffffffffffffffffffffffffffff1673ffffffffffffffffffffffffffffffffffffffff16815260200190815260200160002061219d90919063ffffffff16565b905092915050565b610e7183838360405180602001604052806000815250611691565b505050565b600080610e8d8360036121b790919063ffffffff16565b50905080915050919050565b3373ffffffffffffffffffffffffffffffffffffffff16610eb9826110d5565b73ffffffffffffffffffffffffffffffffffffffff1614610f42576040517f08c379a00000000000000000000000000000000000000000000000000000000081526004018080602001828103825260098152602001807f4e6f74204f776e6572000000000000000000000000000000000000000000000081525060200191505060405180910390fd5b60001515600c600083815260200190815260200160002060009054906101000a900460ff16151514610fdc576040517f08c379a00000000000000000000000000000000000000000000000000000000081526004018080602001828103825260108152602001807f416c72656164792052656465656d65640000000000000000000000000000000081525060200191505060405180910390fd5b6001600c600083815260200190815260200160002060006101000a81548160ff0219169083151502179055507fec84e9c0e8ec37c106eac6bb0248fe1c1fea07505f16d5c4b0f01d393fb6cfcf338261103484611709565b604051808473ffffffffffffffffffffffffffffffffffffffff16815260200183815260200180602001828103825283818151815260200191508051906020019080838360005b8381101561109657808201518184015260208101905061107b565b50505050905090810190601f1680156110c35780820380516001836020036101000a031916815260200191505b5094505050505060405180910390a150565b6000611105826040518060600160405280602981526020016132516029913960036121e39092919063ffffffff16565b9050919050565b6060600a8054600181600116156101000203166002900480601f0160208091040260200160405190810160405280929190818152602001828054600181600116156101000203166002900480156111a45780601f10611179576101008083540402835291602001916111a4565b820191906000526020600020905b81548152906001019060200180831161118757829003601f168201915b5050505050905090565b60008073ffffffffffffffffffffffffffffffffffffffff168273ffffffffffffffffffffffffffffffffffffffff161415611235576040517f08c379a000000000000000000000000000000000000000000000000000000000815260040180806020018281038252602a815260200180613227602a913960400191505060405180910390fd5b61127c600260008473ffffffffffffffffffffffffffffffffffffffff1673ffffffffffffffffffffffffffffffffffffffff168152602001908152602001600020612202565b9050919050565b61128b611d90565b73ffffffffffffffffffffffffffffffffffffffff166112a9611410565b73ffffffffffffffffffffffffffffffffffffffff1614611332576040517f08c379a00000000000000000000000000000000000000000000000000000000081526004018080602001828103825260208152602001807f4f776e61626c653a2063616c6c6572206973206e6f7420746865206f776e657281525060200191505060405180910390fd5b600073ffffffffffffffffffffffffffffffffffffffff1660008054906101000a900473ffffffffffffffffffffffffffffffffffffffff1673ffffffffffffffffffffffffffffffffffffffff167f8be0079c531659141344cd1fd0a4f28419497f9722a3daafe3b4186f6b6457e060405160405180910390a360008060006101000a81548173ffffffffffffffffffffffffffffffffffffffff021916908373ffffffffffffffffffffffffffffffffffffffff160217905550565b600c6020528060005260406000206000915054906101000a900460ff1681565b60008060009054906101000a900473ffffffffffffffffffffffffffffffffffffffff16905090565b606060088054600181600116156101000203166002900480601f0160208091040260200160405190810160405280929190818152602001828054600181600116156101000203166002900480156114d15780601f106114a6576101008083540402835291602001916114d1565b820191906000526020600020905b8154815290600101906020018083116114b457829003601f168201915b5050505050905090565b6114e3611d90565b73ffffffffffffffffffffffffffffffffffffffff168273ffffffffffffffffffffffffffffffffffffffff161415611584576040517f08c379a00000000000000000000000000000000000000000000000000000000081526004018080602001828103825260198152602001807f4552433732313a20617070726f766520746f2063616c6c65720000000000000081525060200191505060405180910390fd5b8060066000611591611d90565b73ffffffffffffffffffffffffffffffffffffffff1673ffffffffffffffffffffffffffffffffffffffff16815260200190815260200160002060008473ffffffffffffffffffffffffffffffffffffffff1673ffffffffffffffffffffffffffffffffffffffff16815260200190815260200160002060006101000a81548160ff0219169083151502179055508173ffffffffffffffffffffffffffffffffffffffff1661163e611d90565b73ffffffffffffffffffffffffffffffffffffffff167f17307eab39ab6107e8899845ad3d59bd9653f200f220920489ca2b5937696c318360405180821515815260200191505060405180910390a35050565b6116a261169c611d90565b83611e66565b6116f7576040517f08c379a000000000000000000000000000000000000000000000000000000000815260040180806020018281038252603181526020018061336d6031913960400191505060405180910390fd5b61170384848484612217565b50505050565b606061171482611d73565b611769576040517f08c379a000000000000000000000000000000000000000000000000000000000815260040180806020018281038252602f81526020018061331d602f913960400191505060405180910390fd5b6060600960008481526020019081526020016000208054600181600116156101000203166002900480601f0160208091040260200160405190810160405280929190818152602001828054600181600116156101000203166002900480156118125780601f106117e757610100808354040283529160200191611812565b820191906000526020600020905b8154815290600101906020018083116117f557829003601f168201915b50505050509050606061182361110c565b90506000815114156118395781925050506119d5565b60008251111561190a5780826040516020018083805190602001908083835b6020831061187b5780518252602082019150602081019050602083039250611858565b6001836020036101000a03801982511681845116808217855250505050505090500182805190602001908083835b602083106118cc57805182526020820191506020810190506020830392506118a9565b6001836020036101000a03801982511681845116808217855250505050505090500192505050604051602081830303815290604052925050506119d5565b8061191485612289565b6040516020018083805190602001908083835b6020831061194a5780518252602082019150602081019050602083039250611927565b6001836020036101000a03801982511681845116808217855250505050505090500182805190602001908083835b6020831061199b5780518252602082019150602081019050602083039250611978565b6001836020036101000a03801982511681845116808217855250505050505090500192505050604051602081830303815290604052925050505b919050565b60006119e4611d90565b73ffffffffffffffffffffffffffffffffffffffff16611a02611410565b73ffffffffffffffffffffffffffffffffffffffff1614611a8b576040517f08c379a00000000000000000000000000000000000000000000000000000000081526004018080602001828103825260208152602001807f4f776e61626c653a2063616c6c6572206973206e6f7420746865206f776e657281525060200191505060405180910390fd5b611a95600b6123d0565b6000611aa1600b6123e6565b9050611aad84826123f4565b611ab781846125e8565b6000600c600083815260200190815260200160002060006101000a81548160ff0219169083151502179055508091505092915050565b6000600660008473ffffffffffffffffffffffffffffffffffffffff1673ffffffffffffffffffffffffffffffffffffffff16815260200190815260200160002060008373ffffffffffffffffffffffffffffffffffffffff1673ffffffffffffffffffffffffffffffffffffffff16815260200190815260200160002060009054906101000a900460ff16905092915050565b611b89611d90565b73ffffffffffffffffffffffffffffffffffffffff16611ba7611410565b73ffffffffffffffffffffffffffffffffffffffff1614611c30576040517f08c379a00000000000000000000000000000000000000000000000000000000081526004018080602001828103825260208152602001807f4f776e61626c653a2063616c6c6572206973206e6f7420746865206f776e657281525060200191505060405180910390fd5b600073ffffffffffffffffffffffffffffffffffffffff168173ffffffffffffffffffffffffffffffffffffffff161415611cb6576040517f08c379a00000000000000000000000000000000000000000000000000000000081526004018080602001828103825260268152602001806131536026913960400191505060405180910390fd5b8073ffffffffffffffffffffffffffffffffffffffff1660008054906101000a900473ffffffffffffffffffffffffffffffffffffffff1673ffffffffffffffffffffffffffffffffffffffff167f8be0079c531659141344cd1fd0a4f28419497f9722a3daafe3b4186f6b6457e060405160405180910390a3806000806101000a81548173ffffffffffffffffffffffffffffffffffffffff021916908373ffffffffffffffffffffffffffffffffffffffff16021790555050565b6000611d8982600361267290919063ffffffff16565b9050919050565b600033905090565b816005600083815260200190815260200160002060006101000a81548173ffffffffffffffffffffffffffffffffffffffff021916908373ffffffffffffffffffffffffffffffffffffffff160217905550808273ffffffffffffffffffffffffffffffffffffffff16611e0b836110d5565b73ffffffffffffffffffffffffffffffffffffffff167f8c5be1e5ebec7d5bd14f71427d1e84f3dd0314c0f7b2291e5b200ac8c7c3b92560405160405180910390a45050565b6000611e5f8260000161268c565b9050919050565b6000611e7182611d73565b611ec6576040517f08c379a000000000000000000000000000000000000000000000000000000000815260040180806020018281038252602c8152602001806131c3602c913960400191505060405180910390fd5b6000611ed1836110d5565b90508073ffffffffffffffffffffffffffffffffffffffff168473ffffffffffffffffffffffffffffffffffffffff161480611f4057508373ffffffffffffffffffffffffffffffffffffffff16611f2884610b95565b73ffffffffffffffffffffffffffffffffffffffff16145b80611f515750611f508185611aed565b5b91505092915050565b8273ffffffffffffffffffffffffffffffffffffffff16611f7a826110d5565b73ffffffffffffffffffffffffffffffffffffffff1614611fe6576040517f08c379a00000000000000000000000000000000000000000000000000000000081526004018080602001828103825260298152602001806132f46029913960400191505060405180910390fd5b600073ffffffffffffffffffffffffffffffffffffffff168273ffffffffffffffffffffffffffffffffffffffff16141561206c576040517f08c379a00000000000000000000000000000000000000000000000000000000081526004018080602001828103825260248152602001806131796024913960400191505060405180910390fd5b61207783838361269d565b612082600082611d98565b6120d381600260008673ffffffffffffffffffffffffffffffffffffffff1673ffffffffffffffffffffffffffffffffffffffff1681526020019081526020016000206126a290919063ffffffff16565b5061212581600260008573ffffffffffffffffffffffffffffffffffffffff1673ffffffffffffffffffffffffffffffffffffffff1681526020019081526020016000206126bc90919063ffffffff16565b5061213c818360036126d69092919063ffffffff16565b50808273ffffffffffffffffffffffffffffffffffffffff168473ffffffffffffffffffffffffffffffffffffffff167fddf252ad1be2c89b69c2b068fc378daa952ba7f163c4a11628f55a4df523b3ef60405160405180910390a4505050565b60006121ac836000018361270b565b60001c905092915050565b6000806000806121ca866000018661278e565b915091508160001c8160001c9350935050509250929050565b60006121f6846000018460001b84612827565b60001c90509392505050565b60006122108260000161291d565b9050919050565b612222848484611f5a565b61222e8484848461292e565b612283576040517f08c379a00000000000000000000000000000000000000000000000000000000081526004018080602001828103825260328152602001806131216032913960400191505060405180910390fd5b50505050565b606060008214156122d1576040518060400160405280600181526020017f300000000000000000000000000000000000000000000000000000000000000081525090506123cb565b600082905060005b600082146122fb578080600101915050600a82816122f357fe5b0491506122d9565b60608167ffffffffffffffff8111801561231457600080fd5b506040519080825280601f01601f1916602001820160405280156123475781602001600182028036833780820191505090505b50905060006001830390508593505b600084146123c357600a848161236857fe5b0660300160f81b8282806001900393508151811061238257fe5b60200101907effffffffffffffffffffffffffffffffffffffffffffffffffffffffffffff1916908160001a905350600a84816123bb57fe5b049350612356565b819450505050505b919050565b6001816000016000828254019250508190555050565b600081600001549050919050565b600073ffffffffffffffffffffffffffffffffffffffff168273ffffffffffffffffffffffffffffffffffffffff161415612497576040517f08c379a00000000000000000000000000000000000000000000000000000000081526004018080602001828103825260208152602001807f4552433732313a206d696e7420746f20746865207a65726f206164647265737381525060200191505060405180910390fd5b6124a081611d73565b15612513576040517f08c379a000000000000000000000000000000000000000000000000000000000815260040180806020018281038252601c8152602001807f4552433732313a20746f6b656e20616c7265616479206d696e7465640000000081525060200191505060405180910390fd5b61251f6000838361269d565b61257081600260008573ffffffffffffffffffffffffffffffffffffffff1673ffffffffffffffffffffffffffffffffffffffff1681526020019081526020016000206126bc90919063ffffffff16565b50612587818360036126d69092919063ffffffff16565b50808273ffffffffffffffffffffffffffffffffffffffff16600073ffffffffffffffffffffffffffffffffffffffff167fddf252ad1be2c89b69c2b068fc378daa952ba7f163c4a11628f55a4df523b3ef60405160405180910390a45050565b6125f182611d73565b612646576040517f08c379a000000000000000000000000000000000000000000000000000000000815260040180806020018281038252602c8152602001806132c8602c913960400191505060405180910390fd5b8060096000848152602001908152602001600020908051906020019061266d929190613061565b505050565b6000612684836000018360001b612b47565b905092915050565b600081600001805490509050919050565b505050565b60006126b4836000018360001b612b6a565b905092915050565b60006126ce836000018360001b612c52565b905092915050565b6000612702846000018460001b8473ffffffffffffffffffffffffffffffffffffffff1660001b612cc2565b90509392505050565b60008183600001805490501161276c576040517f08c379a00000000000000000000000000000000000000000000000000000000081526004018080602001828103825260228152602001806130ff6022913960400191505060405180910390fd5b82600001828154811061277b57fe5b9060005260206000200154905092915050565b600080828460000180549050116127f0576040517f08c379a000000000000000000000000000000000000000000000000000000000815260040180806020018281038252602281526020018061327a6022913960400191505060405180910390fd5b600084600001848154811061280157fe5b906000526020600020906002020190508060000154816001015492509250509250929050565b600080846001016000858152602001908152602001600020549050600081141583906128ee576040517f08c379a00000000000000000000000000000000000000000000000000000000081526004018080602001828103825283818151815260200191508051906020019080838360005b838110156128b3578082015181840152602081019050612898565b50505050905090810190601f1680156128e05780820380516001836020036101000a031916815260200191505b509250505060405180910390fd5b5084600001600182038154811061290157fe5b9060005260206000209060020201600101549150509392505050565b600081600001805490509050919050565b600061294f8473ffffffffffffffffffffffffffffffffffffffff16612d9e565b61295c5760019050612b3f565b6060612ac663150b7a0260e01b612971611d90565b888787604051602401808573ffffffffffffffffffffffffffffffffffffffff1681526020018473ffffffffffffffffffffffffffffffffffffffff16815260200183815260200180602001828103825283818151815260200191508051906020019080838360005b838110156129f55780820151818401526020810190506129da565b50505050905090810190601f168015612a225780820380516001836020036101000a031916815260200191505b5095505050505050604051602081830303815290604052907bffffffffffffffffffffffffffffffffffffffffffffffffffffffff19166020820180517bffffffffffffffffffffffffffffffffffffffffffffffffffffffff8381831617835250505050604051806060016040528060328152602001613121603291398773ffffffffffffffffffffffffffffffffffffffff16612db19092919063ffffffff16565b90506000818060200190516020811015612adf57600080fd5b8101908080519060200190929190505050905063150b7a0260e01b7bffffffffffffffffffffffffffffffffffffffffffffffffffffffff1916817bffffffffffffffffffffffffffffffffffffffffffffffffffffffff191614925050505b949350505050565b600080836001016000848152602001908152602001600020541415905092915050565b60008083600101600084815260200190815260200160002054905060008114612c465760006001820390506000600186600001805490500390506000866000018281548110612bb557fe5b9060005260206000200154905080876000018481548110612bd257fe5b9060005260206000200181905550600183018760010160008381526020019081526020016000208190555086600001805480612c0a57fe5b60019003818190600052602060002001600090559055866001016000878152602001908152602001600020600090556001945050505050612c4c565b60009150505b92915050565b6000612c5e8383612dc9565b612cb7578260000182908060018154018082558091505060019003906000526020600020016000909190919091505582600001805490508360010160008481526020019081526020016000208190555060019050612cbc565b600090505b92915050565b6000808460010160008581526020019081526020016000205490506000811415612d6957846000016040518060400160405280868152602001858152509080600181540180825580915050600190039060005260206000209060020201600090919091909150600082015181600001556020820151816001015550508460000180549050856001016000868152602001908152602001600020819055506001915050612d97565b82856000016001830381548110612d7c57fe5b90600052602060002090600202016001018190555060009150505b9392505050565b600080823b905060008111915050919050565b6060612dc08484600085612dec565b90509392505050565b600080836001016000848152602001908152602001600020541415905092915050565b606082471015612e47576040517f08c379a000000000000000000000000000000000000000000000000000000000815260040180806020018281038252602681526020018061319d6026913960400191505060405180910390fd5b612e5085612d9e565b612ec2576040517f08c379a000000000000000000000000000000000000000000000000000000000815260040180806020018281038252601d8152602001807f416464726573733a2063616c6c20746f206e6f6e2d636f6e747261637400000081525060200191505060405180910390fd5b600060608673ffffffffffffffffffffffffffffffffffffffff1685876040518082805190602001908083835b60208310612f125780518252602082019150602081019050602083039250612eef565b6001836020036101000a03801982511681845116808217855250505050505090500191505060006040518083038185875af1925050503d8060008114612f74576040519150601f19603f3d011682016040523d82523d6000602084013e612f79565b606091505b5091509150612f89828286612f95565b92505050949350505050565b60608315612fa55782905061305a565b600083511115612fb85782518084602001fd5b816040517f08c379a00000000000000000000000000000000000000000000000000000000081526004018080602001828103825283818151815260200191508051906020019080838360005b8381101561301f578082015181840152602081019050613004565b50505050905090810190601f16801561304c5780820380516001836020036101000a031916815260200191505b509250505060405180910390fd5b9392505050565b828054600181600116156101000203166002900490600052602060002090601f016020900481019282601f106130a257805160ff19168380011785556130d0565b828001600101855582156130d0579182015b828111156130cf5782518255916020019190600101906130b4565b5b5090506130dd91906130e1565b5090565b5b808211156130fa5760008160009055506001016130e2565b509056fe456e756d657261626c655365743a20696e646578206f7574206f6620626f756e64734552433732313a207472616e7366657220746f206e6f6e20455243373231526563656976657220696d706c656d656e7465724f776e61626c653a206e6577206f776e657220697320746865207a65726f20616464726573734552433732313a207472616e7366657220746f20746865207a65726f2061646472657373416464726573733a20696e73756666696369656e742062616c616e636520666f722063616c6c4552433732313a206f70657261746f7220717565727920666f72206e6f6e6578697374656e7420746f6b656e4552433732313a20617070726f76652063616c6c6572206973206e6f74206f776e6572206e6f7220617070726f76656420666f7220616c6c4552433732313a2062616c616e636520717565727920666f7220746865207a65726f20616464726573734552433732313a206f776e657220717565727920666f72206e6f6e6578697374656e7420746f6b656e456e756d657261626c654d61703a20696e646578206f7574206f6620626f756e64734552433732313a20617070726f76656420717565727920666f72206e6f6e6578697374656e7420746f6b656e4552433732314d657461646174613a2055524920736574206f66206e6f6e6578697374656e7420746f6b656e4552433732313a207472616e73666572206f6620746f6b656e2074686174206973206e6f74206f776e4552433732314d657461646174613a2055524920717565727920666f72206e6f6e6578697374656e7420746f6b656e4552433732313a20617070726f76616c20746f2063757272656e74206f776e65724552433732313a207472616e736665722063616c6c6572206973206e6f74206f776e6572206e6f7220617070726f766564a26469706673582212206ab187336dd856ebf88a8716d2485e25c9cd4f07f5972da5b83b69813e7b454d64736f6c634300060c0033",
  "immutableReferences": {},
  "source": "// contracts/Coupon.sol\n// SPDX-License-Identifier: MIT\npragma solidity ^0.6.0;\n\nimport \"@openzeppelin/contracts/token/ERC721/ERC721.sol\";\nimport \"@openzeppelin/contracts/utils/Counters.sol\";\n\n// Import Ownable from the OpenZeppelin Contracts library\nimport \"@openzeppelin/contracts/access/Ownable.sol\";\n\ncontract Coupon is Ownable, ERC721 {\n    using Counters for Counters.Counter;\n    Counters.Counter private _tokenIds;\n\n    mapping (uint256 => bool) public redeemed;\n\n    constructor() public ERC721(\"Coupon\", \"CPN\") {}\n\n    function awardCoupon(address customer, string memory tokenURI) public onlyOwner returns (uint256)\n    {\n        _tokenIds.increment();\n\n        uint256 newCouponId = _tokenIds.current();\n        _mint(customer, newCouponId);\n        _setTokenURI(newCouponId, tokenURI);\n\n        redeemed[newCouponId] = false;\n\n        return newCouponId;\n    }\n\n    event redeemCouponEvent(address customer, uint256 tokenId, string tokenURI);\n\n    function redeemCoupon(uint256 tokenId) public { \n        require(ownerOf(tokenId) == msg.sender, \"Not Owner\");\n        require(redeemed[tokenId] == false, \"Already Redeemed\");\n\n        redeemed[tokenId] = true;\n\n        emit redeemCouponEvent(msg.sender, tokenId, tokenURI(tokenId));\n    }\n}",
  "sourcePath": "/src/contracts/Coupon.sol",
  "compiler": {
    "name": "solc",
    "version": "0.6.12+commit.27d51765.Emscripten.clang"
  },
  "schemaVersion": "3.3.4",
  "updatedAt": "2021-03-05T08:13:37.132Z",
  "networkType": "ethereum",
  "devdoc": {
    "kind": "dev",
    "methods": {
      "approve(address,uint256)": {
        "details": "See {IERC721-approve}."
      },
      "balanceOf(address)": {
        "details": "See {IERC721-balanceOf}."
      },
      "baseURI()": {
        "details": "Returns the base URI set via {_setBaseURI}. This will be automatically added as a prefix in {tokenURI} to each token's URI, or to the token ID if no specific URI is set for that token ID."
      },
      "getApproved(uint256)": {
        "details": "See {IERC721-getApproved}."
      },
      "isApprovedForAll(address,address)": {
        "details": "See {IERC721-isApprovedForAll}."
      },
      "name()": {
        "details": "See {IERC721Metadata-name}."
      },
      "owner()": {
        "details": "Returns the address of the current owner."
      },
      "ownerOf(uint256)": {
        "details": "See {IERC721-ownerOf}."
      },
      "renounceOwnership()": {
        "details": "Leaves the contract without owner. It will not be possible to call `onlyOwner` functions anymore. Can only be called by the current owner. NOTE: Renouncing ownership will leave the contract without an owner, thereby removing any functionality that is only available to the owner."
      },
      "safeTransferFrom(address,address,uint256)": {
        "details": "See {IERC721-safeTransferFrom}."
      },
      "safeTransferFrom(address,address,uint256,bytes)": {
        "details": "See {IERC721-safeTransferFrom}."
      },
      "setApprovalForAll(address,bool)": {
        "details": "See {IERC721-setApprovalForAll}."
      },
      "supportsInterface(bytes4)": {
        "details": "See {IERC165-supportsInterface}. Time complexity O(1), guaranteed to always use less than 30 000 gas."
      },
      "symbol()": {
        "details": "See {IERC721Metadata-symbol}."
      },
      "tokenByIndex(uint256)": {
        "details": "See {IERC721Enumerable-tokenByIndex}."
      },
      "tokenOfOwnerByIndex(address,uint256)": {
        "details": "See {IERC721Enumerable-tokenOfOwnerByIndex}."
      },
      "tokenURI(uint256)": {
        "details": "See {IERC721Metadata-tokenURI}."
      },
      "totalSupply()": {
        "details": "See {IERC721Enumerable-totalSupply}."
      },
      "transferFrom(address,address,uint256)": {
        "details": "See {IERC721-transferFrom}."
      },
      "transferOwnership(address)": {
        "details": "Transfers ownership of the contract to a new account (`newOwner`). Can only be called by the current owner."
      }
    },
    "version": 1
  },
  "userdoc": {
    "kind": "user",
    "methods": {},
    "version": 1
  }
}