{
  "contractName": "Coupon",
  "abi": [
    {
      "inputs": [],
      "stateMutability": "nonpayable",
      "type": "constructor"
    },
    {
      "anonymous": false,
      "inputs": [
        {
          "indexed": true,
          "internalType": "address",
          "name": "owner",
          "type": "address"
        },
        {
          "indexed": true,
          "internalType": "address",
          "name": "approved",
          "type": "address"
        },
        {
          "indexed": true,
          "internalType": "uint256",
          "name": "tokenId",
          "type": "uint256"
        }
      ],
      "name": "Approval",
      "type": "event"
    },
    {
      "anonymous": false,
      "inputs": [
        {
          "indexed": true,
          "internalType": "address",
          "name": "owner",
          "type": "address"
        },
        {
          "indexed": true,
          "internalType": "address",
          "name": "operator",
          "type": "address"
        },
        {
          "indexed": false,
          "internalType": "bool",
          "name": "approved",
          "type": "bool"
        }
      ],
      "name": "ApprovalForAll",
      "type": "event"
    },
    {
      "anonymous": false,
      "inputs": [
        {
          "indexed": true,
          "internalType": "address",
          "name": "previousOwner",
          "type": "address"
        },
        {
          "indexed": true,
          "internalType": "address",
          "name": "newOwner",
          "type": "address"
        }
      ],
      "name": "OwnershipTransferred",
      "type": "event"
    },
    {
      "anonymous": false,
      "inputs": [
        {
          "indexed": true,
          "internalType": "address",
          "name": "from",
          "type": "address"
        },
        {
          "indexed": true,
          "internalType": "address",
          "name": "to",
          "type": "address"
        },
        {
          "indexed": true,
          "internalType": "uint256",
          "name": "tokenId",
          "type": "uint256"
        }
      ],
      "name": "Transfer",
      "type": "event"
    },
    {
      "anonymous": false,
      "inputs": [
        {
          "indexed": false,
          "internalType": "address",
          "name": "customer",
          "type": "address"
        },
        {
          "indexed": false,
          "internalType": "uint256",
          "name": "tokenId",
          "type": "uint256"
        },
        {
          "indexed": false,
          "internalType": "string",
          "name": "tokenURI",
          "type": "string"
        },
        {
          "indexed": false,
          "internalType": "uint256",
          "name": "blockTimeStamp",
          "type": "uint256"
        }
      ],
      "name": "awardCouponEvent",
      "type": "event"
    },
    {
      "anonymous": false,
      "inputs": [
        {
          "indexed": false,
          "internalType": "address",
          "name": "customer",
          "type": "address"
        },
        {
          "indexed": false,
          "internalType": "uint256",
          "name": "tokenId",
          "type": "uint256"
        },
        {
          "indexed": false,
          "internalType": "string",
          "name": "tokenURI",
          "type": "string"
        },
        {
          "indexed": false,
          "internalType": "uint256",
          "name": "blockTimeStamp",
          "type": "uint256"
        }
      ],
      "name": "redeemCouponEvent",
      "type": "event"
    },
    {
      "inputs": [
        {
          "internalType": "address",
          "name": "to",
          "type": "address"
        },
        {
          "internalType": "uint256",
          "name": "tokenId",
          "type": "uint256"
        }
      ],
      "name": "approve",
      "outputs": [],
      "stateMutability": "nonpayable",
      "type": "function"
    },
    {
      "inputs": [
        {
          "internalType": "address",
          "name": "owner",
          "type": "address"
        }
      ],
      "name": "balanceOf",
      "outputs": [
        {
          "internalType": "uint256",
          "name": "",
          "type": "uint256"
        }
      ],
      "stateMutability": "view",
      "type": "function",
      "constant": true
    },
    {
      "inputs": [],
      "name": "baseURI",
      "outputs": [
        {
          "internalType": "string",
          "name": "",
          "type": "string"
        }
      ],
      "stateMutability": "view",
      "type": "function",
      "constant": true
    },
    {
      "inputs": [
        {
          "internalType": "uint256",
          "name": "",
          "type": "uint256"
        }
      ],
      "name": "coupons",
      "outputs": [
        {
          "internalType": "uint256",
          "name": "tokenId",
          "type": "uint256"
        },
        {
          "internalType": "string",
          "name": "description",
          "type": "string"
        },
        {
          "internalType": "string",
          "name": "expiryDate",
          "type": "string"
        },
        {
          "internalType": "uint256",
          "name": "value",
          "type": "uint256"
        },
        {
          "internalType": "bool",
          "name": "redeemed",
          "type": "bool"
        },
        {
          "internalType": "uint256",
          "name": "redeemedTimeStamp",
          "type": "uint256"
        }
      ],
      "stateMutability": "view",
      "type": "function",
      "constant": true
    },
    {
      "inputs": [
        {
          "internalType": "uint256",
          "name": "tokenId",
          "type": "uint256"
        }
      ],
      "name": "getApproved",
      "outputs": [
        {
          "internalType": "address",
          "name": "",
          "type": "address"
        }
      ],
      "stateMutability": "view",
      "type": "function",
      "constant": true
    },
    {
      "inputs": [
        {
          "internalType": "address",
          "name": "owner",
          "type": "address"
        },
        {
          "internalType": "address",
          "name": "operator",
          "type": "address"
        }
      ],
      "name": "isApprovedForAll",
      "outputs": [
        {
          "internalType": "bool",
          "name": "",
          "type": "bool"
        }
      ],
      "stateMutability": "view",
      "type": "function",
      "constant": true
    },
    {
      "inputs": [],
      "name": "name",
      "outputs": [
        {
          "internalType": "string",
          "name": "",
          "type": "string"
        }
      ],
      "stateMutability": "view",
      "type": "function",
      "constant": true
    },
    {
      "inputs": [],
      "name": "owner",
      "outputs": [
        {
          "internalType": "address",
          "name": "",
          "type": "address"
        }
      ],
      "stateMutability": "view",
      "type": "function",
      "constant": true
    },
    {
      "inputs": [
        {
          "internalType": "uint256",
          "name": "tokenId",
          "type": "uint256"
        }
      ],
      "name": "ownerOf",
      "outputs": [
        {
          "internalType": "address",
          "name": "",
          "type": "address"
        }
      ],
      "stateMutability": "view",
      "type": "function",
      "constant": true
    },
    {
      "inputs": [],
      "name": "renounceOwnership",
      "outputs": [],
      "stateMutability": "nonpayable",
      "type": "function"
    },
    {
      "inputs": [
        {
          "internalType": "address",
          "name": "from",
          "type": "address"
        },
        {
          "internalType": "address",
          "name": "to",
          "type": "address"
        },
        {
          "internalType": "uint256",
          "name": "tokenId",
          "type": "uint256"
        }
      ],
      "name": "safeTransferFrom",
      "outputs": [],
      "stateMutability": "nonpayable",
      "type": "function"
    },
    {
      "inputs": [
        {
          "internalType": "address",
          "name": "from",
          "type": "address"
        },
        {
          "internalType": "address",
          "name": "to",
          "type": "address"
        },
        {
          "internalType": "uint256",
          "name": "tokenId",
          "type": "uint256"
        },
        {
          "internalType": "bytes",
          "name": "_data",
          "type": "bytes"
        }
      ],
      "name": "safeTransferFrom",
      "outputs": [],
      "stateMutability": "nonpayable",
      "type": "function"
    },
    {
      "inputs": [
        {
          "internalType": "address",
          "name": "operator",
          "type": "address"
        },
        {
          "internalType": "bool",
          "name": "approved",
          "type": "bool"
        }
      ],
      "name": "setApprovalForAll",
      "outputs": [],
      "stateMutability": "nonpayable",
      "type": "function"
    },
    {
      "inputs": [
        {
          "internalType": "bytes4",
          "name": "interfaceId",
          "type": "bytes4"
        }
      ],
      "name": "supportsInterface",
      "outputs": [
        {
          "internalType": "bool",
          "name": "",
          "type": "bool"
        }
      ],
      "stateMutability": "view",
      "type": "function",
      "constant": true
    },
    {
      "inputs": [],
      "name": "symbol",
      "outputs": [
        {
          "internalType": "string",
          "name": "",
          "type": "string"
        }
      ],
      "stateMutability": "view",
      "type": "function",
      "constant": true
    },
    {
      "inputs": [
        {
          "internalType": "uint256",
          "name": "index",
          "type": "uint256"
        }
      ],
      "name": "tokenByIndex",
      "outputs": [
        {
          "internalType": "uint256",
          "name": "",
          "type": "uint256"
        }
      ],
      "stateMutability": "view",
      "type": "function",
      "constant": true
    },
    {
      "inputs": [
        {
          "internalType": "uint256",
          "name": "",
          "type": "uint256"
        }
      ],
      "name": "tokenIds",
      "outputs": [
        {
          "internalType": "uint256",
          "name": "",
          "type": "uint256"
        }
      ],
      "stateMutability": "view",
      "type": "function",
      "constant": true
    },
    {
      "inputs": [
        {
          "internalType": "address",
          "name": "owner",
          "type": "address"
        },
        {
          "internalType": "uint256",
          "name": "index",
          "type": "uint256"
        }
      ],
      "name": "tokenOfOwnerByIndex",
      "outputs": [
        {
          "internalType": "uint256",
          "name": "",
          "type": "uint256"
        }
      ],
      "stateMutability": "view",
      "type": "function",
      "constant": true
    },
    {
      "inputs": [
        {
          "internalType": "uint256",
          "name": "tokenId",
          "type": "uint256"
        }
      ],
      "name": "tokenURI",
      "outputs": [
        {
          "internalType": "string",
          "name": "",
          "type": "string"
        }
      ],
      "stateMutability": "view",
      "type": "function",
      "constant": true
    },
    {
      "inputs": [],
      "name": "totalSupply",
      "outputs": [
        {
          "internalType": "uint256",
          "name": "",
          "type": "uint256"
        }
      ],
      "stateMutability": "view",
      "type": "function",
      "constant": true
    },
    {
      "inputs": [
        {
          "internalType": "address",
          "name": "from",
          "type": "address"
        },
        {
          "internalType": "address",
          "name": "to",
          "type": "address"
        },
        {
          "internalType": "uint256",
          "name": "tokenId",
          "type": "uint256"
        }
      ],
      "name": "transferFrom",
      "outputs": [],
      "stateMutability": "nonpayable",
      "type": "function"
    },
    {
      "inputs": [
        {
          "internalType": "address",
          "name": "newOwner",
          "type": "address"
        }
      ],
      "name": "transferOwnership",
      "outputs": [],
      "stateMutability": "nonpayable",
      "type": "function"
    },
    {
      "inputs": [
        {
          "internalType": "address",
          "name": "customer",
          "type": "address"
        },
        {
          "internalType": "string",
          "name": "tokenURI",
          "type": "string"
        }
      ],
      "name": "awardCoupon",
      "outputs": [
        {
          "internalType": "uint256",
          "name": "",
          "type": "uint256"
        }
      ],
      "stateMutability": "nonpayable",
      "type": "function"
    },
    {
      "inputs": [
        {
          "internalType": "uint256",
          "name": "tokenId",
          "type": "uint256"
        }
      ],
      "name": "redeem",
      "outputs": [],
      "stateMutability": "nonpayable",
      "type": "function"
    },
    {
      "inputs": [],
      "name": "getMyCoupons",
      "outputs": [
        {
          "components": [
            {
              "internalType": "uint256",
              "name": "tokenId",
              "type": "uint256"
            },
            {
              "internalType": "string",
              "name": "description",
              "type": "string"
            },
            {
              "internalType": "string",
              "name": "expiryDate",
              "type": "string"
            },
            {
              "internalType": "uint256",
              "name": "value",
              "type": "uint256"
            },
            {
              "internalType": "bool",
              "name": "redeemed",
              "type": "bool"
            },
            {
              "internalType": "uint256",
              "name": "redeemedTimeStamp",
              "type": "uint256"
            }
          ],
          "internalType": "struct Coupon.CouponItem[]",
          "name": "",
          "type": "tuple[]"
        }
      ],
      "stateMutability": "view",
      "type": "function",
      "constant": true
    }
  ],
  "bytecode": "0x60806040523480156200001157600080fd5b506040518060400160405280600681526020017f436f75706f6e00000000000000000000000000000000000000000000000000008152506040518060400160405280600381526020017f43504e0000000000000000000000000000000000000000000000000000000000815250600062000090620001c860201b60201c565b9050806000806101000a81548173ffffffffffffffffffffffffffffffffffffffff021916908373ffffffffffffffffffffffffffffffffffffffff1602179055508073ffffffffffffffffffffffffffffffffffffffff16600073ffffffffffffffffffffffffffffffffffffffff167f8be0079c531659141344cd1fd0a4f28419497f9722a3daafe3b4186f6b6457e060405160405180910390a350620001466301ffc9a760e01b620001d060201b60201c565b81600790805190602001906200015e929190620002a8565b50806008908051906020019062000177929190620002a8565b50620001906380ac58cd60e01b620001d060201b60201c565b620001a8635b5e139f60e01b620001d060201b60201c565b620001c063780e9d6360e01b620001d060201b60201c565b5050620003c3565b600033905090565b63ffffffff60e01b817bffffffffffffffffffffffffffffffffffffffffffffffffffffffff191614156200023c576040517f08c379a0000000000000000000000000000000000000000000000000000000008152600401620002339062000390565b60405180910390fd5b6001806000837bffffffffffffffffffffffffffffffffffffffffffffffffffffffff19167bffffffffffffffffffffffffffffffffffffffffffffffffffffffff1916815260200190815260200160002060006101000a81548160ff02191690831515021790555050565b828054600181600116156101000203166002900490600052602060002090601f016020900481019282601f10620002eb57805160ff19168380011785556200031c565b828001600101855582156200031c579182015b828111156200031b578251825591602001919060010190620002fe565b5b5090506200032b91906200032f565b5090565b5b808211156200034a57600081600090555060010162000330565b5090565b60006200035d601c83620003b2565b91507f4552433136353a20696e76616c696420696e74657266616365206964000000006000830152602082019050919050565b60006020820190508181036000830152620003ab816200034e565b9050919050565b600082825260208201905092915050565b61401f80620003d36000396000f3fe608060405234801561001057600080fd5b50600436106101735760003560e01c806370a08231116100de578063b88d4fde11610097578063d58778d611610071578063d58778d614610477578063db006a75146104a7578063e985e9c5146104c3578063f2fde38b146104f357610173565b8063b88d4fde146103fb578063c87b56dd14610417578063cd0b06291461044757610173565b806370a082311461034b578063715018a61461037b5780637ed80ccf146103855780638da5cb5b146103a357806395d89b41146103c1578063a22cb465146103df57610173565b80632f745c59116101305780632f745c591461024c57806330828e921461027c57806342842e0e146102b15780634f6ccce7146102cd5780636352211e146102fd5780636c0360eb1461032d57610173565b806301ffc9a71461017857806306fdde03146101a8578063081812fc146101c6578063095ea7b3146101f657806318160ddd1461021257806323b872dd14610230575b600080fd5b610192600480360381019061018d9190612dab565b61050f565b60405161019f919061397f565b60405180910390f35b6101b0610577565b6040516101bd919061399a565b60405180910390f35b6101e060048036038101906101db9190612dfd565b610619565b6040516101ed91906138aa565b60405180910390f35b610210600480360381019061020b9190612d6f565b61069e565b005b61021a6107b6565b6040516102279190613c7c565b60405180910390f35b61024a60048036038101906102459190612c15565b6107c7565b005b61026660048036038101906102619190612d6f565b610827565b6040516102739190613c7c565b60405180910390f35b61029660048036038101906102919190612dfd565b610882565b6040516102a896959493929190613c97565b60405180910390f35b6102cb60048036038101906102c69190612c15565b6109fb565b005b6102e760048036038101906102e29190612dfd565b610a1b565b6040516102f49190613c7c565b60405180910390f35b61031760048036038101906103129190612dfd565b610a3e565b60405161032491906138aa565b60405180910390f35b610335610a75565b604051610342919061399a565b60405180910390f35b61036560048036038101906103609190612bb0565b610b17565b6040516103729190613c7c565b60405180910390f35b610383610bd6565b005b61038d610d10565b60405161039a919061395d565b60405180910390f35b6103ab610fae565b6040516103b891906138aa565b60405180910390f35b6103c9610fd7565b6040516103d6919061399a565b60405180910390f35b6103f960048036038101906103f49190612cdf565b611079565b005b61041560048036038101906104109190612c64565b6111fa565b005b610431600480360381019061042c9190612dfd565b61125c565b60405161043e919061399a565b60405180910390f35b610461600480360381019061045c9190612d1b565b6113df565b60405161046e9190613c7c565b60405180910390f35b610491600480360381019061048c9190612dfd565b61161f565b60405161049e9190613c7c565b60405180910390f35b6104c160048036038101906104bc9190612dfd565b611640565b005b6104dd60048036038101906104d89190612bd9565b6117b2565b6040516104ea919061397f565b60405180910390f35b61050d60048036038101906105089190612bb0565b611846565b005b600060016000837bffffffffffffffffffffffffffffffffffffffffffffffffffffffff19167bffffffffffffffffffffffffffffffffffffffffffffffffffffffff1916815260200190815260200160002060009054906101000a900460ff169050919050565b606060078054600181600116156101000203166002900480601f01602080910402602001604051908101604052809291908181526020018280546001816001161561010002031660029004801561060f5780601f106105e45761010080835404028352916020019161060f565b820191906000526020600020905b8154815290600101906020018083116105f257829003601f168201915b5050505050905090565b6000610624826119ef565b610663576040517f08c379a000000000000000000000000000000000000000000000000000000000815260040161065a90613b5c565b60405180910390fd5b6005600083815260200190815260200160002060009054906101000a900473ffffffffffffffffffffffffffffffffffffffff169050919050565b60006106a982610a3e565b90508073ffffffffffffffffffffffffffffffffffffffff168373ffffffffffffffffffffffffffffffffffffffff16141561071a576040517f08c379a000000000000000000000000000000000000000000000000000000000815260040161071190613bfc565b60405180910390fd5b8073ffffffffffffffffffffffffffffffffffffffff16610739611a0c565b73ffffffffffffffffffffffffffffffffffffffff161480610768575061076781610762611a0c565b6117b2565b5b6107a7576040517f08c379a000000000000000000000000000000000000000000000000000000000815260040161079e90613adc565b60405180910390fd5b6107b18383611a14565b505050565b60006107c26003611acd565b905090565b6107d86107d2611a0c565b82611ae2565b610817576040517f08c379a000000000000000000000000000000000000000000000000000000000815260040161080e90613c3c565b60405180910390fd5b610822838383611bc0565b505050565b600061087a82600260008673ffffffffffffffffffffffffffffffffffffffff1673ffffffffffffffffffffffffffffffffffffffff168152602001908152602001600020611dd790919063ffffffff16565b905092915050565b600c602052806000526040600020600091509050806000015490806001018054600181600116156101000203166002900480601f0160208091040260200160405190810160405280929190818152602001828054600181600116156101000203166002900480156109345780601f1061090957610100808354040283529160200191610934565b820191906000526020600020905b81548152906001019060200180831161091757829003601f168201915b505050505090806002018054600181600116156101000203166002900480601f0160208091040260200160405190810160405280929190818152602001828054600181600116156101000203166002900480156109d25780601f106109a7576101008083540402835291602001916109d2565b820191906000526020600020905b8154815290600101906020018083116109b557829003601f168201915b5050505050908060030154908060040160009054906101000a900460ff16908060050154905086565b610a16838383604051806020016040528060008152506111fa565b505050565b600080610a32836003611df190919063ffffffff16565b50905080915050919050565b6000610a6e82604051806060016040528060298152602001613fc1602991396003611e1d9092919063ffffffff16565b9050919050565b6060600a8054600181600116156101000203166002900480601f016020809104026020016040519081016040528092919081815260200182805460018160011615610100020316600290048015610b0d5780601f10610ae257610100808354040283529160200191610b0d565b820191906000526020600020905b815481529060010190602001808311610af057829003601f168201915b5050505050905090565b60008073ffffffffffffffffffffffffffffffffffffffff168273ffffffffffffffffffffffffffffffffffffffff161415610b88576040517f08c379a0000000000000000000000000000000000000000000000000000000008152600401610b7f90613afc565b60405180910390fd5b610bcf600260008473ffffffffffffffffffffffffffffffffffffffff1673ffffffffffffffffffffffffffffffffffffffff168152602001908152602001600020611e3c565b9050919050565b610bde611a0c565b73ffffffffffffffffffffffffffffffffffffffff16610bfc610fae565b73ffffffffffffffffffffffffffffffffffffffff1614610c52576040517f08c379a0000000000000000000000000000000000000000000000000000000008152600401610c4990613b9c565b60405180910390fd5b600073ffffffffffffffffffffffffffffffffffffffff1660008054906101000a900473ffffffffffffffffffffffffffffffffffffffff1673ffffffffffffffffffffffffffffffffffffffff167f8be0079c531659141344cd1fd0a4f28419497f9722a3daafe3b4186f6b6457e060405160405180910390a360008060006101000a81548173ffffffffffffffffffffffffffffffffffffffff021916908373ffffffffffffffffffffffffffffffffffffffff160217905550565b606080610d1c33610b17565b67ffffffffffffffff81118015610d3257600080fd5b50604051908082528060200260200182016040528015610d6c57816020015b610d596129ca565b815260200190600190039081610d515790505b509050600080610d7b33610b17565b1115610fa6576000805b610d8d6107b6565b811015610fa357610d9d81610a1b565b92503373ffffffffffffffffffffffffffffffffffffffff16610dbf84610a3e565b73ffffffffffffffffffffffffffffffffffffffff161415610f9657600c60008481526020019081526020016000206040518060c001604052908160008201548152602001600182018054600181600116156101000203166002900480601f016020809104026020016040519081016040528092919081815260200182805460018160011615610100020316600290048015610e9c5780601f10610e7157610100808354040283529160200191610e9c565b820191906000526020600020905b815481529060010190602001808311610e7f57829003601f168201915b50505050508152602001600282018054600181600116156101000203166002900480601f016020809104026020016040519081016040528092919081815260200182805460018160011615610100020316600290048015610f3e5780601f10610f1357610100808354040283529160200191610f3e565b820191906000526020600020905b815481529060010190602001808311610f2157829003601f168201915b50505050508152602001600382015481526020016004820160009054906101000a900460ff16151515158152602001600582015481525050848381518110610f8257fe5b602002602001018190525081806001019250505b8080600101915050610d85565b50505b819250505090565b60008060009054906101000a900473ffffffffffffffffffffffffffffffffffffffff16905090565b606060088054600181600116156101000203166002900480601f01602080910402602001604051908101604052809291908181526020018280546001816001161561010002031660029004801561106f5780601f106110445761010080835404028352916020019161106f565b820191906000526020600020905b81548152906001019060200180831161105257829003601f168201915b5050505050905090565b611081611a0c565b73ffffffffffffffffffffffffffffffffffffffff168273ffffffffffffffffffffffffffffffffffffffff1614156110ef576040517f08c379a00000000000000000000000000000000000000000000000000000000081526004016110e690613a5c565b60405180910390fd5b80600660006110fc611a0c565b73ffffffffffffffffffffffffffffffffffffffff1673ffffffffffffffffffffffffffffffffffffffff16815260200190815260200160002060008473ffffffffffffffffffffffffffffffffffffffff1673ffffffffffffffffffffffffffffffffffffffff16815260200190815260200160002060006101000a81548160ff0219169083151502179055508173ffffffffffffffffffffffffffffffffffffffff166111a9611a0c565b73ffffffffffffffffffffffffffffffffffffffff167f17307eab39ab6107e8899845ad3d59bd9653f200f220920489ca2b5937696c31836040516111ee919061397f565b60405180910390a35050565b61120b611205611a0c565b83611ae2565b61124a576040517f08c379a000000000000000000000000000000000000000000000000000000000815260040161124190613c3c565b60405180910390fd5b61125684848484611e51565b50505050565b6060611267826119ef565b6112a6576040517f08c379a000000000000000000000000000000000000000000000000000000000815260040161129d90613bdc565b60405180910390fd5b6060600960008481526020019081526020016000208054600181600116156101000203166002900480601f01602080910402602001604051908101604052809291908181526020018280546001816001161561010002031660029004801561134f5780601f106113245761010080835404028352916020019161134f565b820191906000526020600020905b81548152906001019060200180831161133257829003601f168201915b505050505090506060611360610a75565b90506000815114156113765781925050506113da565b6000825111156113ab578082604051602001611393929190613886565b604051602081830303815290604052925050506113da565b806113b585611ead565b6040516020016113c6929190613886565b604051602081830303815290604052925050505b919050565b60006113e9611a0c565b73ffffffffffffffffffffffffffffffffffffffff16611407610fae565b73ffffffffffffffffffffffffffffffffffffffff161461145d576040517f08c379a000000000000000000000000000000000000000000000000000000000815260040161145490613b9c565b60405180910390fd5b611467600b611ff4565b6000611473600b61200a565b905061147f8482612018565b61148981846121a6565b80600c6000838152602001908152602001600020600001819055506040518060400160405280600b81526020017f4361736820436f75706f6e000000000000000000000000000000000000000000815250600c60008381526020019081526020016000206001019080519060200190611503929190612a02565b506040518060400160405280600a81526020017f323032322d31322d333100000000000000000000000000000000000000000000815250600c60008381526020019081526020016000206002019080519060200190611563929190612a02565b506032600c6000838152602001908152602001600020600301819055506000600c600083815260200190815260200160002060040160006101000a81548160ff021916908315150217905550600d8190806001815401808255809150506001900390600052602060002001600090919091909150557f985b52fba25773903842bc3963db2e5f8c6fba185224dada7910c17802ec8a9e3382854260405161160d9493929190613911565b60405180910390a18091505092915050565b600d818154811061162c57fe5b906000526020600020016000915090505481565b3373ffffffffffffffffffffffffffffffffffffffff1661166082610a3e565b73ffffffffffffffffffffffffffffffffffffffff16146116b6576040517f08c379a00000000000000000000000000000000000000000000000000000000081526004016116ad90613a7c565b60405180910390fd5b60001515600c600083815260200190815260200160002060040160009054906101000a900460ff16151514611720576040517f08c379a000000000000000000000000000000000000000000000000000000000815260040161171790613c1c565b60405180910390fd5b6001600c600083815260200190815260200160002060040160006101000a81548160ff02191690831515021790555042600c6000838152602001908152602001600020600501819055507f8e3a1a89eb3369215a669ad13e615e4ad362178313dc312fc4f7613c1dc24a7433826117968461125c565b426040516117a79493929190613911565b60405180910390a150565b6000600660008473ffffffffffffffffffffffffffffffffffffffff1673ffffffffffffffffffffffffffffffffffffffff16815260200190815260200160002060008373ffffffffffffffffffffffffffffffffffffffff1673ffffffffffffffffffffffffffffffffffffffff16815260200190815260200160002060009054906101000a900460ff16905092915050565b61184e611a0c565b73ffffffffffffffffffffffffffffffffffffffff1661186c610fae565b73ffffffffffffffffffffffffffffffffffffffff16146118c2576040517f08c379a00000000000000000000000000000000000000000000000000000000081526004016118b990613b9c565b60405180910390fd5b600073ffffffffffffffffffffffffffffffffffffffff168173ffffffffffffffffffffffffffffffffffffffff161415611932576040517f08c379a0000000000000000000000000000000000000000000000000000000008152600401611929906139fc565b60405180910390fd5b8073ffffffffffffffffffffffffffffffffffffffff1660008054906101000a900473ffffffffffffffffffffffffffffffffffffffff1673ffffffffffffffffffffffffffffffffffffffff167f8be0079c531659141344cd1fd0a4f28419497f9722a3daafe3b4186f6b6457e060405160405180910390a3806000806101000a81548173ffffffffffffffffffffffffffffffffffffffff021916908373ffffffffffffffffffffffffffffffffffffffff16021790555050565b6000611a0582600361221a90919063ffffffff16565b9050919050565b600033905090565b816005600083815260200190815260200160002060006101000a81548173ffffffffffffffffffffffffffffffffffffffff021916908373ffffffffffffffffffffffffffffffffffffffff160217905550808273ffffffffffffffffffffffffffffffffffffffff16611a8783610a3e565b73ffffffffffffffffffffffffffffffffffffffff167f8c5be1e5ebec7d5bd14f71427d1e84f3dd0314c0f7b2291e5b200ac8c7c3b92560405160405180910390a45050565b6000611adb82600001612234565b9050919050565b6000611aed826119ef565b611b2c576040517f08c379a0000000000000000000000000000000000000000000000000000000008152600401611b2390613abc565b60405180910390fd5b6000611b3783610a3e565b90508073ffffffffffffffffffffffffffffffffffffffff168473ffffffffffffffffffffffffffffffffffffffff161480611ba657508373ffffffffffffffffffffffffffffffffffffffff16611b8e84610619565b73ffffffffffffffffffffffffffffffffffffffff16145b80611bb75750611bb681856117b2565b5b91505092915050565b8273ffffffffffffffffffffffffffffffffffffffff16611be082610a3e565b73ffffffffffffffffffffffffffffffffffffffff1614611c36576040517f08c379a0000000000000000000000000000000000000000000000000000000008152600401611c2d90613bbc565b60405180910390fd5b600073ffffffffffffffffffffffffffffffffffffffff168273ffffffffffffffffffffffffffffffffffffffff161415611ca6576040517f08c379a0000000000000000000000000000000000000000000000000000000008152600401611c9d90613a3c565b60405180910390fd5b611cb1838383612245565b611cbc600082611a14565b611d0d81600260008673ffffffffffffffffffffffffffffffffffffffff1673ffffffffffffffffffffffffffffffffffffffff16815260200190815260200160002061224a90919063ffffffff16565b50611d5f81600260008573ffffffffffffffffffffffffffffffffffffffff1673ffffffffffffffffffffffffffffffffffffffff16815260200190815260200160002061226490919063ffffffff16565b50611d768183600361227e9092919063ffffffff16565b50808273ffffffffffffffffffffffffffffffffffffffff168473ffffffffffffffffffffffffffffffffffffffff167fddf252ad1be2c89b69c2b068fc378daa952ba7f163c4a11628f55a4df523b3ef60405160405180910390a4505050565b6000611de683600001836122b3565b60001c905092915050565b600080600080611e048660000186612320565b915091508160001c8160001c9350935050509250929050565b6000611e30846000018460001b846123a3565b60001c90509392505050565b6000611e4a82600001612434565b9050919050565b611e5c848484611bc0565b611e6884848484612445565b611ea7576040517f08c379a0000000000000000000000000000000000000000000000000000000008152600401611e9e906139dc565b60405180910390fd5b50505050565b60606000821415611ef5576040518060400160405280600181526020017f30000000000000000000000000000000000000000000000000000000000000008152509050611fef565b600082905060005b60008214611f1f578080600101915050600a8281611f1757fe5b049150611efd565b60608167ffffffffffffffff81118015611f3857600080fd5b506040519080825280601f01601f191660200182016040528015611f6b5781602001600182028036833780820191505090505b50905060006001830390508593505b60008414611fe757600a8481611f8c57fe5b0660300160f81b82828060019003935081518110611fa657fe5b60200101907effffffffffffffffffffffffffffffffffffffffffffffffffffffffffffff1916908160001a905350600a8481611fdf57fe5b049350611f7a565b819450505050505b919050565b6001816000016000828254019250508190555050565b600081600001549050919050565b600073ffffffffffffffffffffffffffffffffffffffff168273ffffffffffffffffffffffffffffffffffffffff161415612088576040517f08c379a000000000000000000000000000000000000000000000000000000000815260040161207f90613b3c565b60405180910390fd5b612091816119ef565b156120d1576040517f08c379a00000000000000000000000000000000000000000000000000000000081526004016120c890613a1c565b60405180910390fd5b6120dd60008383612245565b61212e81600260008573ffffffffffffffffffffffffffffffffffffffff1673ffffffffffffffffffffffffffffffffffffffff16815260200190815260200160002061226490919063ffffffff16565b506121458183600361227e9092919063ffffffff16565b50808273ffffffffffffffffffffffffffffffffffffffff16600073ffffffffffffffffffffffffffffffffffffffff167fddf252ad1be2c89b69c2b068fc378daa952ba7f163c4a11628f55a4df523b3ef60405160405180910390a45050565b6121af826119ef565b6121ee576040517f08c379a00000000000000000000000000000000000000000000000000000000081526004016121e590613b7c565b60405180910390fd5b80600960008481526020019081526020016000209080519060200190612215929190612a02565b505050565b600061222c836000018360001b6125a9565b905092915050565b600081600001805490509050919050565b505050565b600061225c836000018360001b6125cc565b905092915050565b6000612276836000018360001b6126b4565b905092915050565b60006122aa846000018460001b8473ffffffffffffffffffffffffffffffffffffffff1660001b612724565b90509392505050565b6000818360000180549050116122fe576040517f08c379a00000000000000000000000000000000000000000000000000000000081526004016122f5906139bc565b60405180910390fd5b82600001828154811061230d57fe5b9060005260206000200154905092915050565b6000808284600001805490501161236c576040517f08c379a000000000000000000000000000000000000000000000000000000000815260040161236390613b1c565b60405180910390fd5b600084600001848154811061237d57fe5b906000526020600020906002020190508060000154816001015492509250509250929050565b60008084600101600085815260200190815260200160002054905060008114158390612405576040517f08c379a00000000000000000000000000000000000000000000000000000000081526004016123fc919061399a565b60405180910390fd5b5084600001600182038154811061241857fe5b9060005260206000209060020201600101549150509392505050565b600081600001805490509050919050565b60006124668473ffffffffffffffffffffffffffffffffffffffff16612800565b61247357600190506125a1565b606061253a63150b7a0260e01b612488611a0c565b88878760405160240161249e94939291906138c5565b604051602081830303815290604052907bffffffffffffffffffffffffffffffffffffffffffffffffffffffff19166020820180517bffffffffffffffffffffffffffffffffffffffffffffffffffffffff8381831617835250505050604051806060016040528060328152602001613f8f603291398773ffffffffffffffffffffffffffffffffffffffff166128139092919063ffffffff16565b90506000818060200190518101906125529190612dd4565b905063150b7a0260e01b7bffffffffffffffffffffffffffffffffffffffffffffffffffffffff1916817bffffffffffffffffffffffffffffffffffffffffffffffffffffffff191614925050505b949350505050565b600080836001016000848152602001908152602001600020541415905092915050565b600080836001016000848152602001908152602001600020549050600081146126a8576000600182039050600060018660000180549050039050600086600001828154811061261757fe5b906000526020600020015490508087600001848154811061263457fe5b906000526020600020018190555060018301876001016000838152602001908152602001600020819055508660000180548061266c57fe5b600190038181906000526020600020016000905590558660010160008781526020019081526020016000206000905560019450505050506126ae565b60009150505b92915050565b60006126c0838361282b565b61271957826000018290806001815401808255809150506001900390600052602060002001600090919091909150558260000180549050836001016000848152602001908152602001600020819055506001905061271e565b600090505b92915050565b60008084600101600085815260200190815260200160002054905060008114156127cb578460000160405180604001604052808681526020018581525090806001815401808255809150506001900390600052602060002090600202016000909190919091506000820151816000015560208201518160010155505084600001805490508560010160008681526020019081526020016000208190555060019150506127f9565b828560000160018303815481106127de57fe5b90600052602060002090600202016001018190555060009150505b9392505050565b600080823b905060008111915050919050565b6060612822848460008561284e565b90509392505050565b600080836001016000848152602001908152602001600020541415905092915050565b606082471015612893576040517f08c379a000000000000000000000000000000000000000000000000000000000815260040161288a90613a9c565b60405180910390fd5b61289c85612800565b6128db576040517f08c379a00000000000000000000000000000000000000000000000000000000081526004016128d290613c5c565b60405180910390fd5b600060608673ffffffffffffffffffffffffffffffffffffffff168587604051612905919061386f565b60006040518083038185875af1925050503d8060008114612942576040519150601f19603f3d011682016040523d82523d6000602084013e612947565b606091505b5091509150612957828286612963565b92505050949350505050565b60608315612973578290506129c3565b6000835111156129865782518084602001fd5b816040517f08c379a00000000000000000000000000000000000000000000000000000000081526004016129ba919061399a565b60405180910390fd5b9392505050565b6040518060c0016040528060008152602001606081526020016060815260200160008152602001600015158152602001600081525090565b828054600181600116156101000203166002900490600052602060002090601f016020900481019282601f10612a4357805160ff1916838001178555612a71565b82800160010185558215612a71579182015b82811115612a70578251825591602001919060010190612a55565b5b509050612a7e9190612a82565b5090565b5b80821115612a9b576000816000905550600101612a83565b5090565b600081359050612aae81613f32565b92915050565b600081359050612ac381613f49565b92915050565b600081359050612ad881613f60565b92915050565b600081519050612aed81613f60565b92915050565b600082601f830112612b0457600080fd5b8135612b17612b1282613d33565b613d06565b91508082526020830160208301858383011115612b3357600080fd5b612b3e838284613edf565b50505092915050565b600082601f830112612b5857600080fd5b8135612b6b612b6682613d5f565b613d06565b91508082526020830160208301858383011115612b8757600080fd5b612b92838284613edf565b50505092915050565b600081359050612baa81613f77565b92915050565b600060208284031215612bc257600080fd5b6000612bd084828501612a9f565b91505092915050565b60008060408385031215612bec57600080fd5b6000612bfa85828601612a9f565b9250506020612c0b85828601612a9f565b9150509250929050565b600080600060608486031215612c2a57600080fd5b6000612c3886828701612a9f565b9350506020612c4986828701612a9f565b9250506040612c5a86828701612b9b565b9150509250925092565b60008060008060808587031215612c7a57600080fd5b6000612c8887828801612a9f565b9450506020612c9987828801612a9f565b9350506040612caa87828801612b9b565b925050606085013567ffffffffffffffff811115612cc757600080fd5b612cd387828801612af3565b91505092959194509250565b60008060408385031215612cf257600080fd5b6000612d0085828601612a9f565b9250506020612d1185828601612ab4565b9150509250929050565b60008060408385031215612d2e57600080fd5b6000612d3c85828601612a9f565b925050602083013567ffffffffffffffff811115612d5957600080fd5b612d6585828601612b47565b9150509250929050565b60008060408385031215612d8257600080fd5b6000612d9085828601612a9f565b9250506020612da185828601612b9b565b9150509250929050565b600060208284031215612dbd57600080fd5b6000612dcb84828501612ac9565b91505092915050565b600060208284031215612de657600080fd5b6000612df484828501612ade565b91505092915050565b600060208284031215612e0f57600080fd5b6000612e1d84828501612b9b565b91505092915050565b6000612e3283836137c1565b905092915050565b612e4381613ea9565b82525050565b612e5281613e35565b82525050565b612e6181613e23565b82525050565b6000612e7282613d9b565b612e7c8185613dc9565b935083602082028501612e8e85613d8b565b8060005b85811015612eca5784840389528151612eab8582612e26565b9450612eb683613dbc565b925060208a01995050600181019050612e92565b50829750879550505050505092915050565b612ee581613e47565b82525050565b612ef481613e47565b82525050565b6000612f0582613da6565b612f0f8185613dda565b9350612f1f818560208601613eee565b612f2881613f21565b840191505092915050565b6000612f3e82613da6565b612f488185613deb565b9350612f58818560208601613eee565b80840191505092915050565b6000612f6f82613db1565b612f798185613df6565b9350612f89818560208601613eee565b612f9281613f21565b840191505092915050565b6000612fa882613db1565b612fb28185613e07565b9350612fc2818560208601613eee565b612fcb81613f21565b840191505092915050565b6000612fe182613db1565b612feb8185613e18565b9350612ffb818560208601613eee565b80840191505092915050565b6000613014602283613e07565b91507f456e756d657261626c655365743a20696e646578206f7574206f6620626f756e60008301527f64730000000000000000000000000000000000000000000000000000000000006020830152604082019050919050565b600061307a603283613e07565b91507f4552433732313a207472616e7366657220746f206e6f6e20455243373231526560008301527f63656976657220696d706c656d656e74657200000000000000000000000000006020830152604082019050919050565b60006130e0602683613e07565b91507f4f776e61626c653a206e6577206f776e657220697320746865207a65726f206160008301527f64647265737300000000000000000000000000000000000000000000000000006020830152604082019050919050565b6000613146601c83613e07565b91507f4552433732313a20746f6b656e20616c7265616479206d696e746564000000006000830152602082019050919050565b6000613186602483613e07565b91507f4552433732313a207472616e7366657220746f20746865207a65726f2061646460008301527f72657373000000000000000000000000000000000000000000000000000000006020830152604082019050919050565b60006131ec601983613e07565b91507f4552433732313a20617070726f766520746f2063616c6c6572000000000000006000830152602082019050919050565b600061322c600983613e07565b91507f4e6f74204f776e657200000000000000000000000000000000000000000000006000830152602082019050919050565b600061326c602683613e07565b91507f416464726573733a20696e73756666696369656e742062616c616e636520666f60008301527f722063616c6c00000000000000000000000000000000000000000000000000006020830152604082019050919050565b60006132d2602c83613e07565b91507f4552433732313a206f70657261746f7220717565727920666f72206e6f6e657860008301527f697374656e7420746f6b656e00000000000000000000000000000000000000006020830152604082019050919050565b6000613338603883613e07565b91507f4552433732313a20617070726f76652063616c6c6572206973206e6f74206f7760008301527f6e6572206e6f7220617070726f76656420666f7220616c6c00000000000000006020830152604082019050919050565b600061339e602a83613e07565b91507f4552433732313a2062616c616e636520717565727920666f7220746865207a6560008301527f726f2061646472657373000000000000000000000000000000000000000000006020830152604082019050919050565b6000613404602283613e07565b91507f456e756d657261626c654d61703a20696e646578206f7574206f6620626f756e60008301527f64730000000000000000000000000000000000000000000000000000000000006020830152604082019050919050565b600061346a602083613e07565b91507f4552433732313a206d696e7420746f20746865207a65726f20616464726573736000830152602082019050919050565b60006134aa602c83613e07565b91507f4552433732313a20617070726f76656420717565727920666f72206e6f6e657860008301527f697374656e7420746f6b656e00000000000000000000000000000000000000006020830152604082019050919050565b6000613510602c83613e07565b91507f4552433732314d657461646174613a2055524920736574206f66206e6f6e657860008301527f697374656e7420746f6b656e00000000000000000000000000000000000000006020830152604082019050919050565b6000613576602083613e07565b91507f4f776e61626c653a2063616c6c6572206973206e6f7420746865206f776e65726000830152602082019050919050565b60006135b6602983613e07565b91507f4552433732313a207472616e73666572206f6620746f6b656e2074686174206960008301527f73206e6f74206f776e00000000000000000000000000000000000000000000006020830152604082019050919050565b600061361c602f83613e07565b91507f4552433732314d657461646174613a2055524920717565727920666f72206e6f60008301527f6e6578697374656e7420746f6b656e00000000000000000000000000000000006020830152604082019050919050565b6000613682602183613e07565b91507f4552433732313a20617070726f76616c20746f2063757272656e74206f776e6560008301527f72000000000000000000000000000000000000000000000000000000000000006020830152604082019050919050565b60006136e8601083613e07565b91507f416c72656164792052656465656d6564000000000000000000000000000000006000830152602082019050919050565b6000613728603183613e07565b91507f4552433732313a207472616e736665722063616c6c6572206973206e6f74206f60008301527f776e6572206e6f7220617070726f7665640000000000000000000000000000006020830152604082019050919050565b600061378e601d83613e07565b91507f416464726573733a2063616c6c20746f206e6f6e2d636f6e74726163740000006000830152602082019050919050565b600060c0830160008301516137d96000860182613851565b50602083015184820360208601526137f18282612f64565b9150506040830151848203604086015261380b8282612f64565b91505060608301516138206060860182613851565b5060808301516138336080860182612edc565b5060a083015161384660a0860182613851565b508091505092915050565b61385a81613e9f565b82525050565b61386981613e9f565b82525050565b600061387b8284612f33565b915081905092915050565b60006138928285612fd6565b915061389e8284612fd6565b91508190509392505050565b60006020820190506138bf6000830184612e58565b92915050565b60006080820190506138da6000830187612e49565b6138e76020830186612e58565b6138f46040830185613860565b81810360608301526139068184612efa565b905095945050505050565b60006080820190506139266000830187612e3a565b6139336020830186613860565b81810360408301526139458185612f9d565b90506139546060830184613860565b95945050505050565b600060208201905081810360008301526139778184612e67565b905092915050565b60006020820190506139946000830184612eeb565b92915050565b600060208201905081810360008301526139b48184612f9d565b905092915050565b600060208201905081810360008301526139d581613007565b9050919050565b600060208201905081810360008301526139f58161306d565b9050919050565b60006020820190508181036000830152613a15816130d3565b9050919050565b60006020820190508181036000830152613a3581613139565b9050919050565b60006020820190508181036000830152613a5581613179565b9050919050565b60006020820190508181036000830152613a75816131df565b9050919050565b60006020820190508181036000830152613a958161321f565b9050919050565b60006020820190508181036000830152613ab58161325f565b9050919050565b60006020820190508181036000830152613ad5816132c5565b9050919050565b60006020820190508181036000830152613af58161332b565b9050919050565b60006020820190508181036000830152613b1581613391565b9050919050565b60006020820190508181036000830152613b35816133f7565b9050919050565b60006020820190508181036000830152613b558161345d565b9050919050565b60006020820190508181036000830152613b758161349d565b9050919050565b60006020820190508181036000830152613b9581613503565b9050919050565b60006020820190508181036000830152613bb581613569565b9050919050565b60006020820190508181036000830152613bd5816135a9565b9050919050565b60006020820190508181036000830152613bf58161360f565b9050919050565b60006020820190508181036000830152613c1581613675565b9050919050565b60006020820190508181036000830152613c35816136db565b9050919050565b60006020820190508181036000830152613c558161371b565b9050919050565b60006020820190508181036000830152613c7581613781565b9050919050565b6000602082019050613c916000830184613860565b92915050565b600060c082019050613cac6000830189613860565b8181036020830152613cbe8188612f9d565b90508181036040830152613cd28187612f9d565b9050613ce16060830186613860565b613cee6080830185612eeb565b613cfb60a0830184613860565b979650505050505050565b6000604051905081810181811067ffffffffffffffff82111715613d2957600080fd5b8060405250919050565b600067ffffffffffffffff821115613d4a57600080fd5b601f19601f8301169050602081019050919050565b600067ffffffffffffffff821115613d7657600080fd5b601f19601f8301169050602081019050919050565b6000819050602082019050919050565b600081519050919050565b600081519050919050565b600081519050919050565b6000602082019050919050565b600082825260208201905092915050565b600082825260208201905092915050565b600081905092915050565b600082825260208201905092915050565b600082825260208201905092915050565b600081905092915050565b6000613e2e82613e7f565b9050919050565b6000613e4082613e7f565b9050919050565b60008115159050919050565b60007fffffffff0000000000000000000000000000000000000000000000000000000082169050919050565b600073ffffffffffffffffffffffffffffffffffffffff82169050919050565b6000819050919050565b6000613eb482613ebb565b9050919050565b6000613ec682613ecd565b9050919050565b6000613ed882613e7f565b9050919050565b82818337600083830152505050565b60005b83811015613f0c578082015181840152602081019050613ef1565b83811115613f1b576000848401525b50505050565b6000601f19601f8301169050919050565b613f3b81613e23565b8114613f4657600080fd5b50565b613f5281613e47565b8114613f5d57600080fd5b50565b613f6981613e53565b8114613f7457600080fd5b50565b613f8081613e9f565b8114613f8b57600080fd5b5056fe4552433732313a207472616e7366657220746f206e6f6e20455243373231526563656976657220696d706c656d656e7465724552433732313a206f776e657220717565727920666f72206e6f6e6578697374656e7420746f6b656ea264697066735822122036e6d7ba071c442bd5366f1d1b033e9e7284dd77e7a9c8b4d792976bbde0ed7f64736f6c634300060c0033",
  "immutableReferences": {},
  "source": "// contracts/Coupon.sol\n// SPDX-License-Identifier: MIT\npragma solidity ^0.6.0;\npragma experimental ABIEncoderV2;\n\nimport \"@openzeppelin/contracts/token/ERC721/ERC721.sol\";\nimport \"@openzeppelin/contracts/utils/Counters.sol\";\n\n// Import Ownable from the OpenZeppelin Contracts library\nimport \"@openzeppelin/contracts/access/Ownable.sol\";\n\ncontract Coupon is Ownable, ERC721 {\n    using Counters for Counters.Counter;\n    Counters.Counter private _tokenIds;\n\n    struct CouponItem { \n        uint256 tokenId;\n        string description;\n        string expiryDate;\n        uint value;\n        bool redeemed;\n        uint256 redeemedTimeStamp;\n    }\n    \n    mapping (uint256 => CouponItem) public coupons;\n    uint256 [] public tokenIds;\n\n    constructor() public ERC721(\"Coupon\", \"CPN\") {}\n\n    event awardCouponEvent(address customer, uint256 tokenId, string tokenURI, uint256 blockTimeStamp);\n\n    function awardCoupon(address customer, string memory tokenURI) public onlyOwner returns (uint256)\n    {\n        _tokenIds.increment();\n\n        uint256 newCouponId = _tokenIds.current();\n        _mint(customer, newCouponId);\n        _setTokenURI(newCouponId, tokenURI);\n\n        ////CouponItem memory c;\n        ////c = CouponItem(newCouponId,\"Cash Coupon\",\"2022-12-31\",50,false);\n\n        coupons[newCouponId].tokenId = newCouponId;\n        coupons[newCouponId].description = \"Cash Coupon\";\n        coupons[newCouponId].expiryDate = \"2022-12-31\";\n        coupons[newCouponId].value = 50;\n        coupons[newCouponId].redeemed = false;\n        tokenIds.push(newCouponId);\n        \n        emit awardCouponEvent(msg.sender, newCouponId, tokenURI, now);\n        \n        return newCouponId;\n    }\n\n    event redeemCouponEvent(address customer, uint256 tokenId, string tokenURI, uint256 blockTimeStamp);\n\n    function redeem(uint256 tokenId) public { \n        require(ownerOf(tokenId) == msg.sender, \"Not Owner\");\n        require(coupons[tokenId].redeemed == false, \"Already Redeemed\");\n\n        coupons[tokenId].redeemed = true;\n        coupons[tokenId].redeemedTimeStamp = now;\n\n        emit redeemCouponEvent(msg.sender, tokenId, tokenURI(tokenId), now);\n    }\n\n    function getMyCoupons() public view returns (CouponItem[] memory) {\n        CouponItem [] memory myCoupons = new CouponItem[](balanceOf(msg.sender));\n        uint256 tokenId;\n\n        if (balanceOf(msg.sender) > 0) {\n            uint j = 0;\n            for (uint i = 0; i < totalSupply(); i++) {\n                tokenId = tokenByIndex(i);\n                if (ownerOf(tokenId) == msg.sender) {\n                    myCoupons[j] = coupons[tokenId];\n                    j++;\n                }\n            }\n        }\n\n        return myCoupons;\n    }\n}",
  "sourcePath": "/src/contracts/Coupon.sol",
  "compiler": {
    "name": "solc",
    "version": "0.6.12+commit.27d51765.Emscripten.clang"
  },
  "schemaVersion": "3.3.4",
  "updatedAt": "2021-03-10T23:20:09.148Z",
  "networkType": "ethereum",
  "devdoc": {
    "kind": "dev",
    "methods": {
      "approve(address,uint256)": {
        "details": "See {IERC721-approve}."
      },
      "balanceOf(address)": {
        "details": "See {IERC721-balanceOf}."
      },
      "baseURI()": {
        "details": "Returns the base URI set via {_setBaseURI}. This will be automatically added as a prefix in {tokenURI} to each token's URI, or to the token ID if no specific URI is set for that token ID."
      },
      "getApproved(uint256)": {
        "details": "See {IERC721-getApproved}."
      },
      "isApprovedForAll(address,address)": {
        "details": "See {IERC721-isApprovedForAll}."
      },
      "name()": {
        "details": "See {IERC721Metadata-name}."
      },
      "owner()": {
        "details": "Returns the address of the current owner."
      },
      "ownerOf(uint256)": {
        "details": "See {IERC721-ownerOf}."
      },
      "renounceOwnership()": {
        "details": "Leaves the contract without owner. It will not be possible to call `onlyOwner` functions anymore. Can only be called by the current owner. NOTE: Renouncing ownership will leave the contract without an owner, thereby removing any functionality that is only available to the owner."
      },
      "safeTransferFrom(address,address,uint256)": {
        "details": "See {IERC721-safeTransferFrom}."
      },
      "safeTransferFrom(address,address,uint256,bytes)": {
        "details": "See {IERC721-safeTransferFrom}."
      },
      "setApprovalForAll(address,bool)": {
        "details": "See {IERC721-setApprovalForAll}."
      },
      "supportsInterface(bytes4)": {
        "details": "See {IERC165-supportsInterface}. Time complexity O(1), guaranteed to always use less than 30 000 gas."
      },
      "symbol()": {
        "details": "See {IERC721Metadata-symbol}."
      },
      "tokenByIndex(uint256)": {
        "details": "See {IERC721Enumerable-tokenByIndex}."
      },
      "tokenOfOwnerByIndex(address,uint256)": {
        "details": "See {IERC721Enumerable-tokenOfOwnerByIndex}."
      },
      "tokenURI(uint256)": {
        "details": "See {IERC721Metadata-tokenURI}."
      },
      "totalSupply()": {
        "details": "See {IERC721Enumerable-totalSupply}."
      },
      "transferFrom(address,address,uint256)": {
        "details": "See {IERC721-transferFrom}."
      },
      "transferOwnership(address)": {
        "details": "Transfers ownership of the contract to a new account (`newOwner`). Can only be called by the current owner."
      }
    },
    "version": 1
  },
  "userdoc": {
    "kind": "user",
    "methods": {},
    "version": 1
  }
}